:0400000049EF3FF095
:107E92000001E3EF3FF0D0EC3FF0C5801200D0ECE0
:107EA2003FF0C5841200026ED0EC3FF002C0C9FF61
:107EB200120093809382C78EC68AC650F00B0809BF
:107EC200C66E310EC86E000EC56E1200036E4CEC0B
:107ED2003FF0D00E54EC3FF0040E54EC3FF0035050
:107EE20054EC3FF050EC3FF01200036E4CEC3FF0CC
:107EF200D00E54EC3FF0030E54EC3FF0035054EC20
:107F02003FF050EC3FF01200036E4CEC3FF0D00E0D
:107F120054EC3FF0020E54EC3FF0035054EC3FF0AF
:107F220050EC3FF01200036E4CEC3FF0D00E54ECDC
:107F32003FF0010E54EC3FF0035054EC3FF050EC94
:107F42003FF01200036E4CEC3FF0D00E54EC3FF0C9
:107F5200050E54EC3FF0035054EC3FF050EC3FF070
:107F62001200036E4CEC3FF0D00E54EC3FF0000ECA
:107F720054EC3FF0035054EC3FF050EC3FF0120051
:107F8200036E4CEC3FF0D00E54EC3FF0060E54EC76
:107F92003FF0035054EC3FF050EC3FF01200C5CFDD
:107FA20001F01F0E0116D8A4D9EF3FF0DBEF3FF02E
:107FB200D0EF3FF0C7B4E0EF3FF0E2EF3FF0D0EF99
:107FC2003FF012000F0EC16E5AEC3FF0230E85EC0B
:107FD2003FF0590E94EC3FF0560EB2EC3FF0010E1A
:107FE20076EC3FF0230EC1EC3FF0020EA3EC3FF023
:0E7FF200280E67EC3FF0FCEF3FF000EF00F0D0
:020000040020DA
:08000000FFFFFFFFFFFFFFFF00
:020000040030CA
:0E000000000C191EFF8185FF0FC00FE00F409E
:00000001FF
