:08000000803102288731FB2F3B
:100D3A00F600F20176088731042786310800F600AA
:100D4A00F201F20A76088731042786310800FE305C
:100D5A00F70077082000A3052308083886319D2666
:100D6A0086311830890BB72E00320800FD30F700A3
:100D7A0077082000A3052308083886319D26863186
:100D8A001830890BC62E0032080087319E2786311B
:100D9A008631AC2686318631BB2686310330200067
:100DAA00A2002208FB000030FC008830FD0002305F
:100DBA008631E3268631E02E803102282000A10008
:100DCA007B08A0002008F700210887312F278631E9
:100DDA00FA2E7C0884007D08850000088631A42646
:100DEA0086310130FC070030FD3D7C0884007D0817
:100DFA0085001200031D022F032FEE2E0800F500B6
:100E0A000F2FFE30F300730822008F051F2F2200D8
:100E1A000F141F2F7208F300F4017408003A031923
:100E2A00172F1F2F7308003A0319062F013A0319C7
:100E3A000C2F1F2F7508F3000430F336890B222F6D
:100E4A00730887316627873175080F398731662716
:100E5A0087310800FA004F2F77087F3E86319D269A
:100E6A008731652F7708BF3E86319D268731652FEA
:100E7A007708933E86319D268731652F7708D33EC2
:100E8A0086319D268731652F77087F3E86319D26DC
:100E9A008731652F7A08F800F9017908003A0319B1
:100EAA00572F492F7808013A0319312F033A0319AA
:100EBA00372F013A03193D2F073A0319432F492FB8
:100ECA000800F10071186A2F6B2F712FEF30F000B4
:100EDA00700822008F05732F22000F16F118762F43
:100EEA00772F7C2FDF30F00070088F057D2F8F164B
:100EFA007119802F812F862FBF30F00070088F055F
:100F0A00872F0F17F1198A2F8B2F902F7F30F00020
:100F1A0070088F05912F8F17FB30F00070088F052E
:100F2A000F15FB30F00070088F05C830890B9B2F16
:100F3A0008000A30F700770823008F050A30F70007
:100F4A00770821008F050A30F700770822008F05FD
:100F5A002730F700F530890BB02FF70BB02F0000C0
:100F6A0003308731662787310D30F700FC30890B53
:100F7A00BC2FF70BBC2F03308731662787314230ED
:100F8A00890BC52F0032033087316627873102303B
:100F9A00873166278731283086319D26873106308A
:100FAA00F7003030890BD72FF70BD72F00320730D5
:100FBA00F70077082000A3002308083886319D2609
:100FCA0087310630F7003030890BE92FF70BE92F0C
:100FDA000032013086319D2687310630F7003030E5
:100FEA00890BF52FF70BF52F003208002000A3011B
:100FFA0020008631CA2E55346E3469347634613411
:08100A006C346C3465340034D1
:020000040001F9
:08000000FF3FFF3FFF3FFF3F00
:04000E00E239FF3E96
:00000001FF
