:0400000024EF05F0F4
:1008000000556E6976616C6C65200D0A0000000E63
:10081000016E2D0E026E310E036E010E046E0EC0BF
:1008200016F00FC017F010C018F011C019F0040E28
:10083000D8901636173618361936E82E18EF04F009
:1008400016C005F017C006F018C007F019C008F070
:100850007BEC04F0FF0E01241A6EFF0E02201B6ECB
:10086000FF0E03201C6EFF0E04201D6E1AC0AFFF8A
:10087000240EAC6E900EAB6E090E1218D8B443EF76
:1008800004F046EF04F0AC8C47EF04F0AC9C090E8A
:100890001218D8B44EEF04F051EF04F0AB8C52EFC5
:1008A00004F0AB9CAC8AAC98AB8E65EF04F0AC84E2
:1008B000AC90AB827AEF04F0AC84AC8059EF04F0DA
:1008C000AC84AC90AB927AEF04F01350166E176ABA
:1008D0001750000AD8B46FEF04F060EF04F0165020
:1008E000010AD8B457EF04F0030AD8B45CEF04F05F
:1008F00060EF04F01200000E096E000E0A6E000E8A
:100900000B6E000E0C6E0550061007100810D8B4C0
:100910008CEF04F08EEF04F0C4EF04F0010E0D6EC6
:1009200098EF04F0D89005360636073608360D2ABB
:1009300008AE9DEF04F09FEF04F092EF04F0D89022
:1009400009360A360B360C360550015C0650025843
:100950000750035808500458D8A0B1EF04F0B3EF83
:1009600004F0BCEF04F00550015E0650025A075037
:10097000035A0850045A0980D890083207320632C8
:1009800005320D2E9FEF04F009C001F00AC002F0FD
:100990000BC003F00CC004F01200800E206E250E78
:1009A000216E000E226E000E236E080E246E000EC5
:1009B000256E010E266E010E276E20EE20F000EE51
:1009C0000EF0070EDBCFEBFFE806FCE207EC04F0CD
:1009D000010E026E080E036EFEEC04F01A0E1F6E7E
:1009E0005E0E1E6E6E0EE82EFED71E2EFCD71F2E3C
:1009F000FAD700D0E8EF04F000EF00F00AEF05F0BE
:100A000002C0F6FF03C0F7FF0800F55019EC05F02F
:100A1000024A032A02C0F6FF03C0F7FF0800F550A0
:100A20000009D8A416EF05F018EF05F000EF05F067
:100A30001200016EACA21FEF05F021EF05F01AEFD6
:100A400005F001C0ADFF1200000EF86E0001CDEF01
:020A500004F0B0
:020000040020DA
:08000000FFFFFFFFFFFFFFFF00
:020000040030CA
:0E000000000C181EFF8181FF0FC00FE00F40A3
:00000001FF
