:0400000044EF1DF0BC
:100800000064697374616E6369613A2025302E312A
:10081000660D0A00494E46004E414E00696E660064
:100820006E616E006C660000000E0001956F000E98
:10083000946F76C0A6F077C0A7F078C0A8F079C012
:10084000A9F0A9BF28EF04F026EF04F03EEF04F072
:10085000000E956F010E946FA6C001F0A7C002F0C4
:10086000A8C003F0A9C004F08BEC1EF001C0A6F0F4
:1008700002C0A7F003C0A8F004C0A9F0000E000158
:10088000AD6F000EAC6FF9C098F0FAC099F09451BA
:100890009511D8A44EEF04F050EF04F057EF04F098
:1008A000FDA555EF04F057EF04F071EF04F09451FB
:1008B0009511D8A45EEF04F060EF04F066EF04F049
:1008C000000E816F2B0E806F6AEF04F0000E816FB7
:1008D0002D0E806F80C022F1AC4BAD2B9807D8A0B5
:1008E0009907A6C001F0A7C002F0A8C003F0A9C0F4
:1008F00004F0FCEC18F001040210D8A482EF04F01C
:1009000084EF04F0CEEF04F0BF0E00017B6FFF0E0A
:100910007C6F7A517D6F7E6B7B517D277C517E236E
:100920007E5107E11A0E7D5DD8B099EF04F09BEF80
:1009300004F0A9EF04F0220EAC25016E010EAD21EA
:10094000026E140E036E080E046E16EC1DF0B5EF69
:1009500004F0220EAC25016E010EAD21026E1C0EBC
:10096000036E080E046E16EC1DF00001FD0E9827B4
:10097000FF0E992374C011F075C012F0220E136E91
:10098000010E146E98C015F099C016F0BFEC1AF065
:1009900011C074F012C075F018EF0AF0A6C001F093
:1009A000A7C002F0A8C003F0A9C004F0FCEC18F046
:1009B00001500210D8A4DFEF04F0E1EF04F014EFCF
:1009C00005F0BF0E00017B6FFF0E7C6F7A517D6FCB
:1009D0007E6B7B517D277C517E237E5107E11A0E71
:1009E0007D5DD8B0F6EF04F0F8EF04F006EF05F007
:1009F000220EAC25016E010EAD21026E180E036EA3
:100A0000080E046E16EC1DF0B5EF04F0220EAC25B6
:100A1000016E010EAD21026E200E036E080E046EF3
:100A200016EC1DF0B5EF04F0000E0001AE6F000EE5
:100A3000AF6F800EB06F3F0EB16F000EAB6F000E48
:100A4000AA6FA6C001F0A7C002F0A8C003F0A9C019
:100A500004F0000E056E000E066E000E076E000E0E
:100A6000086E3AEC1CF0D8B038EF05F03AEF05F01C
:100A7000BDEF05F059EF05F0AEC02BF0AFC02CF084
:100A8000B0C02DF0B1C02EF0000E2F6E000E306EF3
:100A9000200E316E410E326EF3EC0EF02BC0AEF034
:100AA0002CC0AFF02DC0B0F02EC0B1F00001AA4BA9
:100AB000AB2BA6C044F0A7C045F0A8C046F0A9C023
:100AC00047F0000E2F6E000E306E200E316E410E7C
:100AD000326EAEC02BF0AFC02CF0B0C02DF0B1C064
:100AE0002EF0F3EC0EF02BC048F02CC049F02DC0D6
:100AF0004AF02EC04BF07AEC18F0D8B082EF05F037
:100B000084EF05F03CEF05F0A4EF05F0AEC044F033
:100B1000AFC045F0B0C046F0B1C047F0000E486E1F
:100B2000000E496E200E4A6E410E4B6E08EC11F01D
:100B300044C0AEF045C0AFF046C0B0F047C0B1F021
:100B40000001AA07D8A0AB07A6C044F0A7C045F093
:100B5000A8C046F0A9C047F0AEC048F0AFC049F009
:100B6000B0C04AF0B1C04BF07AEC18F0D8A0BBEF9F
:100B700005F0BDEF05F086EF05F07AC007F0086AD2
:100B8000E6EC1DF0075000019B6F9BC09AF0670ECA
:100B90009B19D8A4CEEF05F0D0EF05F0F6EF05F0E5
:100BA000FB51FC11D8A4D7EF05F0D9EF05F0DDEF2C
:100BB00005F0000EFC6F010EFB6FFCBFEAEF05F0C5
:100BC000FC5106E1FB05D8B0E8EF05F0EAEF05F0CF
:100BD000F0EF05F0000E976F060E966FFFEF05F031
:100BE000FBC096F0FCC097F0FFEF05F0FCBFFBEFF9
:100BF00005F0FDEF05F0EAEF05F0F0EF05F0670E08
:100C00009B19D8A406EF06F008EF06F037EF06F0C0
:100C1000ABAF16EF06F0FC0EAA5DFF0EAB59D8A0E5
:100C200014EF06F016EF06F035EF06F0FF0E7B6FBF
:100C3000FF0E7C6F96C07DF097C07EF07B517D27C4
:100C40007C517E23AA517D5D7E51800A7F6FAB511E
:100C5000800A7F59D8A02FEF06F031EF06F035EF6C
:100C600006F0660E9A6F37EF06F0650E9A6F96C023
:100C70008CF097C08DF0670E9B19D8A442EF06F058
:100C800044EF06F054EF06F0660E9A19D8A44BEF25
:100C900006F04DEF06F056EF06F0ABBF54EF06F04E
:100CA00052EF06F056EF06F08C4B8D2B660E9A191C
:100CB000D8A45DEF06F05FEF06F07FEF06F0ABBF64
:100CC00066EF06F064EF06F072EF06F0000EAE6F0E
:100CD000000EAF6F800EB06F3F0EB16F000EAB6FA6
:100CE000000EAA6F670E9B19D8B479EF06F07BEF60
:100CF00006F07FEF06F0AA518C27AB518D23000E32
:100D0000A56F000EA46FA6C09CF0A7C09DF0A8C060
:100D10009EF0A9C09FF0AEC08EF0AFC08FF0B0C003
:100D200090F0B1C091F010EF07F09CC044F09DC06E
:100D300045F09EC046F09FC047F0AEC048F0AFC03F
:100D400049F0B0C04AF0B1C04BF008EC11F044C01B
:100D500060F045C061F046C062F047C063F066ECE9
:100D600015F060C0A0F061C0A1F062C0A2F063C045
:100D7000A3F0A0C060F0A1C061F0A2C062F0A3C067
:100D800063F0F6EC17F060C092F061C093F09CC085
:100D900023F09DC024F09EC025F09FC026F0AEC079
:100DA0002FF0AFC030F0B0C031F0B1C032F0A0C011
:100DB0002BF0A1C02CF0A2C02DF0A3C02EF0F3ECBC
:100DC0000EF02BC027F02CC028F02DC029F02EC02B
:100DD0002AF009EC1EF023C09CF024C09DF025C031
:100DE0009EF026C09FF0AEC044F0AFC045F0B0C04A
:100DF00046F0B1C047F0000E486E000E496E200E5E
:100E00004A6E410E4B6E08EC11F044C0AEF045C086
:100E1000AFF046C0B0F047C0B1F00001A44BA52B25
:100E20008C51A45DA551800A7B6F8D51800A7B593E
:100E3000D8A01DEF07F01FEF07F095EF06F0AEC04A
:100E40002BF0AFC02CF0B0C02DF0B1C02EF0000ED2
:100E50002F6E000E306EA00E316E400E326EF3EC2F
:100E60000EF02BC0A0F02CC0A1F02DC0A2F02EC01F
:100E7000A3F09CC044F09DC045F09EC046F09FC0CA
:100E800047F0A0C048F0A1C049F0A2C04AF0A3C0FA
:100E90004BF07AEC18F0D8B050EF07F052EF07F0B3
:100EA0005DEF07F0000E0001A06F000EA16F000EB5
:100EB000A26F000EA36F86EF07F09CC001F09DC0EB
:100EC00002F09EC003F09FC004F0A0C005F0A1C0D6
:100ED00006F0A2C007F0A3C008F03AEC1CF0D8A0BE
:100EE00074EF07F076EF07F086EF07F0000192B19C
:100EF0007CEF07F07EEF07F086EF07F0000EA06FA3
:100F0000000EA16F000EA26F000EA36FA6C013F01B
:100F1000A7C014F0A8C015F0A9C016F0A0C017F023
:100F2000A1C018F0A2C019F0A3C01AF093EC0CF005
:100F300013C09CF014C09DF015C09EF016C09FF029
:100F40009CC044F09DC045F09EC046F09FC047F055
:100F5000000E2F6E000E306E200E316E410E326E7E
:100F60008EC02BF08FC02CF090C02DF091C02EF0D1
:100F7000F3EC0EF02BC048F02CC049F02DC04AF025
:100F80002EC04BF07AEC18F0D8A0C9EF07F0CBEFE9
:100F900007F0F4EF07F00001AA4BAB2B8EC02BF04B
:100FA0008FC02CF090C02DF091C02EF0000E2F6E4F
:100FB000000E306E200E316E410E326EF3EC0EF0EC
:100FC0002BC08EF02CC08FF02DC090F02EC091F071
:100FD000660E00019A19D8A4F0EF07F0F2EF07F0BF
:100FE000F4EF07F08C4B8D2B8EC0AEF08FC0AFF0BE
:100FF00090C0B0F091C0B1F0650E00019A19D8B45C
:1010000004EF08F006EF08F00CEF08F0AAC08AF031
:10101000ABC08BF010EF08F0000E8B6F000E8A6FE4
:10102000000E896F000E886F000E876F000E866FAE
:10103000000EA56F000EA46F0BEF09F09CC044F0EA
:101040009DC045F09EC046F09FC047F0AEC048F03E
:10105000AFC049F0B0C04AF0B1C04BF008EC11F09D
:1010600044C060F045C061F046C062F047C063F024
:1010700066EC15F060C0A0F061C0A1F062C0A2F003
:1010800063C0A3F0A0C060F0A1C061F0A2C062F094
:10109000A3C063F0F6EC17F060C092F061C093F06B
:1010A0000001FDB956EF08F058EF08F075EF08F0B1
:1010B00092519311D8A45FEF08F061EF08F075EF3B
:1010C00008F0670E9B19D8A468EF08F06AEF08F0E3
:1010D00075EF08F08BBF71EF08F06FEF08F075EF58
:1010E00008F0864B872BBFEF08F088518911D8A4F0
:1010F0007CEF08F07EEF08F0A8EF08F08BBF85EFDB
:1011000008F083EF08F0A8EF08F0220EAC25D96EA6
:10111000010EAD21DA6E2E0EDF6EAC4BAD2B9807B3
:10112000D8A09907000E896F010E886FA8EF08F00C
:10113000220EAC25D96E010EAD21DA6E300EDF6EB7
:10114000AC4BAD2B9807D8A099078607D8A0870786
:1011500086518711D8A4AFEF08F0B1EF08F098EFEF
:1011600008F0220EAC25D96E010EAD21DA6E925137
:10117000300FDF6EAC4BAD2B9807D8A099079CC001
:1011800023F09DC024F09EC025F09FC026F0AEC085
:101190002FF0AFC030F0B0C031F0B1C032F0A0C01D
:1011A0002BF0A1C02CF0A2C02DF0A3C02EF0F3ECC8
:1011B0000EF02BC027F02CC028F02DC029F02EC037
:1011C0002AF009EC1EF023C09CF024C09DF025C03D
:1011D0009EF026C09FF0AEC044F0AFC045F0B0C056
:1011E00046F0B1C047F0000E486E000E496E200E6A
:1011F0004A6E410E4B6E08EC11F044C0AEF045C093
:10120000AFF046C0B0F047C0B1F000018A07D8A0E7
:101210008B07A44BA52B8C51A45DA551800A7B6F35
:101220008D51800A7B59D8B018EF09F01AEF09F0F8
:1012300028EF09F0ADBF26EF09F0AD5109E14B0EE3
:10124000AC5DD8A026EF09F028EF09F01EEF08F0FA
:1012500088518911D8A42FEF09F031EF09F042EF3E
:1012600009F0FDA936EF09F038EF09F042EF09F077
:10127000220EAC25D96E010EAD21DA6E2E0EDF6E78
:10128000AC4BAD2B220EAC25D96E010EAD21DA6E22
:10129000000EDF6E650E9A19D8A451EF09F053EFD6
:1012A00009F0BAEF04F0000EA56F4F0EA46F220EE6
:1012B000A425D96E010EA521DA6E000EDF6E000E98
:1012C000956F000E946FABBF6AEF09F068EF09F0FD
:1012D00072EF09F0000E956F010E946FAA6DAB1FAF
:1012E000D8B0AB2B000E976F020E966FA3EF09F0EC
:1012F000A407D8A0A507220EA425D96E010EA5210A
:10130000DA6EAAC001F0ABC002F0000E046E0A0E45
:10131000036EE2EC1BF00150300FDF6EAAC001F04B
:10132000ABC002F0000E046E0A0E036E22EC1BF03E
:1013300001C0AAF002C0ABF000019607D8A0970741
:101340009807D8A09907AA51AB11D8A4AAEF09F021
:10135000ACEF09F078EF09F097BFB9EF09F09751BA
:1013600006E19605D8B0B7EF09F0B9EF09F078EFCC
:1013700009F0A407D8A0A50794519511D8A4C3EFEC
:1013800009F0C5EF09F0CBEF09F0000E836F2B0ECB
:10139000826FCFEF09F0000E836F2D0E826F220E49
:1013A000A425D96E010EA521DA6E82C0DFFF980751
:1013B000D8A09907A407D8A0A507BF0E7B6FFF0E82
:1013C0007C6F7A517D6F7E6B7B517D277C517E23B4
:1013D0007E5109E11A0E7D5DD8A0F1EF09F0F3EF1F
:1013E00009F0F9EF09F0000E856F650E846FFDEFCF
:1013F00009F0000E856F450E846F220EA425D96E6C
:10140000010EA521DA6E84C0DFFF9807D8A09907E6
:10141000220EAC25016E010EAD21026E220EA42516
:10142000036E010EA521046E16EC1DF0BAEF04F058
:101430001200B4C0D9FFB5C0DAFFDECFF6FFDDCFB2
:10144000F7FF0800F550250AD8A429EF0AF02BEF82
:101450000AF077EF0CF0B4C0D9FFB5C0DAFFDE2A8E
:10146000000EDD22000E0001FA6F000EF96FF9C0C8
:10147000FDF0FAC0FEF0FB69FC69000EBD6F000EC6
:10148000BC6F89EF0AF0FD81B4C0D9FFB5C0DAFFA7
:10149000DE2A000EDD2289EF0AF0FD8344EF0AF018
:1014A000FD8544EF0AF0FD8744EF0AF0FD8944EF23
:1014B0000AF0000EBD6F010EBC6F89EF0AF0B4C0D8
:1014C000D9FFB5C0DAFFDECFF6FFDDCFF7FF0800AA
:1014D000F550B86FB96BB951000AD8B472EF0AF081
:1014E00059EF0AF0B851200AD8B453EF0AF0030AB2
:1014F000D8B456EF0AF0080AD8B450EF0AF0060A3A
:10150000D8B443EF0AF01D0AD8B44DEF0AF059EFF2
:101510000AF0BC51BD11D8B490EF0AF092EF0AF076
:101520005FEF0AF0FDA197EF0AF099EF0AF09AEF4A
:101530000AF0FD93B4C0D9FFB5C0DAFFDECFF6FFE5
:10154000DDCFF7FF0800F5502E0AD8A4AAEF0AF065
:10155000ACEF0AF01DEF0BF0000EFC6F000EFB6FFE
:10156000B4C0D9FFB5C0DAFFDE2A000EDD22B4C058
:10157000D9FFB5C0DAFFDECFF6FFDDCFF7FF0800F9
:10158000F5502A0AD8A4C7EF0AF0C9EF0AF0E6EF2F
:101590000AF0B4C0D9FFB5C0DAFFDE2A000EDD22A2
:1015A000B6C0D9FFB7C0DAFFDFCFB8F0020EDE2633
:1015B000DFCFB9F0000EDD22B8C0D9FFB9C0DAFF25
:1015C000DECFFBF0DDCFFCF01DEF0BF0B4C0D9FF98
:1015D000B5C0DAFFDECF08F0DDCF09F04BEC17F035
:1015E00008C0FBF009C0FCF0FDEF0AF0B4C0D9FF61
:1015F000B5C0DAFFDE2A000EDD22D00E0001B86F82
:10160000FF0EB96FB4C0D9FFB5C0DAFFDECFF6FF69
:10161000DDCFF7FF0800F550BA6FBB6BB851BA27A2
:10162000B951BB23BB5109E10A0EBA5DD8A01BEF2B
:101630000BF01DEF0BF0F6EF0AF0B4C0D9FFB5C008
:10164000DAFFDECFF6FFDDCFF7FF0800F550076EBB
:10165000086AE6EC1DF007500001C26FC251D8B411
:1016600034EF0BF036EF0BF070EF0BF0B4C0D9FF96
:10167000B5C0DAFFDECFB8F0DDCFB9F0010EB82784
:10168000000EB923B8C0F6FFB9C0F7FF0800F55047
:10169000076E086AE6EC1DF007500001C36FC351E6
:1016A000D8B455EF0BF057EF0BF070EF0BF0B4C060
:1016B000D9FFB5C0DAFFDECFB8F0DDCFB9F0020E4A
:1016C000B827000EB923B8C0F6FFB9C0F7FF08006D
:1016D000F550076E086AE6EC1DF007500001C46F74
:1016E000660EC219D8A477EF0BF079EF0BF0B9EFC3
:1016F0000BF0B4C0D9FFB5C0DAFFDECFF6FFDDCF07
:10170000F7FF0800F5CFC5F0B4C0D9FFB5C0DAFFC8
:10171000DE2A000EDD22B6C0D9FFB7C0DAFFDFCF68
:10172000B8F0040EDE26DFCFB9F0000EDD22B8C01F
:10173000D9FFB9C0DAFFDECFBEF0DECFBFF0DECF1B
:10174000C0F0DECFC1F0B2C074F0B3C075F0BEC05F
:1017500076F0BFC077F0C0C078F0C1C079F0C5C0E6
:101760007AF014EC04F074C0B2F075C0B3F092EFEC
:101770000CF0C20E016E000E026E240E036E080EF7
:10178000046E000E066E020E056EEFEC19F00150AD
:101790000210D8A4CEEF0BF0D0EF0BF03FEF0CF01F
:1017A000B4C0D9FFB5C0DAFFDECFB8F0DDCFB9F0F5
:1017B000010E0001B827000EB923B8C0F6FFB9C06A
:1017C000F7FF0800F5CFC5F0BF0EB86FFF0EB96F79
:1017D000B4C0D9FFB5C0DAFFDECFF6FFDDCFF7FF2B
:1017E0000800F550BA6FBB6BB851BA27B951BB238B
:1017F000BB5107E11A0EBA5DD8B001EF0CF003EF50
:101800000CF01DEF0CF0B6C0D9FFB7C0DAFFDFCF88
:10181000B8F0040EDE26DFCFB9F0000EDD22B8C02E
:10182000D9FFB9C0DAFFDECFBEF0DECFBFF0DECF2A
:10183000C0F0DECFC1F035EF0CF0B6C0D9FFB7C0B5
:10184000DAFFDFCFB8F0040EDE26DFCFB9F0000EEE
:10185000DD22B8C0D9FFB9C0DAFFDECFBEF0DECFDF
:10186000BFF0DECFC0F0DECFC1F0020EB4C0D9FFB2
:10187000B5C0DAFFDE26000EDD22A3EF0BF0B4C008
:10188000D9FFB5C0DAFFDECFF6FFDDCFF7FF0800E6
:10189000F550250AD8A44FEF0CF051EF0CF069EF8A
:1018A0000CF0B4C0D9FFB5C0DAFFDE2A000EDD228D
:1018B000000E026E250E016EB2C003F0B3C004F03C
:1018C0005AEC1AF0000E0001B36F010EB26F92EFE6
:1018D0000CF0B4C0D9FFB5C0DAFFDE2A000EDD225D
:1018E000000E0001B36F000EB26F92EF0CF0B4C0A7
:1018F000D9FFB5C0DAFFDECFF6FFDDCFF7FF080076
:10190000F550016E026AB2C003F0B3C004F05AECA5
:101910001AF0B4C0D9FFB5C0DAFFDE2A000EDD220E
:1019200062EF0CF012001650800B1F6E165016243A
:10193000216E15AE9EEF0CF0A0EF0CF0A1EF0CF0B5
:1019400021802150D8B4A7EF0CF0A9EF0CF0BEEF26
:101950000CF02128D8A4AFEF0CF0B1EF0CF0B9EFE8
:101960000CF0000E136E000E146E000E156E000EBD
:10197000166E158E000E166EC6EF0CF0000E136E6E
:10198000000E146E000E156E000E166E1A50800BAF
:10199000206E1F502018D8B4D0EF0CF0D2EF0CF00E
:1019A000D3EF0CF01F8C1A501A24206E19AEDBEF07
:1019B0000CF0DDEF0CF0DEEF0CF020802050D8B4FE
:1019C000E4EF0CF0E6EF0CF0FBEF0CF02028D8A4CD
:1019D000ECEF0CF0EEEF0CF0F6EF0CF0000E176EE3
:1019E000000E186E000E196E000E1A6E198E000E83
:1019F0001A6E03EF0DF0000E176E000E186E000E3B
:101A0000196E000E1A6E2150205CD8B00AEF0DF04E
:101A10000CEF0DF033EF0DF01FAC11EF0DF013EFE5
:101A20000DF015EF0DF0800E1F1A21C022F020C01E
:101A300021F022C020F013C022F017C013F022C002
:101A400017F014C022F018C014F022C018F015C00E
:101A500022F019C015F022C019F016C022F01AC0E9
:101A600016F022C01AF0000E226E215020C01BF08A
:101A70001C6A1B5E000E1C5A1CBE48EF0DF01C5069
:101A800009E11A0E1B5CD8A048EF0DF04AEF0DF0EB
:101A900081EF0DF01350141015101610D8A453EF49
:101AA0000DF056EF0DF0010E57EF0DF0000E226E07
:101AB000000E136E000E146E000E156E000E166EE4
:101AC00020C021F08AEF0DF022A069EF0DF06BEF3E
:101AD0000DF071EF0DF0D89022300109226E73EFF6
:101AE0000DF0D890223213A078EF0DF07AEF0DF0C0
:101AF0007BEF0DF0228E163416321532143213326B
:101B0000212A2050215CD8A088EF0DF08AEF0DF03B
:101B100064EF0DF01FBC8FEF0DF091EF0DF0D1EFE2
:101B20000DF02150D8A497EF0DF099EF0DF0A3EF31
:101B30000DF0000E136E000E146E000E156E000EEA
:101B4000166EF2EF0EF0175013261850142219508B
:101B500015221A50162216A0B0EF0DF0B2EF0DF0BC
:101B60005EEF0EF022A0B7EF0DF0B9EF0DF0BFEF72
:101B70000DF0D89022300109226EC1EF0DF0D890FF
:101B8000223213A0C6EF0DF0C8EF0DF0C9EF0DF033
:101B9000228E16341632153214321332212A5EEF99
:101BA0000EF01750135C1850145819501558165051
:101BB000800A1B6E1A50800A1B58D8B0E2EF0DF055
:101BC000E4EF0DF00FEF0EF01350175C1B6E145086
:101BD00018581C6E155019581D6E16501A581E6E46
:101BE000FF0E1B24136EFF0E1C20146EFF0E1D2013
:101BF000156EFF0E1E20166E800E1F1A226C2250CC
:101C0000D8A405EF0EF007EF0EF017EF0EF0010E5F
:101C10001326000E14221522162217EF0EF017506D
:101C2000135E1850145A1950155A1A50165A135058
:101C3000141015101610D8A420EF0EF022EF0EF09D
:101C400057EF0EF02250D8A428EF0EF02AEF0EF036
:101C500057EF0EF0000E136E000E146E000E156E90
:101C6000000E166EF2EF0EF0D890133614361536BD
:101C7000163622AE3EEF0EF040EF0EF041EF0EF0C2
:101C8000138022A046EF0EF048EF0EF04CEF0EF05E
:101C9000D88022364EEF0EF0D89022362150D8B49C
:101CA00054EF0EF056EF0EF057EF0EF0210615AE82
:101CB0005CEF0EF05EEF0EF034EF0EF0000E206ED3
:101CC00022AE65EF0EF067EF0EF07FEF0EF022C050
:101CD0001BF07F0E1B16D8B470EF0EF072EF0EF0F3
:101CE00076EF0EF0010E206E7FEF0EF013A07BEF6B
:101CF0000EF07DEF0EF07FEF0EF072EF0EF0205041
:101D0000D8B485EF0EF087EF0EF0B2EF0EF0010EB3
:101D10001326000E14221522162216A092EF0EF0A2
:101D200094EF0EF0B2EF0EF013C01BF014C01CF0D5
:101D300015C01DF016C01EF01E341E321D321C329E
:101D40001B321BC013F01CC014F01DC015F01EC0C8
:101D500016F02128D8B4AFEF0EF0B1EF0EF0B2EFCD
:101D60000EF0212A2128D8B4B8EF0EF0BAEF0EF009
:101D7000C2EF0EF02150D8A4C0EF0EF0C2EF0EF06B
:101D8000D4EF0EF0000E136E000E146E000E156EE2
:101D9000000E166E2150D8A4D0EF0EF0D2EF0EF048
:101DA000D4EF0EF0000E1F6E21A0D9EF0EF0DBEF86
:101DB0000EF0DEEF0EF0158EDFEF0EF0159ED890D0
:101DC0002130166E1FAEE7EF0EF0E9EF0EF0EAEFEE
:101DD0000EF0168E13C013F014C014F015C015F0D9
:101DE00016C016F012002E50800B376E2E502E2487
:101DF0003D6E2DAEFEEF0EF000EF0FF001EF0FF095
:101E00003D803D50D8B407EF0FF009EF0FF01CEF05
:101E10000FF03D28D8A40FEF0FF011EF0FF019EFDE
:101E20000FF0000E2B6E000E2C6E000E2D6E000EAD
:101E30002E6E2D8E24EF0FF0000E2B6E000E2C6EEA
:101E4000000E2D6E000E2E6E3250800B371A32505F
:101E500032243C6E31AE2FEF0FF031EF0FF032EF46
:101E60000FF03C803C50D8B438EF0FF03AEF0FF051
:101E70004DEF0FF03C28D8A440EF0FF042EF0FF0E9
:101E80004AEF0FF0000E2F6E000E306E000E316E16
:101E9000000E326E318E55EF0FF0000E2F6E000ED9
:101EA000306E000E316E000E326E3C50D8B45BEFD7
:101EB0000FF05DEF0FF065EF0FF03D50D8A463EF2A
:101EC0000FF065EF0FF06FEF0FF0000E2B6E000EAE
:101ED0002C6E000E2D6E000E2E6E07EF11F031509D
:101EE0002B02F3CF42F0F4CF43F04250386E396A00
:101EF0003A6A3B6A43503E6E3F6A406A416A3050DC
:101F00002C02F3CF42F0F4CF43F042503826000EBB
:101F100039223A223B2243503E26000E3F224022E5
:101F200041222F502D02F3CF42F0F4CF43F0425024
:101F30003826000E39223A223B2243503E26000E1C
:101F40003F22402241223AC03BF039C03AF038C02B
:101F500039F0386A2F502C02F3CF42F0F4CF43F01F
:101F60004250382643503922000E3A22000E3B22BE
:101F700030502B02F3CF42F0F4CF43F042503826DA
:101F800043503922000E3A22000E3B223AC03BF069
:101F900039C03AF038C039F0386A2F502B02F3CFED
:101FA00042F0F4CF43F04250382643503922000E1D
:101FB0003A22000E3B2231502C02F3CF42F0F4CFF4
:101FC00043F042503E2643503F22000E4022000E76
:101FD000412230502D02F3CF42F0F4CF43F0425073
:101FE0003E2643503F22000E4022000E4122315037
:101FF0002D02F3CF42F0F4CF43F04250336E435002
:10200000346E356A366A35C036F034C035F033C0C8
:1020100034F0336A33503E2634503F22355040224C
:102020003650412238C033F039C034F03AC035F070
:102030003BC036F0190E22EF10F0D8903632353210
:1020400034323332E82E1DEF10F033503E26345038
:102050003F2235504022365041223AC03BF039C031
:102060003AF038C039F0386A3C503DC033F0346A39
:102070003326000E3422820E3324426EFF0E3420AB
:10208000436E58EF10F0D8903E363F36403641361A
:102090003BAE4DEF10F04FEF10F050EF10F03E80E0
:1020A000D890383639363A363B364206D8A0430601
:1020B00040AE5DEF10F05FEF10F043EF10F0000E58
:1020C0003C6E3BAE66EF10F068EF10F08CEF10F056
:1020D000FF0E3814336EFF0E3914346EFF0E3A14AF
:1020E000356E7F0E3B14366E33503410351036107B
:1020F000D8B47DEF10F07FEF10F083EF10F0010EF9
:102100003C6E8CEF10F03EA088EF10F08AEF10F0DC
:102110008CEF10F07FEF10F03C50D8B492EF10F03D
:1021200094EF10F0B8EF10F0010E3E26000E3F22A3
:102130004022412241A09FEF10F0A1EF10F0B8EF34
:1021400010F03EC033F03FC034F040C035F041C025
:1021500036F03634363235323432333233C03EF034
:1021600034C03FF035C040F036C041F0424A432A07
:1021700043BEC3EF10F0435008E14228D8A0C3EF9C
:1021800010F0C5EF10F0CFEF10F0000E3E6E000E15
:102190003F6E800E406E7F0E416EFDEF10F043BE2D
:1021A000DCEF10F0435006E14204D8B0DAEF10F053
:1021B000DCEF10F0E8EF10F0000E3E6E000E3F6E08
:1021C000000E406E000E416E000E376EFDEF10F0F7
:1021D00042C03DF0FF0E3E16FF0E3F167F0E40162A
:1021E000000E41163DA0F7EF10F0F9EF10F0FAEFF6
:1021F00010F0408ED8903D30416E375041123EC0B5
:102200002BF03FC02CF040C02DF041C02EF012004A
:102210004750800B546E475047245B6E46AE13EF19
:1022200011F015EF11F016EF11F05B805B50D8B490
:102230001CEF11F01EEF11F033EF11F05B28D8A462
:1022400024EF11F026EF11F02EEF11F0000E446E86
:10225000000E456E000E466E000E476E468E000E56
:10226000476E3BEF11F0000E446E000E456E000EFF
:10227000466E000E476E4B50800B541A4B504B2449
:102280005C6E4AAE46EF11F048EF11F049EF11F0E5
:102290005C805C50D8B44FEF11F051EF11F066EF55
:1022A00011F05C28D8A457EF11F059EF11F061EF4D
:1022B00011F0000E486E000E496E000E4A6E000EC0
:1022C0004B6E4A8E000E4B6E6EEF11F0000E486E94
:1022D000000E496E000E4A6E000E4B6E48504910BB
:1022E0004A104B10D8A477EF11F079EF11F091EF6D
:1022F00011F0000E446E000E456E000E466E000E8C
:10230000476E800E46127F0E47125450471244C04B
:1023100044F045C045F046C046F047C047F0D4EF12
:1023200012F05B50D8A497EF11F099EF11F0A3EFE2
:1023300011F0000E446E000E456E000E466E000E4B
:10234000476ED4EF12F05C505BC04CF04D6A4C5EAF
:10235000000E4D5A7F0E4C24556E000E4D20566EC9
:1023600044C050F045C051F046C052F047C053F051
:10237000000E446E000E456E000E466E000E476E57
:10238000000E576E000E586E000E596E000E5A6EFB
:10239000000E5C6E04EF12F05C50D8B4D2EF11F076
:1023A000D4EF11F0EBEF11F0D89050365136523691
:1023B0005336D89044364536463647365AAEE3EF64
:1023C00011F0E5EF11F0E6EF11F04480D8905736A8
:1023D000583659365A364850505C495051584A5030
:1023E00052584B505358D8A0F8EF11F0FAEF11F0B3
:1023F00003EF12F05A8C4850505E4950515A4A50DF
:10240000525A4B50535A5C2A190E5C640AEF12F070
:102410000CEF12F0CCEF11F050505110521053103D
:10242000D8B415EF12F017EF12F02FEF12F057801B
:102430002FEF12F0D89044364536463647365AAE1E
:1024400024EF12F026EF12F027EF12F04480D8901C
:102450005736583659365A365506D8A0560646AE1F
:1024600034EF12F036EF12F01AEF12F0000E5C6E3D
:102470005AAE3DEF12F03FEF12F063EF12F0FF0E95
:1024800057144C6EFF0E58144D6EFF0E59144E6EBD
:102490007F0E5A144F6E4C504D104E104F10D8B442
:1024A00054EF12F056EF12F05AEF12F0010E5C6E7C
:1024B00063EF12F044A05FEF12F061EF12F063EFF0
:1024C00012F056EF12F05C50D8B469EF12F06BEFD7
:1024D00012F08FEF12F0010E4426000E4522462224
:1024E000472247A076EF12F078EF12F08FEF12F04C
:1024F00044C04CF045C04DF046C04EF047C04FF0D0
:102500004F344F324E324D324C324CC044F04DC0FD
:1025100045F04EC046F04FC047F0554A562A56BEC9
:102520009AEF12F0565008E15528D8A09AEF12F011
:102530009CEF12F0A7EF12F0000E566E5568000ED9
:10254000446E000E456E000E466E000E476E56BE7F
:10255000B4EF12F0565006E15504D8B0B2EF12F0C5
:10256000B4EF12F0C2EF12F0000E566E000E556E70
:10257000000E446E000E456E000E466E000E476E55
:10258000000E546E55C05BF05BA0C9EF12F0CBEFAC
:1025900012F0CEEF12F0468ECFEF12F0469ED8909A
:1025A0005B30476E85EF11F012000F0EC16E9390F5
:1025B000938295909592070E0001696FD00E686F17
:1025C00046EC14F0460E84EC1BF017EC1FF0800E66
:1025D0000001F16F250EF26F000EF36F000EF46F25
:1025E000080EF56F000EF66F010EF76F20EEF1F09A
:1025F00000EE0EF0070EDBCFEBFFE806FCE27BEC13
:1026000019F014EC1FF0C1EC1DF0320E0001E36F65
:10261000000EE46F0150E35F0250E45BE3C005F09D
:10262000E4C006F0076A086A000E71EC16F005C0F7
:1026300010F106C011F107C012F108C013F1000E2D
:10264000236E000E246EA00E256E420E266E10C163
:1026500027F011C128F012C129F013C12AF009ECAA
:102660001EF023C018F124C019F125C01AF126C0AC
:102670001BF1CD0E2F6ECC0E306ECC0E316E3E0E99
:10268000326E0CC127F00DC128F00EC129F00FC128
:102690002AF018C123F019C124F01AC125F01BC17A
:1026A00026F009EC1EF023C02BF024C02CF025C02E
:1026B0002DF026C02EF0F3EC0EF02BC0E5F02CC070
:1026C000E6F02DC0E7F02EC0E8F0E5C017F0E6C058
:1026D00018F0E7C019F0E8C01AF0000E2F6E000ED7
:1026E000306E000E316E3F0E326E18C12BF019C1E4
:1026F0002CF01AC12DF01BC12EF0F3EC0EF02BC004
:1027000013F02CC014F02DC015F02EC016F093EC71
:102710000CF013C0E9F014C0EAF015C0EBF016C0DD
:10272000ECF0CD0E2F6ECC0E306ECC0E316E3D0E19
:10273000326E18C12BF019C12CF01AC12DF01BC13B
:102740002EF0F3EC0EF02BC017F02CC018F02DC0BB
:1027500019F02EC01AF0E9C013F0EAC014F0EBC073
:1027600015F0ECC016F093EC0CF013C0EDF014C0B3
:10277000EEF015C0EFF016C0F0F014C113F015C163
:1027800014F016C115F017C116F0EDC017F0EEC029
:1027900018F0EFC019F0F0C01AF093EC0CF013C071
:1027A00014F114C015F115C016F116C017F1000E82
:1027B000446E000E456EC80E466E420E476E14C142
:1027C00048F015C149F016C14AF017C14BF07AEC38
:1027D00018F0D8B0EEEF13F0F0EF13F0FBEF13F0BA
:1027E000000E0101146F000E156FC80E166F420E19
:1027F000176F0BEF14F0010117BF03EF14F001EF97
:1028000014F00BEF14F0000E146F000E156F000E95
:10281000166F000E176F14C160F015C161F016C17C
:1028200062F017C163F0F6EC17F00001605184EC20
:102830001BF0820E0001CE6F010ECF6F010ED06F24
:10284000080ED16F10C1D2F011C1D3F012C1D4F073
:1028500013C1D5F06FEC1DF0820E026E010E036EF7
:10286000DEEC1EF0070E0001E36F7D0EE82EFED7B2
:10287000E32FFCD718C10CF119C10DF11AC10EF1EB
:102880001BC10FF103EF13F000EF00F054EF14F051
:10289000010E706F6FEF14F0040E706F6FEF14F095
:1028A000100E706F6FEF14F0020E00016A6F000ED1
:1028B0006B6F6B51000AD8B460EF14F06FEF14F037
:1028C0006A51000AD8B448EF14F0010AD8B44CEFAA
:1028D00014F0030AD8B450EF14F06FEF14F094948E
:1028E000BD50F00B0C09BD6ECA50FC0B0209CA6E3C
:1028F000000E2F6E000E306E800E316E400E326E66
:1029000068C005F069C006F0076A086A000E71EC3D
:1029100016F005C02BF006C02CF007C02DF008C043
:102920002EF0F3EC0EF02BC06CF02CC06DF02DC02F
:102930006EF02EC06FF0000E176E000E186E800E37
:10294000196EBF0E1A6E00017051056E066A076A95
:10295000086A010E71EC16F005C02FF006C030F0C9
:1029600007C031F008C032F06CC02BF06DC02CF005
:102970006EC02DF06FC02EF0F3EC0EF02BC048F0BF
:102980002CC049F02DC04AF02EC04BF0800E446E92
:10299000960E456E980E466E4B0E476E08EC11F083
:1029A00044C013F045C014F046C015F047C016F0FF
:1029B00093EC0CF013C060F014C061F015C062F02D
:1029C00016C063F0F6EC17F000016051CB6E000EFC
:1029D0002F6E000E306E800E316E3F0E326E68C06C
:1029E00005F069C006F0076A086A000E71EC16F07F
:1029F00005C02BF006C02CF007C02DF008C02EF04B
:102A0000F3EC0EF02BC06CF02CC06DF02DC06EF00E
:102A10002EC06FF0800E446E960E456E980E466E78
:102A20004B0E476E00017051056E066A076A086A10
:102A3000010E71EC16F005C02FF006C030F007C093
:102A400031F008C032F06CC02BF06DC02CF06EC0BD
:102A50002DF06FC02EF0F3EC0EF02BC048F02CC020
:102A600049F02DC04AF02EC04BF008EC11F044C0E4
:102A700008F145C009F146C00AF147C00BF108C191
:102A800060F009C161F00AC162F00BC163F0F6ECBD
:102A900017F00001613561336033613561336033B4
:102AA0006051BE6E08C160F009C161F00AC162F0F8
:102AB0000BC163F0F6EC17F0030E00016017603BEA
:102AC000BD506019CF0B6019BD6E120000C170F0CF
:102AD00001C171F002C172F003C173F060C070F007
:102AE00061C071F062C072F063C073F0810E0001CA
:102AF000646FFF0E656F70C066F071C067F072C0E2
:102B000068F073C069F0180E8BEF15F0D890693338
:102B1000683367336633E82E86EF15F06651642517
:102B20006E6F000E65216F6F6FBFA0EF15F06F51D4
:102B300009E1170E6E5DD8A0A0EF15F0A2EF15F019
:102B4000ACEF15F060C060F061C061F062C062F08F
:102B500063C063F070EF16F06FBFB1EF15F0B3EF25
:102B600015F024EF16F06EC064F0FF0E656FFF0ED7
:102B7000666F7F0E676F000E686F6467C2EF15F0B7
:102B8000CAEF15F068356833673366336533642FF1
:102B9000BDEF15F065C06AF066C06BF067C06CF001
:102BA00068C06DF000016A517015646F6B5171154A
:102BB000656F6C517215666F6D517315676F645157
:102BC000651166116711D8A4E8EF15F0EAEF15F06A
:102BD000ECEF15F0A2EF15F070C064F071C065F075
:102BE00072C066F073C067F0200EFCEF15F0D8904D
:102BF0006733663365336433E82EF7EF15F06451BD
:102C0000651166116711D8B408EF16F00AEF16F0D7
:102C100012EF16F06A5170276B5171236C517223B9
:102C20006D5173236A1D646F6B1D656F6C1D666F3C
:102C30006D1D676F6451701765517117665172177A
:102C40006751731768EF16F070C064F071C065F0DB
:102C500072C066F073C067F0200E34EF16F0D890A3
:102C60006733663365336433E82E2FEF16F0645113
:102C7000651166116711D8A440EF16F042EF16F007
:102C80004CEF16F0000E706F000E716F000E726F39
:102C9000000E736F68EF16F0D8907035646F713561
:102CA000656F7235666F7335676F645165116611B4
:102CB0006711D8B45EEF16F060EF16F068EF16F00B
:102CC000000E706F000E716F800E726FBF0E736F0B
:102CD00070C060F071C061F072C062F073C063F0E8
:102CE00012000D6E0D50D8B478EF16F07AEF16F092
:102CF0009CEF16F008BE81EF16F07FEF16F09CEF08
:102D000016F005C009F006C00AF007C00BF008C0B5
:102D10000CF0091E0A1E0B1E0C1E092A000E0A22A8
:102D20000B220C2209C00FF00AC010F00BC011F0EA
:102D30000CC012F0A4EF16F005C00FF006C010F0A2
:102D400007C011F008C012F0055006100710081057
:102D5000D8A4ADEF16F0AFEF16F0B9EF16F0000EF5
:102D6000056E000E066E000E076E000E086E4AEF2E
:102D700017F0960E0E6EC3EF16F00E2AD890123290
:102D8000113210320F32000E0F14096E000E1014A3
:102D90000A6E000E11140B6EFE0E12140C6E09500A
:102DA0000A100B100C10D8A4D8EF16F0DAEF16F0BA
:102DB000BDEF16F0E8EF16F00E2A010E0F26000EFA
:102DC000102211221222D8901232113210320F32F8
:102DD000000E0F14096E000E10140A6E000E11146E
:102DE0000B6EFF0E12140C6E09500A100B100C1013
:102DF000D8A4FDEF16F0FFEF16F0DCEF16F007EFAA
:102E000017F00E06D8900F3610361136123611BE56
:102E10000CEF17F00EEF17F016EF17F0020E0E6022
:102E200014EF17F016EF17F001EF17F00EB01BEFCD
:102E300017F01DEF17F01EEF17F0119ED8900E320D
:102E40000EC009F00A6A0B6A0C6A09C00CF00B6A22
:102E50000A6A096A09500F120A5010120B50111217
:102E60000C5012120D50D8B438EF17F03AEF17F09B
:102E700042EF17F008BE41EF17F03FEF17F042EFB7
:102E800017F0128E0FC005F010C006F011C007F049
:102E900012C008F01200000E116E000E106E000E2F
:102EA0000F6E000E0E6E57EF17F0084A092A08C081
:102EB000F6FF09C0F7FF0800F550200AD8B463EF09
:102EC00017F065EF17F055EF17F0F70E0A6EFF0ECB
:102ED0000B6E08C0F6FF09C0F7FF0800F5500C6E36
:102EE0000D6A0A500C260B500D220D5009E1050EFB
:102EF0000C5CD8A07EEF17F080EF17F055EF17F0BD
:102F00008AEF17F0000E0F6E010E0E6E084A092AA6
:102F1000BFEF17F008C0F6FF09C0F7FF0800F55033
:102F20000A6E0B6A0B50000AD8B499EF17F0BFEF86
:102F300017F00A502B0AD8B486EF17F0060AD8B457
:102F400082EF17F0BFEF17F010C001F011C002F0D0
:102F5000000E046E0A0E036EF6EC1EF008C0F6FFBB
:102F600009C0F7FF0800F550015E000E025A300E4E
:102F70000124106E000E0220116E86EF17F0D00EA5
:102F80000A6EFF0E0B6E08C0F6FF09C0F7FF0800BF
:102F9000F5500C6E0D6A0A500C260B500D220D5088
:102FA00009E10A0E0C5CD8A0D8EF17F0DAEF17F0A1
:102FB000A4EF17F00E500F10D8A4E1EF17F0E3EFD5
:102FC00017F0F1EF17F010C00AF011C00BF00A1E55
:102FD0000B1E0A4A0B2A0AC008F00BC009F0F5EFD5
:102FE00017F010C008F011C009F01200000162359E
:102FF00063355E6E5E50D8A400EF18F002EF18F053
:103000000CEF18F0000E606F000E616F000E626F23
:10301000000E636F79EF18F060C064F061C065F076
:1030200062C066F063C067F0200E1CEF18F0D89005
:103030006733663365336433E82E17EF18F0645155
:103040005D6E628FFF0E6017FF0E6117FF0E621735
:10305000000E6317960E5E5E5EBE33EF18F031EF22
:1030600018F049EF18F05E50800A970FD8B03BEF88
:1030700018F03DEF18F03FEF18F002EF18F0D8907D
:1030800063336233613360335E3E3FEF18F061EFCC
:1030900018F01F0E5E644FEF18F051EF18F059EF63
:1030A00018F002EF18F0D890603761376237633755
:1030B0005E065E50D8A45FEF18F061EF18F053EF92
:1030C00018F05D50D8B467EF18F069EF18F071EFA1
:1030D00018F0631F621F611F606D000E6123622381
:1030E000632360C060F061C061F062C062F063C0E1
:1030F00063F01200000E44144C6E000E45144D6E29
:10310000800E46144E6E7F0E47144F6E4C504D107D
:103110004E104F10D8A48FEF18F091EF18F099EFE0
:1031200018F0000E446E000E456E000E466E000E46
:10313000476E000E48144C6E000E49144D6E800E02
:103140004A144E6E7F0E4B144F6E4C504D104E1065
:103150004F10D8A4AEEF18F0B0EF18F0B8EF18F099
:10316000000E486E000E496E000E4A6E000E4B6E49
:1031700047AEBDEF18F0BFEF18F0C8EF18F0446C81
:10318000451ED8B0452A461ED8B0462A800E47565E
:103190004BAECDEF18F0CFEF18F0D8EF18F0486C29
:1031A000491ED8B0492A4A1ED8B04A2A800E4B562A
:1031B000000E441A000E451A000E461A800E471AD9
:1031C000000E481A000E491A000E4A1A800E4B1AB9
:1031D0004850445C495045584A5046584B5047580F
:1031E000D8B0F5EF18F0F7EF18F0FAEF18F0D89024
:1031F000FBEF18F0D880120004C10BF005C10CF0F1
:1032000006C10DF007C10EF001C00BF002C00CF0BA
:1032100003C00DF004C00EF00BC005F00CC006F0AA
:103220000DC007F00EC008F0180E1CEF19F0D89072
:103230000832073206320532E82E17EF19F0055032
:10324000096E0A6A09500A10D8A429EF19F02BEF69
:1032500019F04BEF19F0D8900B34056E0C34066E54
:103260000D34076E0E34086E055006100710081056
:10327000D8A43DEF19F03FEF19F045EF19F0000E1B
:10328000026E020E016E7AEF19F0000E026E030E4E
:10329000016E7AEF19F009280A10D8A452EF19F03C
:1032A00054EF19F076EF19F00BC005F00CC006F0E2
:1032B0000DC007F00EC008F0090ED890053606368E
:1032C00007360836E82E5DEF19F005500610071096
:1032D0000810D8B46EEF19F071EF19F0010E72EF0B
:1032E00019F0000E016E026A7AEF19F0000E026EFC
:1032F000040E016E1200000E016E2D0E026E310ED4
:10330000036E010E046E0EC016F00FC017F010C051
:1033100018F011C019F0040ED8901636173618366A
:103320001936E82E8CEF19F016C005F017C006F01C
:1033300018C007F019C008F08FEC1CF0FF0E012434
:103340001A6EFF0E02201B6EFF0E03201C6EFF0E76
:1033500004201D6E1AC0AFFF240EAC6E900EAB6E33
:10336000090E1218D8B4B7EF19F0BAEF19F0AC8CF7
:10337000BBEF19F0AC9C090E1218D8B4C2EF19F0CB
:10338000C5EF19F0AB8CC6EF19F0AB9CAC8AAC98CA
:10339000AB8ED9EF19F0AC84AC90AB82EEEF19F0A4
:1033A000AC84AC80CDEF19F0AC84AC90AB92EEEF76
:1033B00019F01350166E176A1750000AD8B4E3EFCD
:1033C00019F0D4EF19F01650010AD8B4CBEF19F068
:1033D000030AD8B4D0EF19F0D4EF19F0120001C0ED
:1033E00008F002C009F003C00AF004C00BF00506A3
:1033F000D8A00606052806E10628D8A402EF1AF090
:1034000004EF1AF011EF1AF0000E026E000E016EBA
:1034100059EF1AF0084A092A0A4A0B2A0506D8A0C9
:10342000060608C0D9FF09C0DAFFDF50D8B41BEF89
:103430001AF01DEF1AF048EF1AF00AC0F6FF0BC0A1
:10344000F7FF0800F5500009D8B429EF1AF02BEF68
:103450001AF048EF1AF005500610D8B432EF1AF0FF
:1034600034EF1AF048EF1AF008C0D9FF09C0DAFFAC
:10347000DF50076E0AC0F6FF0BC0F7FF0800F550DB
:103480000718D8B446EF1AF048EF1AF00AEF1AF00E
:1034900008C0D9FF09C0DAFFDF50076E0AC0F6FF87
:1034A0000BC0F7FF0800F550075C016E026AD8A058
:1034B0000206120003500410D8B461EF1AF063EF53
:1034C0001AF06CEF1AF003500410D8A46AEF1AF047
:1034D0006CEF1AF071EF1AF0015019EC1FF0BEEF0B
:1034E0001AF020EE09F00350D9260450DA22DE50FB
:1034F000DE10D8B47EEF1AF080EF1AF09BEF1AF0CE
:1035000020EE09F00350D9260450DA2210EE03F021
:103510000350E1260450E222DE50E65CE650800AC9
:10352000096EDE50800A0958D8B099EF1AF09BEF67
:103530001AF0BEEF1AF020EE03F00350D926045023
:10354000DA22DECF05F0DDCF06F003C0D9FF04C0DC
:10355000DAFFDECF07F0DDCF08F005500724D96E83
:1035600006500820DA6E01C0DFFF20EE03F00350A2
:10357000D9260450DA22DE2A000EDD2212000001D4
:10358000FDA1C5EF1AF0C7EF1AF0D1EF1AF013C082
:103590000AF014C00BF011C00CF012C00DF02CECAE
:1035A0001EF016BED6EF1AF0D8EF1AF0DEEF1AF0C2
:1035B00015C01AF016C01BF0E2EF1AF0000E1B6ED9
:1035C000000E1A6E000E196E000E186EF4EF1AF04F
:1035D000000E026E200E016E11C003F012C004F046
:1035E0005AEC1AF0184A192A1A50185C1950800A15
:1035F000176E1B50800A1758D8A001EF1BF003EF7D
:103600001BF0E8EF1AF00001FDB109EF1BF00BEF22
:103610001BF015EF1BF013C00AF014C00BF011C023
:103620000CF012C00DF02CEC1EF013C001F014C011
:1036300002F0C3EC1EF01A500124116E1B50022040
:10364000126E1200000E066E04BE2BEF1BF029EF67
:103650001BF031EF1BF0036C041ED8B0042A010EDE
:10366000066E02BE38EF1BF036EF1BF03EEF1BF08C
:10367000016C021ED8B0022A010E061A000E086E56
:10368000000E076E03500410D8B449EF1BF04BEF47
:103690001BF073EF1BF0010E056E53EF1BF0D8907B
:1036A00003360436052A04AE58EF1BF05AEF1BF020
:1036B0004FEF1BF0D890073608360350015C0450DA
:1036C0000258D8A066EF1BF068EF1BF06DEF1BF0FF
:1036D0000350015E0450025A0780D890043203322E
:1036E000052E5AEF1BF00650D8B479EF1BF07BEF94
:1036F0001BF07FEF1BF0076C081ED8B0082A07C02C
:1037000001F008C002F012000001686F08C12FF03C
:1037100009C130F00AC131F00BC132F0000168512B
:10372000056E066A076A086A010E71EC16F005C09C
:103730002BF006C02CF007C02DF008C02EF0F3ECE3
:103740000EF02BC044F02CC045F02DC046F02EC02A
:1037500047F0000E486E000E496EC80E4A6E420ECB
:103760004B6E08EC11F044C069F045C06AF046C0E9
:103770006BF047C06CF069C060F06AC061F06BC06C
:1037800062F06CC063F0F6EC17F000016135613354
:1037900060336135613360336051BE6E69C060F083
:1037A0006AC061F06BC062F06CC063F0F6EC17F0B9
:1037B000030E00016017603BBD506019CF0B60190C
:1037C000BD6E1200000E066E02BEEBEF1BF0E9EFBD
:1037D0001BF0F1EF1BF0016C021ED8B0022A010EA3
:1037E000066E04BEF8EF1BF0F6EF1BF0FCEF1BF0CB
:1037F000036C041ED8B0042A03500410D8B403EF9D
:103800001CF005EF1CF029EF1CF0010E056E0DEF0A
:103810001CF0D89003360436052A04AE12EF1CF0D3
:1038200014EF1CF009EF1CF00350015C0450025827
:10383000D8A01DEF1CF01FEF1CF023EF1CF003506D
:10384000015E0450025AD89004320332052E14EF60
:103850001CF00650D8B42FEF1CF031EF1CF035EF00
:103860001CF0016C021ED8B0022A01C001F002C097
:1038700002F01200000E0114096E000E02140A6E0E
:10388000800E03140B6E7F0E04140C6E09500A1088
:103890000B100C10D8A44FEF1CF051EF1CF059EF97
:1038A0001CF0000E016E000E026E000E036E000E84
:1038B000046E000E0514096E000E06140A6E800ECA
:1038C00007140B6E7F0E08140C6E09500A100B10B3
:1038D0000C10D8A46EEF1CF070EF1CF078EF1CF009
:1038E000000E056E000E066E000E076E000E086ECE
:1038F000055001180FE1065002180CE1075003189B
:1039000009E108500418D8B488EF1CF08AEF1CF0C5
:103910008DEF1CF0D8908EEF1CF0D8801200000EB6
:10392000096E000E0A6E000E0B6E000E0C6E055036
:10393000061007100810D8B4A0EF1CF0A2EF1CF07E
:10394000D8EF1CF0010E0D6EACEF1CF0D8900536D0
:103950000636073608360D2A08AEB1EF1CF0B3EF75
:103960001CF0A6EF1CF0D89009360A360B360C3640
:103970000550015C0650025807500358085004587F
:10398000D8A0C5EF1CF0C7EF1CF0D0EF1CF005501D
:10399000015E0650025A0750035A0850045A098023
:1039A000D89008320732063205320D2EB3EF1CF0E4
:1039B00009C001F00AC002F00BC003F00CC004F013
:1039C0001200C8C0CCF0C9C0CDF0000E0101216FBB
:1039D000000E206F03EF1DF0C6C0B2F0C7C0B3F0F9
:1039E000CC0E0001B46F000EB56FCAC0B6F0CBC0EC
:1039F000B7F019EC0AF00001B251010120270001D3
:103A0000B35101012123CCC0F6FFCDC0F7FF080060
:103A1000F5500009D8A40FEF1DF011EF1DF0ECEFE9
:103A20001CF020C1C6F021C1C7F0120003C007F08E
:103A300004C008F001C009F002C00AF00750056E8A
:103A40000850066E074A082A05C0F6FF06C0F7FFB1
:103A5000F86A09C0D9FF0AC0DAFF094A0A2A070E24
:103A6000F76403D00800F55005D0F6CFE9FFF7CF93
:103A7000EAFFEF50DF6EDF50D8A441EF1DF043EFB7
:103A80001DF01EEF1DF012009C0EF66E3C0EF76E40
:103A9000000EF86E01EE72F010EE42F00900F5CF64
:103AA000EEFFE550E150FAE1340EF66E3E0EF76E91
:103AB000000EF86E0900F5CFFFF001EE00F0720E77
:103AC000EE6AE806FDE10001FE6BFD6BFC6BFB6B33
:103AD000FA6BF96B000EF86E0001D5EF12F0D20E02
:103AE0000001D66F000ED76FCEC0D8F0CFC0D9F08E
:103AF000000EDC6F000EDB6F000EE26F000EE16F58
:103B0000D80EC66F000EC76FD0C0C8F0D1C0C9F0C4
:103B1000D60ECA6F000ECB6FE1EC1CF00001DB513A
:103B2000CE25D96EDC51CF21DA6E000EDF6E120089
:103B3000010E076E200E01180210D8B4A2EF1DF07E
:103B4000A4EF1DF0BDEF1DF0F70E036EFF0E046E27
:103B500001C005F002C006F00350052604500622FD
:103B6000065009E1050E055CD8A0B9EF1DF0BBEFCA
:103B70001DF0BDEF1DF0000E076E07C001F0026AD8
:103B80001200000E046E000E036E8180100EE82EEF
:103B9000FED700D0819081A2D0EF1DF0D2EF1DF0B2
:103BA000CBEF1DF0DAEF1DF0034A042A600EE82E79
:103BB000FED700D081B2DFEF1DF0E1EF1DF0D4EFB2
:103BC0001DF003C001F004C002F01200BF0E096E28
:103BD000FF0E0A6E07C00BF008C00CF009500B2650
:103BE0000A500C220C5007E11A0E0B5CD8B0FBEF08
:103BF0001DF0FDEF1DF004EF1EF0200E0710076E04
:103C00000850086E08EF1EF007C007F008C008F063
:103C10001200000E271A000E281A000E291A800E14
:103C20002A1A23C013F024C014F025C015F026C0B2
:103C300016F027C017F028C018F029C019F02AC0C4
:103C40001AF093EC0CF013C023F014C024F015C04C
:103C500025F016C026F01200000E106E000E0F6E3A
:103C60003DEF1EF00EC001F0026A0CC003F00DC063
:103C700004F05AEC1AF00F4A102A0F500A24D96E99
:103C800010500B20DA6EDF500E6E0E50D8A44BEFA2
:103C90001EF04DEF1EF032EF1EF012000000A042A9
:103CA000CDCCCC3DCDCCCC3E0000003F2000000070
:103CB0000000000000000000000000000000000004
:103CC00000000000000000000000000000000000F4
:103CD0000000000000000000000000000000BF0E17
:103CE000036EFF0E046E01C005F002C006F0035023
:103CF00005260450062206500AE11A0E055CD8A0DB
:103D000084EF1EF087EF1EF0010E88EF1EF0000E0C
:103D1000016E026A12000150021003100410D8B4A0
:103D200094EF1EF096EF1EF09EEF1EF0000E011AAB
:103D3000000E021A000E031A800E041A01C001F0D0
:103D400002C002F003C003F004C004F01200D00E61
:103D5000036EFF0E046E01C005F002C006F00350B2
:103D600005260450062206500AE10A0E055CD8A07A
:103D7000BCEF1EF0BFEF1EF0010EC0EF1EF0000EF4
:103D8000016E026A120001C003F002C004F0CBEF22
:103D90001EF0014A022A01C0D9FF02C0DAFFDF503B
:103DA000D8A4D5EF1EF0D7EF1EF0C9EF1EF00350D8
:103DB000015C016E04500258026E1200E9EF1EF021
:103DC00002C0D9FF03C0DAFFDF5009EC1FF0024A3E
:103DD000032A02C0D9FF03C0DAFFDF50D8A4F3EFF3
:103DE0001EF0F5EF1EF0E0EF1EF01200015003028E
:103DF000F3CF05F0F4CF06F001500402F35006268D
:103E000002500302F350062605C001F006C002F07E
:103E10001200016EACA20FEF1FF011EF1FF00AEFBE
:103E20001FF001C0ADFF1200838083921200CA848C
:053E3000120012004623
:020000040020DA
:08000000FFFFFFFFFFFFFFFF00
:020000040030CA
:0E000000000C1F1EFF8181FF0FC00FE00F409C
:00000001FF
