:08000000803102288731ED2F49
:10000A001630210097000800220027082000A500CA
:10001A00220026082000A400220025082000A300B0
:10002A00220024082000A2007308A5007208A40078
:10003A007108A3007008A2002208F4002308F50042
:10004A002408F6002508F7001730F736F60CF50CE9
:10005A00F40C890B2A28FF307405A00000307505BE
:10006A00A10020082104031D3B283C285D28220802
:10007A00F4002308F5002408F6002508F7000130EB
:10008A00F435F50DF60DF70D890B4528770876043A
:10009A0075047404031D5228532858280230F000AE
:1000AA000030F10087280330F0000030F100872883
:1000BA00200A2104031D6228632883282208F400E9
:1000CA002308F5002408F6002508F7000930F4355E
:1000DA00F50DF60DF70D890B6C2877087604750473
:1000EA007404031979287B2801307C280030F80031
:1000FA00F9017808F0007908F10087280430F00047
:10010A000030F10008002100B800B401B501200058
:10011A006B082100CA0020006A082100C9002000DB
:10012A0069082100C800200068082100C7004A08A1
:10013A002000BD00210049082000BC002100480819
:10014A002000BB00210047082000BA000030C1008F
:10015A000030C0000030BF000030BE009E31E126F2
:10016A0080310318B928BA28D32801302100B400F5
:10017A000030B5004A08F3004908F2004808F100C7
:10018A004708F0009A31E322803173082100CA003F
:10019A007208C9007108C8007008C7002100CD01A3
:1001AA00CE01220033082100BA00220032082100C1
:1001BA00B90034083504031DE328E428E92822009D
:1001CA00361DE828E9280829210034083504031DCA
:1001DA00EF28F028F5282B30A0000030A100F928DC
:1001EA002D30A0000030A10020082000ED006D088D
:1001FA002300A00001302100CD070030CE3DFF30A2
:10020A00B907FF30BA3D21004A08F3004908F20055
:10021A004808F1004708F000803109208031700356
:10022A007104031D19291A295D2920006C08BF3E93
:10023A00ED00FF3003180030EE0000306E021A3075
:10024A0003196D0203182A292B2936292230F000B6
:10025A00A030F10021004D08A03E9C3117248031C6
:10026A0040292A30F000A030F10021004D08A03EBC
:10027A009C3117248031FD302100B907FF30BA3D87
:10028A00A0302000ED006D08A40021003A082000EB
:10029A00A600210039082000A500210038089D3158
:1002AA00B525803120002508E9002408E800EC2F54
:1002BA0021004A08F3004908F2004808F1004708FB
:1002CA00F00080310920803170087104031D6E2905
:1002DA006F29B22920006C08BF3EED00FF300318D9
:1002EA000030EE0000306E021A3003196D02031856
:1002FA007F2980298B292630F000A030F1002100C7
:10030A004D08A03E9C311724803195292E30F000EB
:10031A00A030F10021004D08A03E9C311724803105
:10032A00FD302100B907FF30BA3DA0302000ED00B2
:10033A006D08A40021003A082000A600210039080F
:10034A002000A500210038089D31B5258031200004
:10035A002508E9002408E800EC2F3F302100D200EC
:10036A008030D1000030D0000030CF00CB01CC016A
:10037A004A08F3004908F2004808F1004708F0006B
:10038A000030F7000030F6000030F5000030F400CD
:10039A009031012080310318D329D429982A052ABB
:1003AA0041302000A3002030A2000030A10000301C
:1003BA00A000210052082000A700210051082000B7
:1003CA00A600210050082000A50021004F082000A7
:1003DA00A4008A3177228031200023082100D2002C
:1003EA00200022082100D100200021082100D0008D
:1003FA00200020082100CF000130CB070030CC3D7F
:10040A0021004A082000BD00210049082000BC0044
:10041A00210048082000BB00210047082000BA003C
:10042A004130A3002030A2000030A1000030A0001B
:10043A00210052082000A700210051082000A60030
:10044A00210050082000A50021004F082000A40028
:10045A008A317722803120002308C1002208C00097
:10046A002108BF002008BE009E31E1268031031812
:10047A003F2A402AD529712A41302000BD00203068
:10048A00BC000030BB000030BA0021005208200036
:10049A00C100210051082000C0002100500820009E
:1004AA00BF0021004F082000BE0096314C26803143
:1004BA0020003D082100D20020003C082100D10084
:1004CA0020003B082100D00020003A082100CF007C
:1004DA00FF30CB07FF30CC3D21004A082000BD0089
:1004EA00210049082000BC00210048082000BB0068
:1004FA00210047082000BA00210052082000C1004C
:10050A00210051082000C000210050082000BF002F
:10051A0021004F082000BE009E31E1268031031CD5
:10052A00972A982A412A20006C08ED00EE016D08EE
:10053A00F6006E08F7009B310A2380317608200006
:10054A00EF006F082100BC003C082000ED006D0898
:10055A002100BB0067303C06031DB42AB52ADE2AF7
:10056A00220034083504031DBB2ABC2AC02A0130E4
:10057A00B4000030B5003508803A2000ED00803024
:10058A006D02031DCB2A0130220034020318CE2A41
:10059A00CF2AD52A06302100B6000030B700E42A57
:1005AA00220035082100B700220034082100B600D5
:1005BA00E42A2200B51BE22AE32ACF2AD52A673089
:1005CA003C06031DE92AEA2A222B4C08803A20001D
:1005DA00ED007F306D02031DF52AFC3021004B022D
:1005EA00031CF82AF92A1C2B21003608FF3E20009A
:1005FA00ED00FF302100373D2000EE006E08803A02
:10060A00EF0021004C08803A20006F02031D112BD5
:10061A0021004B0820006D02031C142B152B1C2BE8
:10062A0066302000ED006D082100BB00222B6530EA
:10063A002000ED006D082100BB003708AD00360828
:10064A00AC0067303C06031D2B2B2C2B362B663057
:10065A003B06031D312B322B3A2BCC1F352B362B65
:10066A003A2B0130AC070030AD3D66303B06031D26
:10067A003F2B402B582BCC1F432B442B4E2B3F3068
:10068A00D2008030D1000030D0000030CF00CB0142
:10069A00CC0167303C060319532B542B582B4B08BB
:1006AA00AC074C08AD3DC501C6014A08C00049085F
:1006BA00BF004808BE004708BD005208B1005108F3
:1006CA00B0005008AF004F08AE00382C2100520885
:1006DA002000BD00210051082000BC002100500864
:1006EA002000BB0021004F082000BA00210040086A
:1006FA002000C10021003F082000C00021003E0860
:10070A002000BF0021003D082000BE0096314C2683
:10071A00803120003D08D7003C08D6003B08D500B0
:10072A003A08D4009131E521803120005708210090
:10073A00C400200056082100C300200055082100EB
:10074A00C200200054082100C1004408F3004308F5
:10075A00F2004208F1004108F0009E316D26803116
:10076A0071082100B3007008B20044082000A700F5
:10077A00210043082000A600210042082000A5000D
:10078A00210041082000A400210052082000A300F3
:10079A00210051082000A200210050082000A100D9
:1007AA0021004F082000A0008A31772280312000E2
:1007BA002308BD002208BC002108BB002008BA009B
:1007CA00210040082000C10021003F082000C0008D
:1007DA0021003E082000BF0021003D082000BE0085
:1007EA009B31D623803120003D082100C000200023
:1007FA003C082100BF0020003B082100BE00200069
:10080A003A082100BD0041302000BD002030BC0064
:10081A000030BB000030BA00210052082000C1009D
:10082A00210051082000C000210050082000BF000C
:10083A0021004F082000BE0096314C26803120004E
:10084A003D082100D20020003C082100D1002000F0
:10085A003B082100D00020003A082100CF000130D7
:10086A00C5070030C63D4608803A2000ED00210049
:10087A002D08803A20006D02031D462C21002C0809
:10088A004502031C492C4A2C6B2B40302000A30044
:10089A00A030A2000030A1000030A00021005208C0
:1008AA002000A700210051082000A60021005008BE
:1008BA002000A50021004F082000A4008A317722D9
:1008CA008031200023082100C400200022082100D2
:1008DA00C300200021082100C200200020082100B6
:1008EA00C10040082000BD0021003F082000BC00D4
:1008FA0021003E082000BB0021003D082000BA006C
:10090A00210044082000C100210043082000C00043
:10091A00210042082000BF00210041082000BE003B
:10092A009E31E126803103189B2C9C2CA62C00308A
:10093A002100C4000030C3000030C2000030C100F2
:10094A00CB2C21004008F3003F08F2003E08F100DA
:10095A003D08F0004408F7004308F6004208F50095
:10096A004108F400903101208031031CBD2CBE2CBB
:10097A00CB2C21003218C22CC32CCB2C0030C40043
:10098A000030C3000030C2000030C100210044081A
:10099A00F3004308F2004208F1004108F0004A0857
:1009AA00F7004908F6004808F5004708F4008831BE
:1009BA003820803173082100C0007208BF00710816
:1009CA00BE007008BD0040082000BD0021003F089D
:1009DA002000BC0021003E082000BB0021003D0889
:1009EA002000BA004130A3002030A2000030A1004C
:1009FA000030A000210031082000A70021003008A3
:100A0A002000A60021002F082000A50021002E08A2
:100A1A002000A4008A317722803120002308C100F7
:100A2A002208C0002108BF002008BE009E31E1262E
:100A3A008031031C212D222D5D2D01302100CB0791
:100A4A000030CC3D41302000A3002030A20000300D
:100A5A00A1000030A000210031082000A7002100D9
:100A6A0030082000A60021002F082000A500210040
:100A7A002E082000A4008A31772280312000230822
:100A8A002100B100200022082100B0002000210826
:100A9A002100AF00200020082100AE0066303B068E
:100AAA00031D582D592D5D2D0130AC070030AD3D89
:100ABA0021003108D2003008D1002F08D0002E08BA
:100ACA00CF0065303B0603196B2D6C2D712D4C0838
:100ADA00AB004B08AA00732DAA01AB01A801A9011A
:100AEA00A601A701C501C601C02E21005208200097
:100AFA00BD00210051082000BC0021005008200040
:100B0A00BB0021004F082000BA0021004008200045
:100B1A00C10021003F082000C00021003E0820003B
:100B2A00BF0021003D082000BE0096314C268031CE
:100B3A0020003D08D7003C08D6003B08D5003A08FB
:100B4A00D4009131E5218031200057082100C400EA
:100B5A00200056082100C300200055082100C200C9
:100B6A00200054082100C1004408F3004308F200A1
:100B7A004208F1004108F0009E316D26803171086B
:100B8A002100B3007008B2002200361ACD2DCE2DF6
:100B9A00E42D210032083304031DD42DD52DE42D74
:100BAA0067303C06031DDA2DDB2DE42DAB1FDE2D4D
:100BBA00DF2DE42D0130A6070030A73D3E2E21008F
:100BCA0028082904031DEA2DEB2D222EAB1FEE2D3A
:100BDA00EF2D222E2E302000ED0021004D08A03EE0
:100BEA0086000130870020006D0881000130210055
:100BFA00CD070030CE3DFF30B907FF30BA3D013096
:100C0A00A8000030A900222E30302000ED0021007B
:100C1A004D08A03E86000130870020006D08810043
:100C2A0001302100CD070030CE3DFF30B907FF303B
:100C3A00BA3DFF30A607FF30A73D26082704031D4B
:100C4A00272E282E092E3208303E2000ED002100E2
:100C5A004D08A03E86000130870020006D08810003
:100C6A0001302100CD070030CE3DFF30B907FF30FB
:100C7A00BA3D44082000A700210043082000A6002E
:100C8A00210042082000A500210041082000A400FC
:100C9A00210052082000A300210051082000A200D0
:100CAA00210050082000A10021004F082000A000C8
:100CBA008A317722803120002308BD002208BC0037
:100CCA002108BB002008BA00210040082000C1000A
:100CDA0021003F082000C00021003E082000BF007C
:100CEA0021003D082000BE009B31D6238031200020
:100CFA003D082100C00020003C082100BF00200060
:100D0A003B082100BE0020003A082100BD00413006
:100D1A002000BD002030BC000030BB000030BA000B
:100D2A00210052082000C100210051082000C00003
:100D3A00210050082000BF0021004F082000BE00FB
:100D4A0096314C26803120003D082100D200200037
:100D5A003C082100D10020003B082100D0002000DF
:100D6A003A082100CF00FF30AA07FF30AB3D01301F
:100D7A00C5070030C63D4608803A2000ED00210034
:100D8A002D08803A20006D02031DCE2E21002C086A
:100D9A0045020318D12ED22EE22E21004E08803AA7
:100DAA002000ED0080306D02031DDE2E4B30210045
:100DBA004D02031CE12EE22E7A2D21002808290477
:100DCA00031DE82EE92EFF2E2200361EED2EEE2EF2
:100DDA00FF2E2E302000ED0021004D08A03E860097
:100DEA000130870020006D08810001302100CD0705
:100DFA000030CE3D21004D08A03E8600013087001C
:100E0A00810165303B06031D0B2F0C2FD52F4F3068
:100E1A00C5000030C6004508A03E860001308700A4
:100E2A008101B401B501CC1F1B2F1C2F252F0130C6
:100E3A00B4000030B500CB09CC09CB0A0319CC0A9F
:100E4A000230B6000030B700602FFF302100C5071E
:100E5A00FF30C63D0A30F0000030F1004C08F300C4
:100E6A004B08F2009D310A2580317008303E20007F
:100E7A00ED0021004508A03E8600013087002000D1
:100E8A006D0881000A30F0000030F10021004C08A2
:100E9A00F3004B08F2009E310E26803171082100C2
:100EAA00CC007008CB00FF30B607FF30B73DFF30EB
:100EBA00B907FF30BA3D4B084C04031D652F662F56
:100ECA002A2F3708803A2000ED0080306D02031D7A
:100EDA00712F0130210036020318742F752F2A2F23
:100EEA00FF302100C507FF30C63D34083504031D15
:100EFA007F2F802F852F2B30A2000030A300892F4F
:100F0A002D30A2000030A30022082000ED002100AD
:100F1A004508A03E86000130870020006D08810048
:100F2A00FF302100B907FF30BA3DFF30C507FF3057
:100F3A00C63D20006C08BF3EED00FF3003180030AC
:100F4A00EE0000306E021A3003196D02031CAE2F38
:100F5A00AF2FB52F65302100A4000030A500BA2FAD
:100F6A0045302100A4000030A50024082000ED002F
:100F7A0021004508A03E86000130870020006D0848
:100F8A008100FF302100B907FF30BA3D4508A03E75
:100F9A00F0000130F1004D08A03E9C311724803149
:100FAA00A0302000ED006D08A40021003A082000BE
:100FBA00A600210039082000A500210038089D312B
:100FCA00B525803120002508E9002408E80008003A
:100FDA0020308400013085002F309A31CB228731AE
:100FEA00A03084000130850050309A31CB228731FD
:060FFA0020009331D12B11
:101008002200CF0021006C082200D10021006B08CB
:101018002200D000B001B101272850302100EE0095
:101028006E08D3006D08EF006F08D40022004F0847
:101038008C31CE248831210053082200B0072100CA
:1010480054082200B13D5008840051088500120060
:10105800031D2F283028112831082100EC00220018
:1010680030082100EB000800730880392000A00038
:101078002008F8007335A0002008FA00F21F452860
:10108800462847287A147A0803194B284C285C28E4
:101098007A0A031D5028512859280030F3000030DF
:1010A800F2000030F1000030F000F217F30164287C
:1010B8000030F3000030F2000030F1000030F000A2
:1010C80077088039A0002008F90079087806031904
:1010D8006E286F28702878177735A0002008F90047
:1010E800F61F7728782879287914790803197D2834
:1010F8007E288E28790A031D822883288B280030B1
:10110800F7000030F6000030F5000030F400F61764
:10111800F70196280030F7000030F6000030F5009F
:101128000030F4007A08790203189B289C28E028EC
:10113800781F9F28A028A4288030A0002008F8063F
:101148007A08A0002008FB007908A0002008FA000F
:101158007B08A0002008F9007008A0002008FB0008
:101168007408A0002008F0007B08A0002008F40004
:101178007108A0002008FB007508A0002008F100F5
:101188007B08A0002008F5007208A0002008FB00DA
:101198007608A0002008F2007B08A0002008F600CE
:1011A8007308A0002008FB007708A0002008F300BF
:1011B8007B08A0002008F700FB017908A000A10126
:1011C8002108A3007A082002A200031CA303230815
:1011D800803AA40080302402031DF4281A30220229
:1011E800031CF728F8283229730872047104700464
:1011F800031DFF2801290130022900302000A0002A
:101208002008FB000030F3000030F2000030F1004D
:101218000030F0007908A0002008FA0038297B1C6B
:10122800162917291E297B3601382000A00020081E
:10123800FB0020290310FB0C701C232924292529D5
:10124800FB1701302000A000F337F20CF10CF00C72
:10125800A00B28290130A0002008FA0779087A0293
:10126800031C372938291329781B3B293C2976295F
:101278007A08031D402941294A290030F30000302B
:10128800F2000030F1000030F000762A7408F00710
:101298007508F13D7608F23D7708F33D731C552932
:1012A8005629032A7B1C59295A2961297B3601387A
:1012B8002000A0002008FB0063290310FB0C701C11
:1012C800662967296829FB1701302000A000F33739
:1012D800F20CF10CF00CA00B6B290130A0002008D7
:1012E800FA07032A7308803A2000A0007708803A9A
:1012F8002002031D892976087202031D89297508B1
:101308007102031D89297408700203188C298D291C
:10131800C529FF30A000FF30A100FF30A200FF3038
:10132800A30070087402A4007108753BA500720838
:10133800763BA6007308773BA7002408A00725087A
:10134800A13D2608A23D2708A33D2308F300220853
:10135800F2002108F1002008F0008030A0002008E9
:10136800F806FB09FB0A7B08031DBB29BC29CD290C
:101378000130F0070030F13D0030F23D0030F33D20
:10138800CD297408F0027508F13B7608F23B77081E
:10139800F33B7308720471047004031DD429D52922
:1013A800FF297B08031DD929DA29FF290030F3001A
:1013B8000030F2000030F1000030F000762A0130F1
:1013C800F035F10DF20DF30D890BE429FB1FED2922
:1013D800EE29EF2970147B1CF229F329F62903144E
:1013E800FB0DF8290310FB0D7A080319FC29FD29C8
:1013F800FF290130FA02F21F022A032AE329F90120
:10140800FB1F072A082A162A7B087F3903190D2A89
:101418000E2A112AF901F90A162A701C142A152A0B
:10142800162A0E2A790803191A2A1B2A492A013072
:10143800F0070030F13D0030F23D0030F33D731C01
:10144800262A272A492A70082000A0007108A1002E
:101458007208A2007308A3000130A400A337A20CED
:10146800A10CA00CA40B322A2308F3002208F200D6
:101478002108F1002008F0007A0A0319442A452AB5
:10148800492A0130A0002008FA077A0A03194D2AD0
:101498004E2A532A7A08031D522A532A612A0030F9
:1014A800F3000030F2000030F1000030F0007A085C
:1014B800031D5F2A602A612AF8017A1C642A652ABA
:1014C800672AF2176C2A7F302000A0002008F20556
:1014D8007A362000A0002008F300F81F742A752A25
:1014E800762AF3170800200023088039A800280866
:1014F800AD002335A8002808B300A21F842A852A36
:10150800862A3314330803198A2A8B2A9A2A330A1B
:10151800031D8F2A902A982A0030A3000030A200C9
:101528000030A1000030A000A217A22A0030A300BA
:101538000030A2000030A1000030A0002708803948
:10154800A8002808AD062735A8002808B200A61F5D
:10155800AE2AAF2AB02A321432080319B42AB52A9F
:10156800C42A320A031DB92ABA2AC22A0030A7009F
:101578000030A6000030A5000030A400A617CC2A31
:101588000030A7000030A6000030A5000030A400FD
:1015980032080319D02AD12AD62A3308031DD52A9E
:1015A800D62ADF2A0030A3000030A2000030A100B4
:1015B8000030A000CD2C2008A8002808F00026083C
:1015C8009C317D248A3171082000B9007008B80068
:1015D8003808A800A901AA01AB012B08B1002A0804
:1015E800B0002908AF002808AE003908A800A901F2
:1015F800AA01AB012B08B7002A08B6002908B500D4
:101608002808B4002108A8002808F00025089C3103
:101618007D248A3171082000B9007008B8003808A4
:10162800A800A901AA01AB012808AE072908AF3D07
:101638002A08B03D2B08B13D3908A800A901AA0124
:10164800AB012808B4072908B53D2A08B63D2B0880
:10165800B73D2208A8002808F00024089C317D2402
:101668008A3171082000B9007008B8003808A8004D
:10167800A901AA01AB012808AE072908AF3D2A082D
:10168800B03D2B08B13D3908A800A901AA01AB015A
:101698002808B4072908B53D2A08B63D2B08B73DE8
:1016A8000830AE35AF0DB00DB10D890B552B2108A3
:1016B800A8002808F00024089C317D248A3171088C
:1016C8002000B9007008B8003808AE073908AF3DE7
:1016D8000030B03DB13D2008A8002808F0002508DA
:1016E8009C317D248A3171082000B9007008B80047
:1016F8003808AE073908AF3D0030B03DB13D08307D
:10170800AE35AF0DB00DB10D890B842B2008A800A4
:101718002808F00024089C317D248A3171082000B3
:10172800B9007008B8003808AE073908AF3D003076
:10173800B03DB13D2108A8002808F00026089C31DA
:101748007D248A3171082000B9007008B800380873
:10175800B4073908B53D0030B63DB73D2208A800AA
:101768002808F00025089C317D248A317108200062
:10177800B9007008B8003808B4073908B53D00301A
:10178800B63DB73D2208A8002808F00026089C317D
:101798007D248A3171082000B9007008B800380823
:1017A800A8003908A900AA01AB010830A835A90D7D
:1017B800AA0DAB0D890BDA2B2808B4072908B53D0B
:1017C8002A08B63D2B08B73D2E08A8002F08A90007
:1017D8003008AA003108AB001830AB36AA0CA90CA7
:1017E800A80C890BF12B2808B4072908B53D2A084D
:1017F800B63D2B08B73D0830AE35AF0DB00DB10D75
:10180800890B002C33083207A800A901A90D280864
:10181800823EB800FF30293DB900292C0130B4358B
:10182800B50DB60DB70D890B132CB11F1C2C1D2C33
:101838001E2C34140130AE35AF0DB00DB10D890B2F
:101848001F2CFF30B807FF30B93DB61F2C2C2D2CAC
:10185800122CB201B11F312C322C4E2CFF302E0528
:10186800A800FF302F05A900FF303005AA007F30FF
:101878003105AB002B082A04290428040319452C38
:10188800462C492CB201B20A4E2C341C4C2C4D2C3F
:101898004E2C462C32080319522C532C7B2C013029
:1018A800B4070030B53D0030B63D0030B73D371CB9
:1018B8005E2C5F2C7B2C3408A8003508A90036085C
:1018C800AA003708AB000130AC00AB37AA0CA90C52
:1018D800A80CAC0B692C2B08B7002A08B6002908FD
:1018E800B5002808B4000130B8070030B93D390800
:1018F800803AA80080302802031D842CFF3038026B
:10190800031C872C882C922C7F302000B700803055
:10191800B6000030B5000030B400C12C20003908F2
:10192800803AA80080302802031D9C2C0130380220
:1019380003189F2CA02CAB2C00302000B7000030DF
:10194800B6000030B5000030B400AD01C12C200055
:101958003808A8002808B300FF30B405FF30B505E3
:101968007F30B6050030B705331CBB2CBC2CBD2C12
:10197800B6173336A8002808B7002D08A80028088D
:10198800B7043708A3003608A2003508A1003408B8
:10199800A00008002100EA005308860001308700F3
:1019A800403FD500413FD6005508840056088500C1
:1019B8001200253A031DE12CE22CDA2F5308860089
:1019C800013087000130810741310318810A220064
:1019D800B201B301B601B701FF30B400FF30B50062
:1019E80021005308860001308700403FD500413F61
:1019F800D600550884005608850012002A3A031DAF
:101A0800062D072D2A2D5308860001308700013046
:101A1800810741310318810A540886000130870084
:101A2800010884000130850002308107003F220050
:101A3800B200013FB300B31F222D232D612D3614B0
:101A4800B209B309B20A0319B30A612D5308860013
:101A580001308700403FF600413FF7009F316C2777
:101A68008C3177082200B3007608B200442D530861
:101A78008600013087000130810741310318810A4F
:101A880021005308860001308700403FD500413FC0
:101A9800D60055088400560885000008D03ED700B7
:101AA800FF3003180030D800003058020A300319FC
:101AB8005702031C602D612D3B2D21005308860021
:101AC80001308700403FD500413FD60055088400CB
:101AD8005608850012002E3A031D732D742DE32D30
:101AE8002200B401B50121005308860001308700A7
:101AF8000130810741310318810A530886000130FB
:101B08008700403FD500413FD6005508840056085D
:101B1800850012002A3A031D922D932DAC2D5308EF
:101B28008600013087000130810741310318810A9E
:101B380054088600013087000108840001308500C0
:101B480002308107003F2200B400013FB500E32DB9
:101B58005308860001308700403FF600413FF700F8
:101B68009F316C278C3177082200B5007608B400C5
:101B7800C62D5308860001308700013081074131A6
:101B88000318810A21005308860001308700403F6E
:101B9800D500413FD6005508840056088500000846
:101BA800D03ED700FF3003180030D800003058026C
:101BB8000A3003195702031CE22DE32DBD2D210025
:101BC8005308860001308700403FD500413FD600CA
:101BD80055088400560885000008D700D801570822
:101BE800F6005808F7009B310A238C31760821004B
:101BF800D9005908E60066080319032E042E452E5D
:101C08005308860001308700403FD500413FD60089
:101C180001305507840056080318560A8500000845
:101C2800D700D8015708F6005808F7009B310A2357
:101C38008C3176082100D9005908E7006708031994
:101C4800262E272E452E5308860001308700403F58
:101C5800D500413FD60002305507840056080318C6
:101C6800560A85000008D700D8015708F60058081A
:101C7800F7009B310A238C3176082100D9005908D6
:101C8800E8005308860001308700403FD500413FF7
:101C9800D60055088400560885001200643A0319D6
:101CA800562E572E692E5308860001308700403F74
:101CB800D500413FD600550884005608850012001B
:101CC800693A031D682E692EBA2E53088600013022
:101CD80087000130810741310318810A54088600C2
:101CE8000130870001088400013085000230810737
:101CF800003FD500013FD6005508DA005608DB0042
:101D0800890D893B8909DC00DD00DE00DF00E00089
:101D1800E1005A082000B00021005B082000B10053
:101D280021005C082000B20021005D082000B300FB
:101D380021005E082000B40021005F082000B500E3
:101D4800210060082000B600210061082000B700CB
:101D580021006A089431DC248C31200031082100EC
:101D6800D400200030082100D300FF2F663066061B
:101D7800031DBF2EC02E0E2F53088600013087008A
:101D8800403FD500413FD6005508840056088500DD
:101D98000008D7005708E90053088600013087007B
:101DA8000130810741310318810A54088600013047
:101DB8008700010884000130850004308107003F56
:101DC800E200013FE300023FE400033FE50065084D
:101DD8002000EB00210064082000EA0021006308CD
:101DE8002000E900210062082000E80021006908BD
:101DF800D50055082000EC0021006A0880318820B1
:101E08008C31200069082100D400200068082100D6
:101E1800D300FF2F3230F000A030F1000230F20082
:101E28000030F300E6309D315D258C317008710477
:101E3800031D1F2F202FA12F2100530886000130DA
:101E48008700403FD500413FD60001305507840048
:101E580056080318560A85000008D7005708E900F5
:101E68005308860001308700403FD500413FD60027
:101E780055088400560885000008BF3ED700FF308B
:101E880003180030D800003058021A3003195702DE
:101E980003184F2F502F632F5408860001308700F6
:101EA800010884000130850004308107003FE2000A
:101EB800013FE300023FE400033FE500752F5408AB
:101EC8008600013087000108840001308500043055
:101ED8008107003FE200013FE300023FE400033FC7
:101EE800E500530886000130870002308107413140
:101EF8000318810A65082000EB002100640820000F
:101F0800EA00210063082000E9002100620820009F
:101F1800E80021006908D50055082000EC002100E0
:101F28006A08803188208C31200069082100D4009B
:101F3800200068082100D300FF2F210053088600E5
:101F480001308700403FD500413FD6005508840046
:101F5800560885001200253A031DB32FB42FCE2F43
:101F6800530886000130870001308107413103188A
:101F7800810A2530F2000030F3006A08D5005508C0
:101F8800F4009C31C9248C3101302100D300003089
:101F9800D400FF2F530886000130870001308107E5
:101FA80041310318810AD301D401FF2F5308860059
:101FB80001308700403FD500413FD60055088400D6
:101FC800560885000008D700D8015708F2005808BD
:101FD800F3006A08D9005908F4009C31C9248C31EF
:101FE8002100530886000130870001308107413104
:081FF8000318810AC82F08003C
:1020020000307005F80000307105F900803072056B
:10201200FA007F307305FB007B087A0479047804A8
:10202200031D142815281D280030F3000030F2008B
:102032000030F1000030F00000307405F80000308C
:102042007505F90080307605FA007F307705FB00D0
:102052007B087A0479047804031D30283128392852
:102062000030F7000030F6000030F5000030F400D8
:1020720077087306031D472876087206031D472852
:1020820075087106031D47287408700603194A284B
:102092004B284D2803104E2803140800F800780836
:1020A2000319542855286928F31F582859286928E4
:1020B2007009FA007109FB007209FC007309FD0046
:1020C200FA0A0319FB0A0319FC0A0319FD0A71280B
:1020D2007308FD007208FC007108FB007008FA002A
:1020E2007308720471047004031D78287928822809
:1020F2000030F3000030F2000030F1000030F00058
:10210200FA289630F4007408F90092280130F4009D
:102112007408F9070130FD36FC0CFB0CFA0C890B34
:102122008C28FE307D05031D972898288728AC2827
:102132000130F4007408F9070130FA070030FB3D62
:102142000030FC3D0030FD3D0130FD36FC0CFB0C47
:10215200FA0C890BA628FF307D05031DB128B22891
:102162009928BC280130F9020130FA35FB0DFC0D2B
:10217200FD0D890BB628FC1BBF28C028C6280230DB
:1021820079020318C528C628B3287918C928CA288D
:10219200D228FF30FA05FF30FB057F30FC05FF3007
:1021A200FD050310F90C7908F400F501F601F701B9
:1021B2001830F435F50DF60DF70D890BDA28740891
:1021C200FA047508FB047608FC047708FD04780815
:1021D2000319EC28ED28F228F31FF028F128F22841
:1021E200FD177D08F3007C08F2007B08F1007A08F5
:1021F200F0000800F2012830860000308700473FD7
:10220200F000F01F0529062927292000A809A9099D
:10221200AA09AB09AC09AD09AE09AF09A80A031DA9
:102222002529A90A031D2529AA0A031D2529AB0A66
:10223200031D2529AC0A031D2529AD0A031D2529E5
:10224200AE0A031D2529AF0AF201F20A20308600E8
:1022520000308700473FF000F01F30293129502914
:102262002000A009A109A209A309A409A509A60998
:10227200A709A00A031D5029A10A031D5029A20A79
:10228200031D5029A30A031D5029A40A031D502926
:10229200A50A031D5029A60A031D5029A70A2000DA
:1022A20020082104220423042404250426042704EC
:1022B20003195C295D29B029F101F10A6C29A035C5
:1022C200A10DA20DA30DA40DA50DA60DA70D013004
:1022D200F0007008F107A71F6F29702960292708ED
:1022E2002F02031D8E2926082E02031D8E29250882
:1022F2002D02031D8E2924082C02031D8E2923087A
:102302002B02031D8E2922082A02031D8E29210871
:102312002902031D8E2920082802031C91299229D3
:10232200A2292008A8022108A93B2208AA3B2308C7
:10233200AB3B2408AC3B2508AD3B2608AE3B270847
:10234200AF3BA736A60CA50CA40CA30CA20CA10CA7
:10235200A00C0130F102031DAF29B02970297208C7
:102362000319B429B529D329A809A909AA09AB09CE
:10237200AC09AD09AE09AF09A80A031DD329A90A00
:10238200031DD329AA0A031DD329AB0A031DD3298E
:10239200AC0A031DD329AD0A031DD329AE0A031DBE
:1023A200D329AF0A20002808A0002908A1002A0882
:1023B200A2002B08A3002C08A4002D08A5002E08BB
:1023C200A6002F08A7000800220023082000E7002B
:1023D200220022082000E600220021082000E50059
:1023E200220020082000E4005708E7005608E60013
:1023F2005508E5005408E4006408D8006508D900CF
:102402006608DA006708DB001730DB36DA0CD90C15
:10241200D80C890B062AFF305805DC00003059051C
:10242200DD005C08813EE200FF305D3DE3006308B1
:10243200803AD80080305802031D212A17306202E8
:10244200031C242A252A262ACF2A2000E31B2A2A13
:102452002B2A882AFF30D800FF30D9007F30DA00DB
:102462000030DB00620A392ADB37DA0CD90CD80CCF
:10247200890B352A5B08E1005A08E0005908DF00A1
:102482005808DE0064085E05D80065085F05D900BB
:1024920066086005DA0067086105DB005B085A041C
:1024A20059045804031D562A572A582A252A640813
:1024B200D8006508D9006608DA006708DB001F301B
:1024C200DB36DA0CD90CD80C890B612A5B085A046A
:1024D2005904580403196E2A6F2A772A5E08E40702
:1024E2005F08E53D6008E63D6108E73D5E09D8000A
:1024F2005F09D9006009DA006109DB005808E405C8
:102502005908E5055A08E6055B08E705C72A640885
:10251200D8006508D9006608DA006708DB001F30BA
:10252200DB36DA0CD90CD80C890B912A5B085A04D9
:1025320059045804031D9E2A9F2AA82A0030E70046
:102542000030E6000030E5000030E400C72A6408ED
:10255200D8006508D9006608DA006708DB00013098
:10256200D835D90DDA0DDB0D890BB12A5B085A0477
:10257200590458040319BE2ABF2AC72ABF30E700EC
:102582008030E6000030E5000030E4006708D70044
:102592006608D6006508D5006408D4000800F20178
:1025A2002030860000308700473FF000F01FDA2A13
:1025B200DB2AFC2A2000A009A109A209A309A40977
:1025C200A509A609A709A00A031DFA2AA10A031D43
:1025D200FA2AA20A031DFA2AA30A031DFA2AA40A46
:1025E200031DFA2AA50A031DFA2AA60A031DFA2ABE
:1025F200A70AF201F20A2830860000308700473F1E
:10260200F000F01F052B062B292B2000A809A90991
:10261200AA09AB09AC09AD09AE09AF09A80A031DA5
:10262200252BA90A031D252BAA0A031D252BAB0A5C
:10263200031D252BAC0A031D252BAD0A031D252BDB
:10264200AE0A031D252BAF0A0130F0007008F20616
:1026520073308600003087000830F00000301E0022
:10266200F00B302B20002008210422042304240430
:1026720025042604270403193F2B402B9C2BF10130
:10268200F10A4F2BA035A10DA20DA30DA40DA50D8E
:10269200A60DA70D0130F0007008F107A71F522BFD
:1026A200532B432BF335F40DF50DF60DF70DF80D05
:1026B200F90DFA0D27082F02031D792B26082E0289
:1026C200031D792B25082D02031D792B24082C02CA
:1026D200031D792B23082B02031D792B22082A02C2
:1026E200031D792B21082902031D792B20082802BA
:1026F200031C7C2B7D2B8E2B2008A8022108A93BD2
:102702002208AA3B2308AB3B2408AC3B2508AD3B7F
:102712002608AE3B2708AF3B7314A736A60CA50CC0
:10272200A40CA30CA20CA10CA00C0130F102031DFD
:102732009B2B9C2B532B72080319A02BA12BBF2B75
:10274200F309F409F509F609F709F809F909FA098B
:10275200F30A031DBF2BF40A031DBF2BF50A031D49
:10276200BF2BF60A031DBF2BF70A031DBF2BF80A66
:10277200031DBF2BF90A031DBF2BFA0A73082000A1
:10278200A0007408A1007508A2007608A3007708CB
:10279200A4007808A5007908A6007A08A700080016
:1027A2009A31FA22933100309B319C239331710884
:1027B2002200CE007008CD003E302000A300FA3087
:1027C200A2003E30A1009030A00022004D08F0008F
:1027D2004E08F100890D893B8909F200F3000130AE
:1027E20090314F20933173082000A7007208A60091
:1027F2007108A5007008A4008A3177229331200065
:1028020023082200AF00200022082200AE00200090
:1028120021082200AD00200020082200AC00013077
:102822009B319C23933171082200CE007008CD00A9
:1028320044302000BD007F30BC00C030BB000030FF
:10284200BA004030A300A030A2000030A100003046
:10285200A00022004D08F0004E08F100890D893BCE
:102862008909F200F300013090314F20933173084F
:102872002000A7007208A6007108A5007008A40035
:102882008A317722933120002308C1002208C00038
:102892002108BF002008BE0096314C26933120004B
:1028A2003D082200AB0020003C082200AA002000C4
:1028B2003B082200A90020003A082200A8002000BC
:1028C2000D0801392200EA00EB016A08C8006B0812
:1028D200C90020000D0C01392200EA00EB016A0850
:1028E200C6006B08C70020000D0C890C01392200BC
:1028F200EA00EB016A08C4006B08C50020000D0C59
:102902002200EA00EA0C6A0C0139EB00EC016B08C8
:10291200C2006C08C30020000D0E01392200EA003B
:10292200EB016A08C0006B08C10020000D0E890C83
:1029320001392200EA00EB016A08BE006B08BF0001
:102942000030D200A030D3002F08D7002E08D600C6
:102952002D08D5002C08D4002B08DB002A08DA0049
:102962002908D9002808D8004908DD004808DC00F9
:102972004708DF004608DE004508E1004408E000A1
:102982004308E3004208E2004108E5004008E40091
:102992003F08E7003E08E6009B3121239331D03007
:1029A2002200EA00C930890BD42CEA0BD42C003265
:1029B200D42B803102282000BF003008C400310827
:1029C200C5003208C6003308C7003408C8003508FD
:1029D200C9003608CA003708CB00443086000030F0
:1029E2008700473FB800B81BF72CF92C0130FA2CAE
:1029F20000302000B900BA013908C2003A08C30009
:102A0200420843040319062D072D252DC409C509C3
:102A1200C609C709C809C909CA09CB09C40A031DDD
:102A2200252DC50A031D252DC60A031D252DC70AFE
:102A3200031D252DC80A031D252DC90A031D252D99
:102A4200CA0A031D252DCB0A2200B51B292D2A2DCA
:102A52002E2DFD30B605FF30B7053508803A20002F
:102A6200B80080303802031D392D013022003402B3
:102A720003183C2D3D2D432D01302000BD000030B8
:102A8200BE004B2D220035082000BE002200340873
:102A92002000BD00220033082000C10022003208BD
:102AA2002000C00042084304031D582D592D5E2DFD
:102AB2002200361D5D2D5E2D632DFF302000C007E4
:102AC200FF30C13D4F302000CC000030CD0023004C
:102AD200EF01D42DFF302000CC07FF30CD3D0A306E
:102AE200A000A101A201A301A401A501A601A701C1
:102AF2004408A8004508A9004608AA004708AB00F8
:102B02004808AC004908AD004A08AE004B08AF00C7
:102B12009031FB20943120002108F4002008F300BA
:102B22009B31682394317308303E2000B8004C0872
:102B3200A03E86000130870038088100FF30BD07C3
:102B4200FF30BE3DFF30C007FF30C13D0A30A0005C
:102B5200A101A201A301A401A501A601A7014408A4
:102B6200A8004508A9004608AA004708AB00480883
:102B7200AC004908AD004A08AE004B08AF009231E4
:102B8200D022943120002008C4002108C500220868
:102B9200C6002308C7002408C8002508C900260863
:102BA200CA002708CB0020004D08803AB8008030C8
:102BB2003802031DDE2D01304C02031CE12DE22DF3
:102BC2000F2E2000440845044604470448044904E3
:102BD2004A044B04031DEE2DEF2D6B2D3E08803A67
:102BE200B80080303802031DF82D01303D02031871
:102BF200FB2DFC2D6B2D20004108803AB80080305F
:102C02003802031D062E01304002031C092E0A2E33
:102C12000F2E2200B6180E2E0F2E6B2D200042080A
:102C22004304031D152E162E1B2E2200361D1A2EAE
:102C32001B2E382EFF302000CC07FF30CD3D42083E
:102C42004304031D252E262E2B2E2B30BB000030D5
:102C5200BC002F2E2D30BB000030BC003B08B8005A
:102C62004C08A03E86000130870038088100200011
:102C72004C08A03EB8003808A4004108A60040084D
:102C8200A5003F089D31B525943120002508B100EB
:102C92002408B0000800200041088039C200420820
:102CA200CB004135C2004208D200C01F592E5A2E15
:102CB2005B2E5214520803195F2E602E702E520A98
:102CC200031D642E652E6D2E0030C1000030C00041
:102CD2000030BF000030BE00C017C101782E0030A6
:102CE200C1000030C0000030BF000030BE003D080F
:102CF2008039C2004208CB063D35C2004208D300EB
:102D0200BC1F842E852E862E5314530803198A2E37
:102D12008B2E9B2E530A031D8F2E902E982E003041
:102D2200BD000030BC000030BB000030BA00BC1750
:102D3200BD01A32E0030BD000030BC000030BB003E
:102D42000030BA003D083C043B043A04031DAA2E9D
:102D5200AB2EC42E0030C1000030C0000030BF00D6
:102D62000030BE008030C0047F30C1044B08C20076
:102D72004208C1044108BD004008BC003F08BB0036
:102D82003E08BA00FF2F5208031DC82EC92ED22EAC
:102D92000030BD000030BC000030BB000030BA0083
:102DA200FF2F5208C200C3014308C5005308420264
:102DB200C400031CC50344087F3ECC000030453DDF
:102DC200CD004108CA004008C9003F08C8003E08BB
:102DD200C7000030C1000030C0000030BF0000302A
:102DE200BE000030D1000030D0000030CF000030F3
:102DF200CE00D3013A2F53080319002F012F1B2FA6
:102E02000130C735C80DC90DCA0D890B022F01301B
:102E1200BE35BF0DC00DC10D890B092FD11F122F59
:102E2200132F142F3E140130CE35CF0DD00DD10DFE
:102E3200890B152F3D084A02031D292F3C08490220
:102E4200031D292F3B084802031D292F3A08470278
:102E5200031C2C2F2D2F362F51173A08C7023B087F
:102E6200C83B3C08C93B3D08CA3B0130C20042088E
:102E7200D3071A305302031C3F2F402FFC2E4A085F
:102E82004904480447040319472F482F612F4E1461
:102E9200612F0130BE35BF0DC00DC10D890B4B2F07
:102EA200D11F542F552F562F3E140130CE35CF0D42
:102EB200D00DD10D890B572FFF30CC07FF30CD3D00
:102EC200C01F642F652F4A2FD301D11F692F6A2F8C
:102ED200862FFF304E05C200FF304F05C300FF3082
:102EE2005005C4007F305105C50045084404430421
:102EF200420403197D2F7E2F812FD301D30A862FFF
:102F02003E1C842F852F862F7E2F530803198A2F6C
:102F12008B2FB32F0130BE070030BF3D0030C03DC4
:102F22000030C13D411C962F972FB32F3E08C2009F
:102F32003F08C3004008C4004108C5000130C60074
:102F4200C537C40CC30CC20CC60BA12F4508C10067
:102F52004408C0004308BF004208BE000130CC074D
:102F62000030CD3D4D08803AC20080304202031D40
:102F7200BC2FFF304C02031CBF2FC02FCD2FFF30C0
:102F82002000CC000030CD000030C1000030C00075
:102F92000030BF000030BE0020004D08803AC20061
:102FA20080304202031DD72F01304C020318DA2F62
:102FB200DB2FE72F2000CC01CD010030C100003013
:102FC200C0000030BF000030BE00CB0120004C0822
:102FD200C2004208D200521CEF2FF02FF22FC0176E
:102FE200F62F7F30C2004208C0055236C2004208A6
:0E2FF200C1004B08C2004208C104BB2E0800FB
:1035660071082200B9007008B8000800710822002E
:10357600BD007008BC00080071082200BB0070087E
:10358600BA000800F10071089A31D9229A31080070
:10359600640080010131890BCC2A0034E03021001F
:1035A6009E009B019C0101309D000800F000200058
:1035B600111EDE2ADF2ADA2A700823009A00080084
:1035C60073087204710470040319EA2AEB2AED2ABF
:1035D6008030F3060800703021009900980122001F
:1035E600960121001A1FF82AF92AF42A08009C31AC
:1035F60038249A319A31EE229A31803105209A3157
:103606009A31D1229A319C315A249A31080076088F
:10361600BF3EF800FF30773DF900003079021A30DE
:10362600031978020318182B192B202B2030760447
:10363600F60000307704F700202B080054302200F3
:10364600E8006808E90053082100EC00220052084F
:103656002100EB0069302200E80068082100ED0037
:103666000030883104209B3108007008D03EF200FB
:10367600FF30713DF300003073020A300319720205
:10368600031C462B482B0130492B0030F400F50172
:103696007408F0007508F10008007008BF3EF200DB
:1036A600FF30713DF300003073021A3003197202C5
:1036B600031C5E2B602B0130612B0030F400F501FA
:1036C6007408F0007508F10008007408803AF500E7
:1036D60080307502031D712B013073020318742BA1
:1036E600752B812B7309F5007409F600F50A031989
:1036F600F60A7508F3007608F400812B0800F4003A
:103706007408F2007208F3008C2B0130F200720884
:10371600F40774088600013087000108031D942B06
:10372600952B882B73087402F000F101F01BF1034E
:103736000800F3007308F200F20DF20D21001D08D7
:103746007206833972069D001D140D30890BA92B54
:10375600000021009D149D18B12BB22BAE2B1C0826
:10376600F1001B08F0000800F401F501701CBC2BE9
:10377600BD2BC12B7208F4077308F53D0130F235F5
:10378600F30D890BC22B0130F136F00C890BC72BD8
:1037960070087104031DD02BD12BB92B7508F100CD
:1037A6007408F000080080302000BD064108F300D0
:1037B6004008F2003F08F1003E08F0003D08F7001F
:1037C6003C08F6003B08F5003A08F400883138203A
:1037D6009B3173082000BD007208BC007108BB0055
:1037E6007008BA000800F401F40A2030700671046B
:1037F6000319FE2BFF2B0F2C7008F73EF200FF304B
:10380600713DF30000307302053003197202031C88
:103816000D2C0E2C0F2CF4017408F200F301720823
:10382600F0007308F1000800F7007108F500700851
:10383600F4007708F2007208F60076088600013078
:103846008700F60A7508F3007408F200F40A0319F3
:10385600F50A72088400730885000008C03F8908CD
:10386600031D362C372C202C0800220090018F01D6
:103876008C018D018E010F3021009000FF308C00ED
:10388600C7308D00BF308E00FF308F00FF30230021
:103896008F0038308D00073090003F308C002400B8
:1038A60090018D012100951722009D010800083026
:1038B60023009F0090309D0024309E0040309B00E6
:1038C60003309C000030F0000030F1009A31B9223C
:1038D6009C310030F0000030F1009A31BF229C315B
:1038E6000030F0000030F1009A31B3229C31220002
:1038F600CC010800F800F401F5017008F200F301AC
:103906007208F6007308F700781C8A2C8B2C8F2C13
:103916007608F4077708F53D0130F635F70D890B83
:10392600902C0310F80C7808031D9A2C9B2C872CDE
:103936007508F1007408F00008002000A300A1013A
:10394600A201B82C2008FB00FC017B08F2007C08D1
:10395600F3007A08FD007D08F4009C31C9249C31EF
:1039660001302000A1070030A23D21082307FB00FB
:103976007B088600013087000108FC007C08A00057
:103986002008031DC72CC82CA52C08007408031991
:10399600CD2CCE2CD32C7408031DD22CD32CD82C92
:1039A60072089A31C5229C31092D7408083E86009A
:1039B6008701160001040319E12CE22C002D74087E
:1039C600083E86008701403FF500413FF600740837
:1039D600023E86008701403FF700413FF800780825
:1039E600803AF9007608803A7902031DFC2C7508A6
:1039F60077020318FF2C002D092D7408023E86005D
:103A060087010130810741310318810A0800F60158
:103A1600F31F0E2D0F2D162DF209F309F20A0319C5
:103A2600F30AF601F60AF11F192D1A2D1F2DF009BA
:103A3600F109F00A0319F10A700871040319242D1B
:103A4600252D4E2DF501F50A312D0130F035F10DFC
:103A5600890B292D0130F4007408F507F11F342D68
:103A6600352D282D71087302031D3B2D7008720237
:103A7600031C3E2D3F2D432D7008F2027108F33BC7
:103A86000130F136F00C890B442D0130F502031D8F
:103A96004D2D4E2D352D76080319522D532D582DAB
:103AA600F209F309F20A0319F30A7308F10072081E
:103AB600F0000800F5007508F4007408F8007108B5
:103AC600F7007008F6000130F2020030F33B720A8C
:103AD600031D712D730A031D712D722D812DF001A9
:103AE600F101B42D0130F4007408F8070130F6072F
:103AF6000030F73D0130F2020030F33B78088600D3
:103B0600870101080319882D892DA72D76088400C1
:103B16007708850012000319912D922DA72D7208A2
:103B260073040319972D982DA72D7608840077081E
:103B360085000008F40078088600870101087406ED
:103B46000319A62DA72D752D7808860087017608FE
:103B560084007708850000080102F000F101031CCB
:103B6600F10308002000AC002200361CBB2DBC2D42
:103B7600C52D20002C08A7002708FA0024089C3130
:103B8600A0249D312000A61BC92DCA2DCF2D2608A5
:103B9600AB002508AA00D12DAA01AB01A801A901F5
:103BA600E52D2030F2000030F30020002C08A7009D
:103BB6002708F4009C31C9249D3101302000A80754
:103BC6000030A93D2908803AA7002B08803A270231
:103BD600031DEF2D2A082802031CF22DF32DD42DE8
:103BE60022003618F72DF82D012E20002C08A700EC
:103BF6002708FA0024089C31A0249D3120002408BF
:103C06009B3182239D3120002A087007A4002B08CF
:103C1600713DA5000800F601F11F122E132E1A2E73
:103C2600F009F109F00A0319F10AF601F60AF31F81
:103C36001D2E1E2E272EF209F309F20A0319F30A86
:103C46000130F4007408F606F701F80170087104F3
:103C560003192E2E2F2E5E2EF501F50A3B2E01306E
:103C6600F035F10D890B332E0130F4007408F50799
:103C7600F11F3E2E3F2E322E0130F735F80D890BFF
:103C8600402E71087302031D4A2E70087202031C2F
:103C96004D2E4E2E532E7008F2027108F33B771408
:103CA6000130F136F00C890B542E0130F502031D5C
:103CB6005D2E5E2E3F2E76080319622E632E682E29
:103CC600F709F809F70A0319F80A7808F1007708DE
:103CD600F00008000310720D730DF4007408FA006A
:103CE6007A08031D772E782E812E0030F3000030DF
:103CF600F2000030F1000030F000E02E7008F40011
:103D06007108F5007208F6007308F7001F30F736E1
:103D1600F60CF50CF40C890B8A2E7408F80078085A
:103D2600F900F217FF30F005FF30F105FF30F2051C
:103D36000030F3059630FA02FA1FA22EA32EBB2EF0
:103D46007A08803A973E0318A92EAA2EAB2E782E13
:103D56000130F336F20CF10CF00C890BAC2E01306D
:103D6600F4007408FA07031DB92EBA2EAB2ED02E16
:103D760020307A02031CC02EC12ECB2E782E0130A5
:103D8600F035F10DF20DF30D890BC32E0130FA0259
:103D96007A08031DCF2ED02EC22E79080319D42EF1
:103DA600D52EE02EF009F109F209F309F00A0319FC
:103DB600F10A0319F20A0319F30A08000030200079
:103DC6003A05C20000303B05C30080303C05C40004
:103DD6007F303D05C5004508440443044204031DE5
:103DE600F52EF62EFE2E0030BD000030BC00003051
:103DF600BB000030BA0000303E05C20000303F056F
:103E0600C30080304005C4007F304105C500450829
:103E1600440443044204031D112F122F1A2F0030AD
:103E2600C1000030C0000030BF000030BE00BD1F22
:103E36001D2F1E2F362F0030C2000030C300003069
:103E4600C4008030C5003A08C2023B08C33B3C08A8
:103E5600C43B3D08C53B4508BD004408BC004308BB
:103E6600BB004208BA00C11F392F3A2F522F00302B
:103E7600C2000030C3000030C4008030C5003E08D8
:103E8600C2023F08C33B4008C43B4108C53B450846
:103E9600C1004408C0004308BF004208BE0080308D
:103EA600BD068030C10641083D02031D642F40084F
:103EB6003C02031D642F3F083B02031D642F3E088E
:103EC6003A020318672F682F6A2F03106B2F03140B
:103ED60008002000A201A301A001A101762F013054
:103EE600F6070030F73D7608840077088500120053
:103EF600203A03197F2F802F722F760884007708C7
:103F060085000008F73EF800FF3003180030F9007E
:103F160000307902053003197802031C932F942F81
:103F2600722F9F2F01302000A0000030A100013029
:103F3600F6070030F73DD42F760884007708850011
:103F46000008F800F9017908003A0319AB2FD42FBD
:103F560078082B3A03199A2F063A0319952FD42F6E
:103F660076088400770885000008F80020002308FA
:103F7600F1002208F0000A30F2000030F3009B3115
:103F8600B7239F317108FA0078087002F900031C04
:103F9600FA037908303E2000A20000307A3DA300E3
:103FA6009A2F76088400770885000008D03EF8002E
:103FB600FF3003180030F900003079020A30031987
:103FC6007802031CE72FE82FB32F200020082104D6
:103FD600031DEE2FEF2FFB2F2209F8002309F9000E
:103FE600F80A0319F90A7808F6007908F700FF2F8E
:103FF6002308F7002208F600080023342534353458
:104006002E34313466342F34253433342E3431345F
:1040160066342F34253464342F34253464342F34F5
:10402600253464342F34253464342F3425346434F1
:104036002F34253464342A340D340A340034493498
:104046004E34463400344E3441344E3400346934F0
:104056006E34663400346E3461346E3400346C343D
:044066006634003488
:020000040001F9
:08000000FF3FFF3FFF3FFF3F00
:04000E00E43FFF3F8D
:00000001FF
