:04000000A6EF36F041
:106D4800CA84120000016C6B6B6B6A6B696B686BB1
:106D5800676B000EF86E0001B2EF36F00F0EC16ED1
:106D6800070E5C6ED00E5B6E9FEC38F0A4EC36F02C
:106D780000016B51E8EC36F00D0E0001666FAF0EA6
:106D8800656FB60EE82EFED7652FFCD7662FFAD7AB
:106D980000F00A0E00016B27000E6C236CBFDEEFBB
:106DA80036F06C5109E1650E6B5DD8A0DEEF36F068
:106DB800E0EF36F0BCEF36F0000E6C6F000E6B6F34
:106DC800BCEF36F000EF00F05B6E67C013F068C0F0
:106DD80014F069C015F06AC016F05B50016E026AC3
:106DE800036A046A010EC5EC37F001C00FF002C057
:106DF80010F003C011F004C012F08BEC3BF00FC090
:106E080028F010C029F011C02AF012C02BF0000E93
:106E18002C6E000E2D6EC80E2E6E420E2F6EBEEC1E
:106E280039F028C05CF029C05DF02AC05EF02BC0A4
:106E38005FF05CC051F05DC052F05EC053F05FC0BF
:106E480054F042EC37F0523452325132523452320A
:106E580051325150BE6E5CC051F05DC052F05EC000
:106E680053F05FC054F042EC37F0030E5116513A1C
:106E7800BD505118CF0B5118BD6E12005334543405
:106E88005A6E5A50D8A44BEF37F04DEF37F057EF02
:106E980037F0000E516E000E526E000E536E000E4B
:106EA800546EC4EF37F051C055F052C056F053C07D
:106EB80057F054C058F0200E67EF37F0D89058328A
:106EC800573256325532E82E62EF37F05550596E28
:106ED800538EFF0E5116FF0E5216FF0E5316000E5C
:106EE8005416960E5A5E5ABE7EEF37F07CEF37F096
:106EF80094EF37F05A50800A970FD8B086EF37F0E2
:106F080088EF37F08AEF37F04DEF37F0D8905432EA
:106F18005332523251325A3E8AEF37F0ACEF37F0E3
:106F28001F0E5A649AEF37F09CEF37F0A4EF37F052
:106F38004DEF37F0D89051365236533654365A06FC
:106F48005A50D8A4AAEF37F0ACEF37F09EEF37F0DD
:106F58005950D8B4B2EF37F0B4EF37F0BCEF37F090
:106F6800541E531E521E516C000E5222532254229C
:106F780051C051F052C052F053C053F054C054F0B5
:106F88001200096E0950D8B4CCEF37F0CEEF37F0C5
:106F9800F0EF37F004BED5EF37F0D3EF37F0F0EF6E
:106FA80037F001C005F002C006F003C007F004C0C6
:106FB80008F0051E061E071E081E052A000E0622DA
:106FC8000722082205C00BF006C00CF007C00DF020
:106FD80008C00EF0F8EF37F001C00BF002C00CF05B
:106FE80003C00DF004C00EF001500210031004108D
:106FF800D8A401EF38F003EF38F00DEF38F0000EA9
:10700800016E000E026E000E036E000E046E9EEFFF
:1070180038F0960E0A6E17EF38F00A2AD8900E321A
:107028000D320C320B32000E0B14056E000E0C14D0
:10703800066E000E0D14076EFE0E0E14086E055037
:10704800061007100810D8A42CEF38F02EEF38F0EF
:1070580011EF38F03CEF38F00A2A010E0B26000E2B
:107068000C220D220E22D8900E320D320C320B3229
:10707800000E0B14056E000E0C14066E000E0D1497
:10708800076EFF0E0E14086E055006100710081044
:10709800D8A451EF38F053EF38F030EF38F05BEF09
:1070A80038F00A06D8900B360C360D360E360DBE63
:1070B80060EF38F062EF38F06AEF38F0020E0A60DD
:1070C80068EF38F06AEF38F055EF38F00AB06FEF34
:1070D80038F071EF38F072EF38F00D9ED8900A3220
:1070E8000AC005F0066A076A086A05C008F0076A58
:1070F800066A056A05500B1206500C1207500D124D
:1071080008500E120950D8B48CEF38F08EEF38F0D2
:1071180096EF38F004BE95EF38F093EF38F096EF1D
:1071280038F00E8E0BC001F00CC002F00DC003F059
:107138000EC004F01200B0EF38F0010E0001646FC9
:10714800CAEF38F0040E0001646FCAEF38F0100E71
:107158000001646FCAEF38F0020E5D6E000E5E6EBD
:107168005E50000AD8B4BBEF38F0CAEF38F05D5073
:10717800000AD8B4A1EF38F0010AD8B4A6EF38F065
:10718800030AD8B4ABEF38F0CAEF38F09494BD5086
:10719800F00B0C09BD6ECA50FC0B0209CA6E000E3A
:1071A800136E000E146E800E156E400E166E5BC0C8
:1071B80001F05CC002F0036A046A000EC5EC37F007
:1071C80001C00FF002C010F003C011F004C012F0AB
:1071D8008BEC3BF00FC060F010C061F011C062F0A2
:1071E80012C063F0000E456E000E466E800E476EAC
:1071F800BF0E486E00016451016E026A036A046A98
:10720800010EC5EC37F001C013F002C014F003C042
:1072180015F004C016F060C00FF061C010F062C035
:1072280011F063C012F08BEC3BF00FC02CF010C0D3
:107238002DF011C02EF012C02FF0800E286E960E81
:10724800296E980E2A6E4B0E2B6EBEEC39F028C0B4
:1072580041F029C042F02AC043F02BC044F0A0EC12
:107268003DF041C051F042C052F043C053F044C019
:1072780054F042EC37F05150CB6E000E136E000EF6
:10728800146E800E156E3F0E166E5BC001F05CC06A
:1072980002F0036A046A000EC5EC37F001C00FF073
:1072A80002C010F003C011F004C012F08BEC3BF0E8
:1072B8000FC060F010C061F011C062F012C063F03E
:1072C800800E286E960E296E980E2A6E4B0E2B6E27
:1072D80000016451016E026A036A046A010EC5EC7A
:1072E80037F001C013F002C014F003C015F004C059
:1072F80016F060C00FF061C010F062C011F063C0FA
:1073080012F08BEC3BF00FC02CF010C02DF011C028
:107318002EF012C02FF0BEEC39F028C067F029C05B
:1073280068F02AC069F02BC06AF067C051F068C0E5
:1073380052F069C053F06AC054F042EC37F052344E
:10734800523251325234523251325150BE6E67C0AD
:1073580051F068C052F069C053F06AC054F042EC72
:1073680037F0030E5116513ABD505118CF0B511832
:10737800BD6E12002B50800B386E2B502B243F6EA5
:107388002AAEC9EF39F0CBEF39F0CCEF39F03F80B6
:107398003F50D8B4D2EF39F0D4EF39F0E9EF39F0F3
:1073A8003F28D8A4DAEF39F0DCEF39F0E4EF39F010
:1073B800000E286E000E296E000E2A6E000E2B6E2F
:1073C8002A8E000E2B6EF1EF39F0000E286E000E9B
:1073D800296E000E2A6E000E2B6E2F50800B381A65
:1073E8002F502F24406E2EAEFCEF39F0FEEF39F00F
:1073F800FFEF39F040804050D8B405EF3AF007EF7E
:107408003AF01CEF3AF04028D8A40DEF3AF00FEF0D
:107418003AF017EF3AF0000E2C6E000E2D6E000EAB
:107428002E6E000E2F6E2E8E000E2F6E24EF3AF069
:10743800000E2C6E000E2D6E000E2E6E000E2F6E9E
:107448002C502D102E102F10D8A42DEF3AF02FEF1E
:107458003AF047EF3AF0000E286E000E296E000E43
:107468002A6E000E2B6E800E2A127F0E2B123850B9
:107478002B1228C028F029C029F02AC02AF02BC0D6
:107488002BF08AEF3BF03F50D8A44DEF3AF04FEF86
:107498003AF059EF3AF0000E286E000E296E000EF1
:1074A8002A6E000E2B6E8AEF3BF040503FC030F042
:1074B800316A305E000E315A7F0E3024396E000E6C
:1074C80031203A6E28C034F029C035F02AC036F091
:1074D8002BC037F0000E286E000E296E000E2A6EA3
:1074E800000E2B6E000E3B6E000E3C6E000E3D6EC5
:1074F800000E3E6E000E406EBAEF3AF04050D8B41F
:1075080088EF3AF08AEF3AF0A1EF3AF0D8903436A3
:10751800353636363736D890283629362A362B3639
:107528003EAE99EF3AF09BEF3AF09CEF3AF02880A4
:10753800D8903B363C363D363E362C50345C2D5088
:1075480035582E5036582F503758D8A0AEEF3AF04D
:10755800B0EF3AF0B9EF3AF03E8C2C50345E2D5033
:10756800355A2E50365A2F50375A402A190E406431
:10757800C0EF3AF0C2EF3AF082EF3AF034503510EB
:1075880036103710D8B4CBEF3AF0CDEF3AF0E5EF3C
:107598003AF03B80E5EF3AF0D890283629362A367B
:1075A8002B363EAEDAEF3AF0DCEF3AF0DDEF3AF0A8
:1075B8002880D8903B363C363D363E363906D8A032
:1075C8003A062AAEEAEF3AF0ECEF3AF0D0EF3AF0AA
:1075D800000E406E3EAEF3EF3AF0F5EF3AF019EFD9
:1075E8003BF0FF0E3B14306EFF0E3C14316EFF0E65
:1075F8003D14326E7F0E3E14336E3050311032100F
:107608003310D8B40AEF3BF00CEF3BF010EF3BF02F
:10761800010E406E19EF3BF028A015EF3BF017EF75
:107628003BF019EF3BF00CEF3BF04050D8B41FEFA4
:107638003BF021EF3BF045EF3BF0010E2826000E12
:1076480029222A222B222BA02CEF3BF02EEF3BF0F5
:1076580045EF3BF028C030F029C031F02AC032F0A5
:107668002BC033F03334333232323132303230C01F
:1076780028F031C029F032C02AF033C02BF0394A43
:107688003A2A3ABE50EF3BF03A5008E13928D8A0E0
:1076980050EF3BF052EF3BF05DEF3BF0000E3A6EDF
:1076A8003968000E286E000E296E000E2A6E000E34
:1076B8002B6E3ABE6AEF3BF03A5006E13904D8B077
:1076C80068EF3BF06AEF3BF078EF3BF0000E3A6E64
:1076D800000E396E000E286E000E296E000E2A6EFE
:1076E800000E2B6E000E386E39C03FF03FA07FEFC2
:1076F8003BF081EF3BF084EF3BF02A8E85EF3BF0C7
:107708002A9ED8903F302B6E3BEF3AF01200125071
:10771800800B1B6E12501224216E11AE96EF3BF0B7
:1077280098EF3BF099EF3BF021802150D8B49FEFC0
:107738003BF0A1EF3BF0B4EF3BF02128D8A4A7EF32
:107748003BF0A9EF3BF0B1EF3BF0000E0F6E000EDF
:10775800106E000E116E000E126E118EBCEF3BF013
:10776800000E0F6E000E106E000E116E000E126EDF
:107778001650800B1B1A16501624206E15AEC7EF34
:107788003BF0C9EF3BF0CAEF3BF020802050D8B463
:10779800D0EF3BF0D2EF3BF0E5EF3BF02028D8A448
:1077A800D8EF3BF0DAEF3BF0E2EF3BF0000E136E60
:1077B800000E146E000E156E000E166E158EEDEF8F
:1077C8003BF0000E136E000E146E000E156E000EC8
:1077D800166E2050D8B4F3EF3BF0F5EF3BF0FDEF19
:1077E8003BF02150D8A4FBEF3BF0FDEF3BF007EF57
:1077F8003CF0000E0F6E000E106E000E116E000EA3
:10780800126E9FEF3DF015500F02F3CF26F0F4CF24
:1078180027F026501C6E1D6A1E6A1F6A2750226EAA
:10782800236A246A256A14501002F3CF26F0F4CF95
:1078380027F026501C26000E1D221E221F2227502C
:107848002226000E23222422252213501102F3CFD0
:1078580026F0F4CF27F026501C26000E1D221E22EB
:107868001F2227502226000E2322242225221EC052
:107878001FF01DC01EF01CC01DF01C6A1350100222
:10788800F3CF26F0F4CF27F026501C2627501D22D0
:10789800000E1E22000E1F2214500F02F3CF26F0F6
:1078A800F4CF27F026501C2627501D22000E1E223A
:1078B800000E1F221EC01FF01DC01EF01CC01DF0B0
:1078C8001C6A13500F02F3CF26F0F4CF27F026508E
:1078D8001C2627501D22000E1E22000E1F221550A6
:1078E8001002F3CF26F0F4CF27F026502226275097
:1078F8002322000E2422000E252214501102F3CF59
:1079080026F0F4CF27F02650222627502322000EF7
:107918002422000E252215501102F3CF26F0F4CFB1
:1079280027F02650176E2750186E196A1A6A19C060
:107938001AF018C019F017C018F0176A1750222645
:1079480018502322195024221A5025221CC017F03F
:107958001DC018F01EC019F01FC01AF0190EBAEF9A
:107968003CF0D8901A32193218321732E82EB5EF97
:107978003CF01750222618502322195024221A505E
:1079880025221EC01FF01DC01EF01CC01DF01C6A61
:10799800205021C017F0186A1726000E1822820EF0
:1079A8001724266EFF0E1820276EF0EF3CF0D890B3
:1079B80022362336243625361FAEE5EF3CF0E7EFB6
:1079C8003CF0E8EF3CF02280D8901C361D361E367D
:1079D8001F362606D8A0270624AEF5EF3CF0F7EFB1
:1079E8003CF0DBEF3CF0000E206E1FAEFEEF3CF0EB
:1079F80000EF3DF024EF3DF0FF0E1C14176EFF0E54
:107A08001D14186EFF0E1E14196E7F0E1F141A6EA9
:107A18001750181019101A10D8B415EF3DF017EFB9
:107A28003DF01BEF3DF0010E206E24EF3DF022A04B
:107A380020EF3DF022EF3DF024EF3DF017EF3DF051
:107A48002050D8B42AEF3DF02CEF3DF050EF3DF038
:107A5800010E2226000E23222422252225A037EFFC
:107A68003DF039EF3DF050EF3DF022C017F023C054
:107A780018F024C019F025C01AF01A341A32193235
:107A88001832173217C022F018C023F019C024F09A
:107A98001AC025F0264A272A27BE5BEF3DF027505B
:107AA80008E12628D8A05BEF3DF05DEF3DF067EFD9
:107AB8003DF0000E226E000E236E800E246E7F0EA7
:107AC800256E95EF3DF027BE74EF3DF0275006E197
:107AD8002604D8B072EF3DF074EF3DF080EF3DF032
:107AE800000E226E000E236E000E246E000E256E10
:107AF800000E1B6E95EF3DF026C021F0FF0E2216FA
:107B0800FF0E23167F0E2416000E251621A08FEFD8
:107B18003DF091EF3DF092EF3DF0248ED89021306A
:107B2800256E1B50251222C00FF023C010F024C070
:107B380011F025C012F012004450800B4D6E4450D5
:107B480044244F6E43AEABEF3DF0ADEF3DF0AEEFEA
:107B58003DF04F804F50D8B4B4EF3DF0B6EF3DF054
:107B6800CBEF3DF04F28D8A4BCEF3DF0BEEF3DF081
:107B7800C6EF3DF0000E416E000E426E000E436EE1
:107B8800000E446E438E000E446ED3EF3DF0000E9F
:107B9800416E000E426E000E436E000E446E485059
:107BA800800B4E6E4D504E18D8B4DDEF3DF0DFEF30
:107BB8003DF0E0EF3DF04D8C485048244E6E47AE06
:107BC800E8EF3DF0EAEF3DF0EBEF3DF04E804E5030
:107BD800D8B4F1EF3DF0F3EF3DF008EF3EF04E285A
:107BE800D8A4F9EF3DF0FBEF3DF003EF3EF0000EB7
:107BF800456E000E466E000E476E000E486E478EAC
:107C0800000E486E10EF3EF0000E456E000E466EF8
:107C1800000E476E000E486E4F504E5CD8B017EFFE
:107C28003EF019EF3EF040EF3EF04DAC1EEF3EF057
:107C380020EF3EF022EF3EF0800E4D1A4FC050F07C
:107C48004EC04FF050C04EF041C050F045C041F01A
:107C580050C045F042C050F046C042F050C046F017
:107C680043C050F047C043F050C047F044C050F004
:107C780048C044F050C048F0000E506E4F504EC0FF
:107C880049F04A6A495E000E4A5A4ABE55EF3EF02C
:107C98004A5009E11A0E495CD8A055EF3EF057EF5B
:107CA8003EF08EEF3EF04150421043104410D8A4ED
:107CB80060EF3EF063EF3EF0010E64EF3EF0000E21
:107CC800506E000E416E000E426E000E436E000EA6
:107CD800446E4EC04FF097EF3EF050A076EF3EF066
:107CE80078EF3EF07EEF3EF0D89050300109506EAC
:107CF80080EF3EF0D890503241A085EF3EF087EFFC
:107D08003EF088EF3EF0508E4434443243324232E3
:107D180041324F2A4E504F5CD8A095EF3EF097EF76
:107D28003EF071EF3EF04DBC9CEF3EF09EEF3EF012
:107D3800DEEF3EF04F50D8A4A4EF3EF0A6EF3EF0A1
:107D4800B0EF3EF0000E416E000E426E000E436E24
:107D5800000E446EFFEF3FF0455041264650422248
:107D6800475043224850442244A0BDEF3EF0BFEFA5
:107D78003EF06BEF3FF050A0C4EF3EF0C6EF3EF090
:107D8800CCEF3EF0D89050300109506ECEEF3EF067
:107D9800D890503241A0D3EF3EF0D5EF3EF0D6EF69
:107DA8003EF0508E443444324332423241324F2AFC
:107DB8006BEF3FF04550415C46504258475043589E
:107DC8004450800A496E4850800A4958D8B0EFEFAD
:107DD8003EF0F1EF3EF01CEF3FF04150455C496E3C
:107DE800425046584A6E435047584B6E4450485884
:107DF8004C6EFF0E4924416EFF0E4A20426EFF0E64
:107E08004B20436EFF0E4C20446E800E4D1A506C72
:107E18005050D8A412EF3FF014EF3FF024EF3FF09A
:107E2800010E4126000E42224322442224EF3FF055
:107E38004550415E4650425A4750435A4850445A6A
:107E48004150421043104410D8A42DEF3FF02FEFBB
:107E58003FF064EF3FF05050D8A435EF3FF037EFD4
:107E68003FF064EF3FF0000E416E000E426E000ED0
:107E7800436E000E446EFFEF3FF0D8904136423615
:107E88004336443650AE4BEF3FF04DEF3FF04EEFE8
:107E98003FF0418050A053EF3FF055EF3FF059EFCE
:107EA8003FF0D88050365BEF3FF0D89050364F50B7
:107EB800D8B461EF3FF063EF3FF064EF3FF04F0657
:107EC80043AE69EF3FF06BEF3FF041EF3FF0000E3C
:107ED8004E6E50AE72EF3FF074EF3FF08CEF3FF014
:107EE80050C049F07F0E4916D8B47DEF3FF07FEFC0
:107EF8003FF083EF3FF0010E4E6E8CEF3FF041A054
:107F080088EF3FF08AEF3FF08CEF3FF07FEF3FF0D4
:107F18004E50D8B492EF3FF094EF3FF0BFEF3FF0F0
:107F2800010E4126000E42224322442244A09FEF24
:107F38003FF0A1EF3FF0BFEF3FF041C049F042C032
:107F48004AF043C04BF044C04CF04C344C324B32F6
:107F58004A32493249C041F04AC042F04BC043F06E
:107F68004CC044F04F28D8B4BCEF3FF0BEEF3FF010
:107F7800BFEF3FF04F2A4F28D8B4C5EF3FF0C7EF07
:107F88003FF0CFEF3FF04F50D8A4CDEF3FF0CFEF09
:107F98003FF0E1EF3FF0000E416E000E426E000E22
:107FA800436E000E446E4F50D8A4DDEF3FF0DFEF74
:107FB8003FF0E1EF3FF0000E4D6E4FA0E6EF3FF0CF
:107FC800E8EF3FF0EBEF3FF0438EECEF3FF0439EDE
:107FD800D8904F30446E4DAEF4EF3FF0F6EF3FF0DF
:107FE800F7EF3FF0448E41C041F042C042F043C039
:087FF80043F044C044F0120004
:020000040020DA
:08000000FFFFFFFFFFFFFFFF00
:020000040030CA
:0E000000000C191EFF0185FF0FC00FE00F401E
:00000001FF
