:04000000FEEFFFF020
:1026000000443300D43000DC32004226005429005C
:10261000062B00B628002C3300DA3300D63300280E
:1026200031007C33008433001E33007433001033D8
:10263000006A2C00F62B0002330069536562617357
:1026400000002DEC19F00009D8B429EF13F02BEF9E
:1026500013F067EF13F038EF13F096EC19F0B2EFC8
:1026600013F0EDEC19F0B2EF13F0000EB2EF13F02F
:1026700019C537F51AC538F521EE0AF102D84BEF26
:1026800013F00500FA6EDE50FD6EDE50FE6EDE5079
:10269000FF6EFA501200396E3A6A3A50000AD8B406
:1026A00054EF13F035EF13F03950010AD8B435EF79
:1026B00013F0030AD8B42DEF13F0010AD8B431EFA8
:1026C00013F0070AD8B435EF13F035EF13F022EC0E
:1026D00019F00009D8B46FEF13F071EF13F0B1EFF8
:1026E00013F02A50030B0009D8B479EF13F07BEFF5
:1026F00013F087EF13F0010E396E2A50030B3A6E78
:1027000039503A5E2A503A18FC0B3A182A6E61008A
:1027100090F4D9F4610094F4DAF4DF503D6E244A69
:10272000252A2606D8A0270626502710D8A49BEFD6
:1027300013F09DEF13F0A5EF13F083EC15F0396E55
:1027400039503B6E3C6AA9EF13F0000E3C6E030E4D
:102750003B6E3BC53EF53D50A7EC19F03E50B2EF45
:1027600013F0030E1200000EC26E000EC16E000EBA
:10277000BE6E000EC36E000EBF6E000EC06E070E62
:10278000CA6ECB68C668F90EC76EC868C96804010E
:1027900018691069F90E086F070E206F2869006923
:1027A000000E196F000E296F000E216F000E096FC9
:1027B000000E016F000E116F000E0201896F000EF6
:1027C000886F000E876F000E866F000E0401226F67
:1027D000000E2A6F000E026F060E0A6F180E126F9F
:1027E000000E1A6F03690B6913691B69070E236FCB
:1027F0002B6904690C6914691C690F0E246F2C691C
:102800000A0E0201706F370E0A6F380E0B6F090E39
:10281000716F12002C6E010E2D6E2AB612EF14F09D
:1028200014EF14F059EF14F02CC523F52A942A86DE
:10283000FC0E2A160F0E286E010E226EF40E216E6B
:102840002A88E20E016E330E026E000E036E000E39
:10285000136E000E146EE20E046E330E056E000E43
:10286000066E000E156E000E166EE20E076E330E2B
:10287000086E000E096E000E176E000E186EE20E46
:102880000A6E330E0B6E000E0C6E000E196E000EEB
:102890001A6EDE0E0D6E330E0E6E000E0F6E000EF3
:1028A0001B6E000E1C6EC6EC19F055EC18F0000EF5
:1028B0002D6E2D5012002A887CEF14F0D9EC19F0FF
:1028C000080EA9EF14F0D9EC19F0070EA9EF14F0D7
:1028D0002628ACEC19F0040EA9EF14F0070E281806
:1028E000D8B475EF14F077EF14F079EF14F0DCEC56
:1028F00019F00F0EA9EF14F013C537F514C538F50C
:1029000002D88DEF14F00500FA6E0150FD6E0250F2
:10291000FE6E0350FF6EFA501200396E3A6A3A505A
:10292000000AD8B496EF14F06EEF14F03950010A93
:10293000D8B46EEF14F0030AD8B463EF14F0010AB0
:10294000D8B45EEF14F0070AD8B468EF14F06EEF55
:1029500014F0120038EC19F00009D8A4B2EF14F00A
:10296000B4EF14F0B7EF14F0040EF5EF14F02A50A2
:10297000030B0009D8B4BFEF14F0C1EF14F0CDEF92
:1029800014F0010E3B6E2A50030B3C6E3B503C5E34
:102990002A503C18FC0B3C182A6E2606D8A02706A5
:1029A00026502710D8B4D7EF14F0D9EF14F0E6EF83
:1029B00014F0D6EC19F0610090F4D9F4610094F4AD
:1029C000DAF4DF6E244A252AB4EF14F05BEC14F03D
:1029D0003D6ED6EC19F0610090F4D9F4610094F4E6
:1029E000DAF4DF6E244A252A3D501200316E2C5055
:1029F0002D102E10D8B4FFEF14F001EF15F022EFD8
:102A000015F03150030D010EF324D96E050EF4209C
:102A1000DA6E6100B0F4DEF46100B4F4DEF461005B
:102A2000B8F4DEF43150020D130EF324D96E050E06
:102A3000F420DA6E6100BCF4DEF46100C0F4DDF471
:102A40003CEF15F03150030D010EF324D96E050E45
:102A5000F420DA6EE20EDE6E330EDE6E000EDE6EF7
:102A60003150020D130EF324D96E050EF420DA6EE8
:102A7000000EDE6E000EDD6E1200000E64EC19F02A
:102A8000020E4E6E380E4D6EAD0EE82EFED74D2E58
:102A9000FCD74E2EFAD700F0030E3FEC18F0560E7E
:102AA0004D6E300EE82EFED74D2EFCD700D0030E13
:102AB0003FEC18F0E40E00D000D0E82EFCD700D098
:102AC00000D0030E3FEC18F0020E3FEC18F0280E79
:102AD0003FEC18F0C50EE82EFED700F0070E2B6E67
:102AE0002B5008093FEC18F0C50EE82EFED700F079
:102AF000010E3FEC18F02A0E4D6E8E0EE82EFED71A
:102B00004D2EFCD712002A8896EF15F0D9EC19F05B
:102B1000070EBFEF15F02628ACEC19F0030EBFEF3F
:102B200015F0DCEC19F00A0EBFEF15F013C537F500
:102B300014C538F502D8A7EF15F00500FA6E01505C
:102B4000FD6E0250FE6E0350FF6EFA501200396E99
:102B50003A6A3A50000AD8B4B0EF15F091EF15F088
:102B60003950010AD8B491EF15F0030AD8B486EFB2
:102B700015F0060AD8B48BEF15F091EF15F012009E
:102B8000436E43500AEC14F00009D8B4CAEF15F0B4
:102B9000CCEF15F0C1EF15F0920E326E2F0E336EA2
:102BA000000E346E420E356E050E366EF8EC18F0DF
:102BB000410E2C6E050E2D6E000E2F6E010E2E6E28
:102BC000BAEC18F0000E326E000E336E000E346E4A
:102BD000000E356E000E366EDCEC18F0B6EC19F017
:102BE0007FEC18F0E806D8B4F8EF15F0FAEF15F01E
:102BF000F0EF15F01200C6EC19F0020E296E0DEF81
:102C000016F096EC19F034EF16F0EDEC19F034EF05
:102C100016F088EC19F034EF16F015C537F516C527
:102C200038F521EE04F102D820EF16F00500FA6E17
:102C3000DE50FD6EDE50FE6EDE50FF6EFA5012006A
:102C4000396E3A6A3A50000AD8B429EF16F009EF03
:102C500016F03950020AD8B401EF16F0010AD8B4C0
:102C600005EF16F009EF16F01200FC0E2A16020E00
:102C7000296E2A9443EF16F0EBEC19F06AEF16F088
:102C80000F0E6AEF16F017C537F518C538F521EEA7
:102C900007F102D856EF16F00500FA6EDE50FD6E11
:102CA000DE50FE6EDE50FF6EFA501200396E3A6A48
:102CB0003A50000AD8B45FEF16F040EF16F03950E2
:102CC000020AD8B43CEF16F0010AD8B43CEF16F073
:102CD00040EF16F01200FAEC16F02A50030B000930
:102CE000D8B475EF16F077EF16F083EF16F02DECF1
:102CF00019F00009D8B47FEF16F081EF16F083EFDA
:102D000016F0100E286E2850030D010EF324F66EF7
:102D1000260EF420F76EF86A000EF82202D89EEF15
:102D200016F00500FA6E0900F550FD6E0900F55029
:102D3000FE6E0900F550FF6EFA501200286E120068
:102D4000486EA9EF16F04880BEEF16F04890BEEF2F
:102D500016F04550466E476A4750000AD8B4B3EFA4
:102D600016F0BEEF16F04650000AD8B4A6EF16F0E3
:102D7000010AD8B4A3EF16F0BEEF16F0485064EC89
:102D800019F04884485064EC19F04894485064ECB9
:102D900019F0A00EE82EFED71200B5A2D2EF16F061
:102DA000D4EF16F0D6EF16F0F9EF16F0B5A0DBEF82
:102DB00016F0DDEF16F0DFEF16F0F9EF16F0020176
:102DC0009AA5E5EF16F0E7EF16F0E9EF16F0F9EF48
:102DD00016F09AAFEEEF16F0F0EF16F0F2EF16F0F5
:102DE000F9EF16F097A9F7EF16F0F9EF16F0CDEF1F
:102DF00016F0120059EC19F00009D8B402EF17F0E0
:102E000004EF17F008EF17F0E5EC19F022EF17F0D8
:102E100043EC19F00009D8B410EF17F012EF17F0D7
:102E200016EF17F0DFEC19F022EF17F04EEC19F067
:102E30000009D8B41EEF17F020EF17F022EF17F0BB
:102E4000E2EC19F0120020EE02F03750D92638508B
:102E5000DA22610078F32CF5610074F32DF561003E
:102E6000DCF4D9F46100E0F4DAF4610078F32EF5D3
:102E7000610074F32FF5BAEC18F0000E326E000EFC
:102E8000336E000E346E000E356E000E366EF8ECAA
:102E900018F0020E12003F6E010E406E2AB453EF7E
:102EA00017F055EF17F06FEF17F02A84000E406E01
:102EB0002650ACEC19F03F50D8B461EF17F063EF37
:102EC00017F069EF17F0040E286E6AEC18F06DEF3A
:102ED00017F0030E286E6EEC19F0EAEC18F0405073
:102EE000120081EF17F0610034F5F6F4610038F557
:102EF000F7F4000EF86E0800F55029EC18F04D4A72
:102F00004E2A610034F5F6F4610038F5F7F4000E4E
:102F1000F86E0800F5500009D8A491EF17F093EF70
:102F200017F073EF17F0120078EC19F03DEC15F084
:102F30003A0E4D6E260E4E6E71EC17F0CB96C376A0
:102F4000520E506E2B0E4F6E000EE82EFED74F2EF7
:102F5000FCD7502EFAD700D09FEF17F0FEEFFFF00E
:102F6000D00EF66E330EF76E000EF86E01EE51F1D4
:102F700010EE05F00900F5C4EEF4E550E150FAE179
:102F800001EE01F12B0EEE6AE806FDE1000194EF7F
:102F900017F037C52CF538C52DF5000E2F6E010E34
:102FA0002E6EBAEC18F0000E326E000E336E000E6C
:102FB000346E000E356E000E366EF8EC18F0040E0E
:102FC000120037C52CF538C52DF5000E2F6E020EF8
:102FD0002E6EBAEC18F0000E326E000E336E000E3C
:102FE000346E000E356E000E366EF8EC18F0020EE0
:102FF000120037C52CF538C52DF5000E2F6E010EC9
:103000002E6EBAEC18F0000E326E000E336E000E0B
:10301000346E000E356E000E366EF8EC18F0020EAF
:10302000120037C52CF538C52DF5000E2F6E020E97
:103030002E6EBAEC18F0000E326E000E336E000EDB
:10304000346E000E356E000E366EF8EC18F0040E7D
:1030500012004C6E4C50F00B4A6E4CC549F50F0EE9
:1030600049164938F00B4B6E010E456E4A50A0ECE4
:1030700016F0010E456E4B50A0EC16F012004C6E8F
:103080004C50F00B4A6E4CC549F50F0E49164938A5
:10309000F00B4B6E000E456E4A50A0EC16F0000E81
:1030A000456E4B50A0EC16F01200020194BF5BEF8E
:1030B00018F05DEF18F069EF18F0000E9A6F000E2F
:1030C0009B6F000E976F8D69510E896F510E886F3F
:1030D000948F12002A50FC0B02092A6E2604271036
:1030E000D8A475EF18F077EF18F079EF18F05BECD3
:1030F00014F0D8802334A7EC19F0040E1200010E4E
:103100002C6E2AB486EF18F088EF18F092EF18F0C2
:103110002A962368C6EC19F006EC19F09CEC19F01D
:1031200029C52CF52C501200CDEC19F0CAEC19F081
:103130000009D8B49EEF18F0A0EF18F0A6EF18F031
:10314000000EACEC19F0000EA7EC19F0000E120006
:10315000000E0001606F000E616F000E636F000EC5
:10316000646F000E656F000E666F000E676F000ED5
:10317000686F12002AA8BFEF18F0C1EF18F0CAEF6D
:1031800018F02CC524F52DC525F52EC526F52FC51F
:1031900027F52A981200040E0201946F800E956F95
:1031A000180E966F030E9C6F000E9A6F000E9B6FA9
:1031B000000E976F8D69120032C52CF533C52DF5C1
:1031C00034C52EF535C52FF536C530F5020EF6ECB3
:1031D00014F01200F0EF18F0CDEC16F06BEC16F0D6
:1031E0002AB4F5EF18F0F7EF18F0ECEF18F0120032
:1031F00032C52CF533C52DF534C52EF535C52FF563
:1032000036C530F5000EF6EC14F01200A594A59624
:10321000A590A59202019B919B959B9F9B9D9B9343
:103220009793979597911200600E0001AD6F000E75
:10323000AF6F000EB36F080EB16F000EB06F000ECF
:10324000AC6F1200020199BB28EF19F02BEF19F0B7
:10325000010E2CEF19F0000E1200020195BB33EFA6
:1032600019F036EF19F0010E37EF19F0000E1200C9
:10327000020199B13EEF19F041EF19F0010E42EF52
:1032800019F0000E120002019AB549EF19F04CEF47
:1032900019F0010E4DEF19F0000E1200020197B95E
:1032A00054EF19F057EF19F0010E58EF19F0000E16
:1032B000120002019ABF5FEF19F062EF19F0010EE0
:1032C00063EF19F0000E1200446E000E416E445080
:1032D0005510426E270EC0EC15F012002A50FC0B60
:1032E00002092A6E23502324A7EC19F0030E1200C2
:1032F000A8EC18F0CBEC18F0B3EC13F014EC19F0C8
:103300001200B1EC19F02A94020E296E0F0E120071
:10331000B1EC19F02A94000E296E0F0E1200D0ECB9
:1033200019F0CDEC19F0A2EC19F012002650ACEC1B
:1033300019F06AEC18F012000201949F000E9A6FC7
:10334000998512002A94000E296E0F0E12002C6E21
:103350006100B0F48CF212002C6E6100B0F48DF2BA
:1033600012000201949F9985948F1200000E4BEC7D
:1033700017F01200D0EC19F0090E1200D3EC19F07E
:10338000040E1200D3EC19F0030E1200000E02011D
:103390009A6F120002018D5112000201949B1200DB
:1033A0000201958D12000201959D120002018B51C0
:1033B00012000201948D12000201949D120002017C
:1033C0009A95120002019799120002019A9F120029
:0533D000004014540848
:1033D600010E1200020E1200050E1200010E12005E
:020000040001F9
:04FFFC00B0EF17F05B
:020000040020DA
:10000000FF0FFF0FFF0FFF0FFF0FFF0FFF0FFF0F80
:10001000FF0FFF0FFF0FFF0FFF0FFF0FFF0FFF0F70
:10002000FF0FFF0FFF0FFF0FFF0FFF0FFF0FFF0F60
:10003000FF0FFF0FFF0FFF0FFF0FFF0FFF0FFF0F50
:020000040030CA
:0A0000008CFFF7FF9FFFFFFFFFFFDB
:00000001FF
