:10000000803102288731D82FF7007108F500700879
:10001000F4007708F2007208F600760886000130D6
:100020008700F60A7508F3007408F200F40A031951
:10003000F50A72088400730885000008C03F89082B
:10004000031D232824280D280800F8007808031928
:100050002A282B283F28F31F2E282F283F287009F5
:10006000FA007109FB007209FC007309FD00FA0A2D
:100070000319FB0A0319FC0A0319FD0A4728730830
:10008000FD007208FC007108FB007008FA0073089C
:10009000720471047004031D4E284F285828003044
:1000A000F3000030F2000030F1000030F000D02802
:1000B0009630F4007408F90068280130F4007408E0
:1000C000F9070130FD36FC0CFB0CFA0C890B622899
:1000D000FE307D05031D6D286E285D2882280130C5
:1000E000F4007408F9070130FA070030FB3D0030D6
:1000F000FC3D0030FD3D0130FD36FC0CFB0CFA0CE4
:10010000890B7C28FF307D05031D872888286F28F0
:1001100092280130F9020130FA35FB0DFC0DFD0D7E
:10012000890B8C28FC1B952896289C280230790284
:1001300003189B289C28892879189F28A028A8287C
:10014000FF30FA05FF30FB057F30FC05FF30FD0571
:100150000310F90C7908F400F501F601F7011830E5
:10016000F435F50DF60DF70D890BB0287408FA0477
:100170007508FB047608FC047708FD047808031969
:10018000C228C328C828F31FC628C728C828FD17B7
:100190007D08F3007C08F2007B08F1007A08F0008B
:1001A00008002100B600B401B50120004908210073
:1001B000CA00200048082100C9002000470821008B
:1001C000C800200046082100C7004A082000BD00E2
:1001D000210049082000BC00210048082000BB0085
:1001E000210047082000BA000030C1000030C000E4
:1001F0000030BF000030BE0094314D248031031820
:10020000022903291C2901302100B4000030B50067
:100210004A08F3004908F2004808F1004708F000D6
:100220009E317F26803173082100CA007208C90000
:100230007108C8007008C7002100CD01CE01660812
:10024000BA006508B90034083504031D2829292996
:100250002D29691D2C292D294B2934083504031D0E
:100260003229332938292B30A0000030A1003C2945
:100270002D30A0000030A10020082000CB004B084A
:100280002300A00001302100CD070030CE3DFF301B
:10029000B907FF30BA3D4A08F3004908F2004808A0
:1002A000F1004708F0009331CE23803170037104D0
:1002B000031D5B295C299F2920004A08BF3ECB0013
:1002C000FF3003180030CC0000304C021A30031904
:1002D0004B0203186C296D2978291730F000A030E3
:1002E000F10021004D08A03E803104208031822998
:1002F0001F30F000A030F10021004D08A03E8031F9
:1003000004208031FD302100B907FF30BA3DA03014
:100310002000CB004B08A40021003A082000A600D2
:10032000210039082000A50021003608923145221D
:10033000803120002508C7002408C600D72F2100DF
:100340004A08F3004908F2004808F1004708F000A5
:100350009331CE23803170087104031DB029B12977
:10036000F42920004A08BF3ECB00FF3003180030BC
:10037000CC0000304C021A3003194B020318C1297B
:10038000C229CD291B30F000A030F10021004D081A
:10039000A03E803104208031D7292330F000A030E6
:1003A000F10021004D08A03E803104208031FD3055
:1003B0002100B907FF30BA3DA0302000CB004B0828
:1003C000A40021003A082000A600210039082000DE
:1003D000A5002100360892314522803120002508F1
:1003E000C7002408C600D72F3F302100D20080303C
:1003F000D1000030D0000030CF00CB01CC014A0842
:10040000F3004908F2004808F1004708F000003006
:10041000F7000030F6000030F5000030F4009031B5
:10042000F92080310318152A162ACB2A472A413091
:100430002000A3002030A2000030A1000030A00066
:10044000210052082000A700210051082000A6002A
:10045000210050082000A50021004F082000A40022
:100460008B312B238031200023082100D200200073
:1004700022082100D100200021082100D000200006
:1004800020082100CF000130CB070030CC3D2100F7
:100490004A082000BD00210049082000BC002100BE
:1004A00048082000BB00210047082000BA00413066
:1004B000A3002030A2000030A1000030A0002100E5
:1004C00052082000A700210051082000A6002100AA
:1004D00050082000A50021004F082000A4008B3107
:1004E0002B23803120002308C1002208C0002108EE
:1004F000BF002008BE0094314D2480310318812AAA
:10050000822A172AA42A4130F3002030F20000305A
:10051000F1000030F00021005208F7005108F60009
:100520005008F5004F08F40096314C2680317308CE
:100530002100D2007208D1007108D0007008CF00ED
:10054000FF30CB07FF30CC3D21004A082000BD0022
:10055000210049082000BC00210048082000BB0001
:10056000210047082000BA00210052082000C100E5
:10057000210051082000C000210050082000BF00C9
:1005800021004F082000BE0094314D248031031C0F
:10059000CA2ACB2A832A20004A08CB00CC014B0868
:1005A000F6004C08F7009E31D226803176082000F4
:1005B000CD004D082100BC003C082000CB004B08BA
:1005C0002100BB0067303C06031DE72AE82A0D2BFB
:1005D00067086804031DED2AEE2AF22A0130E700BD
:1005E0000030E8006808803A2000CB0080304B02E1
:1005F000031DFD2A0130210067020318002B012B87
:10060000072B06302100B7000030B800122B210064
:100610006808B8006708B700122BE81B102B112BD5
:10062000012B072B67303C06031D172B182B502B73
:100630004C08803A2000CB007F304B02031D232B57
:10064000FC3021004B02031C262B272B4A2B2100B8
:100650003708FF3E2000CB00FF302100383D20004E
:10066000CC004C08803ACD0021004C08803A200094
:100670004D02031D3F2B21004B0820004B02031CA1
:10068000422B432B4A2B66302000CB004B08210025
:10069000BB00502B65302000CB004B082100BB0075
:1006A0003808AD003708AC0067303C06031D592BF5
:1006B0005A2B642B66303B06031D5F2B602B682B87
:1006C000CC1F632B642B682B0130AC070030AD3D91
:1006D00066303B06031D6D2B6E2B862BCC1F712BBA
:1006E000722B7C2B3F30D2008030D1000030D00004
:1006F0000030CF00CB01CC0167303C060319812BC1
:10070000822B862B4B08AC074C08AD3DC501C601BA
:100710004A08C0004908BF004808BE004708BD009D
:100720005208B1005108B0005008AF004F08AE00A9
:10073000472C21005208F3005108F2005008F10044
:100740004F08F0004008F7003F08F6003E08F500AB
:100750003D08F40096314C26803173082000B0002B
:100760007208AF007108AE007008AD00883101203A
:100770008031200030082100C40020002F08210013
:10078000C30020002E082100C20020002D082100F7
:10079000C1004408F3004308F2004208F100410898
:1007A000F00093315A23803171082100B3007008A2
:1007B000B20044082000A700210043082000A60042
:1007C000210042082000A500210041082000A400CB
:1007D000210052082000A300210051082000A2009F
:1007E000210050082000A10021004F082000A00097
:1007F0008B312B23803120002308BD002208BC0050
:100800002108BB002008BA00210040082000C100D8
:1008100021003F082000C00021003E082000BF004A
:1008200021003D082000BE009F315227803120006A
:100830003D082100C00020003C082100BF0020002E
:100840003B082100BE0020003A082100BD004130D5
:10085000F3002030F2000030F1000030F0005208C8
:10086000F7005108F6005008F5004F08F4009631E3
:100870004C26803173082100D2007208D100710823
:10088000D0007008CF000130C5070030C63D4608D3
:10089000803A2000CB0021002D08803A20004B0236
:1008A000031D552C21002C084502031C582C592CE3
:1008B000992B40302000A300A030A2000030A100FE
:1008C0000030A000210052082000A700210051089C
:1008D0002000A600210050082000A50021004F089C
:1008E0002000A4008B312B2380312000230821001D
:1008F000C400200022082100C3002000210821009C
:10090000C200200020082100C10040082000BD00D6
:1009100021003F082000BC0021003E082000BB0051
:1009200021003D082000BA00210044082000C10039
:10093000210043082000C000210042082000BF0021
:10094000210041082000BE0094314D24803103185D
:10095000AA2CAB2CB52C00302100C4000030C30001
:100960000030C2000030C100DA2C21004008F30042
:100970003F08F2003E08F1003D08F0004408F7008F
:100980004308F6004208F5004108F4009031F920D0
:100990008031031CCC2CCD2CDA2C21003218D12C28
:1009A000D22CDA2C0030C4000030C3000030C2006A
:1009B0000030C10021004408F3004308F20042085F
:1009C000F1004108F0004A08F7004908F60048081D
:1009D000F5004708F4008831EC20803173082100CD
:1009E000C0007208BF007108BE007008BD0040085A
:1009F0002000BD0021003F082000BC0021003E086F
:100A00002000BB0021003D082000BA004130A300B7
:100A10002030A2000030A1000030A00021003108E9
:100A20002000A700210030082000A60021002F0888
:100A30002000A50021002E082000A4008B312B23CC
:100A4000803120002308C1002208C0002108BF0017
:100A50002008BE0094314D248031031C302D312DEF
:100A60006C2D01302100CB070030CC3D41302000FF
:100A7000A3002030A2000030A1000030A00021001F
:100A800031082000A700210030082000A600210026
:100A90002F082000A50021002E082000A4008B3183
:100AA0002B238031200023082100B10020002208E0
:100AB0002100B000200021082100AF002000200804
:100AC0002100AE0066303B06031D672D682D6C2D9E
:100AD0000130AC070030AD3D21003108D2003008B4
:100AE000D1002F08D0002E08CF0065303B06031937
:100AF0007A2D7B2D802D4C08AB004B08AA00822D4F
:100B0000AA01AB01A801A901A601A701C501C6015F
:100B1000AD2E21005208F3005108F2005008F100F8
:100B20004F08F0004008F7003F08F6003E08F500C7
:100B30003D08F40096314C26803173082000B00047
:100B40007208AF007108AE007008AD008831012056
:100B50008031200030082100C40020002F0821002F
:100B6000C30020002E082100C20020002D08210013
:100B7000C1004408F3004308F2004208F1004108B4
:100B8000F00093315A23803171082100B3007008BE
:100B9000B200691ACC2DCD2DE22D32083304031D8D
:100BA000D22DD32DE22D67303C06031DD82DD92D33
:100BB000E22DAB1FDC2DDD2DE22D0130A60700302C
:100BC000A73D3B2E28082904031DE72DE82D1F2EE5
:100BD000AB1FEB2DEC2D1F2E2E302000CB00210063
:100BE0004D08A03E86000130870020004B088100A0
:100BF00001302100CD070030CE3DFF30B907FF3076
:100C0000BA3D0130A8000030A9001F2E303020006E
:100C1000CB0021004D08A03E860001308700200057
:100C20004B08810001302100CD070030CE3DFF3060
:100C3000B907FF30BA3DFF30A607FF30A73D2608B1
:100C40002704031D242E252E062E3208303E2000B8
:100C5000CB0021004D08A03E860001308700200017
:100C60004B08810001302100CD070030CE3DFF3020
:100C7000B907FF30BA3D44082000A700210043080F
:100C80002000A600210042082000A5002100410804
:100C90002000A400210052082000A30021005108D8
:100CA0002000A200210050082000A10021004F08D0
:100CB0002000A0008B312B23803120002308BD00B1
:100CC0002208BC002108BB002008BA00210040080F
:100CD0002000C10021003F082000C00021003E0884
:100CE0002000BF0021003D082000BE009F31522798
:100CF000803120003D082100C00020003C08210078
:100D0000BF0020003B082100BE0020003A0821005F
:100D1000BD004130F3002030F2000030F10000301F
:100D2000F0005208F7005108F6005008F5004F088F
:100D3000F40096314C26803173082100D2007208ED
:100D4000D1007108D0007008CF00FF30AA07FF3033
:100D5000AB3D0130C5070030C63D4608803A200053
:100D6000CB0021002D08803A20004B02031DBB2E32
:100D700021002C0845020318BE2EBF2ECF2E2100C5
:100D80004E08803A2000CB0080304B02031DCB2E52
:100D90004B3021004D02031CCE2ECF2E892D210079
:100DA00028082904031DD52ED62EEB2E691ED92E18
:100DB000DA2EEB2E2E302000CB0021004D08A03E75
:100DC00086000130870020004B088100013021009F
:100DD000CD070030CE3D4D08A03E86000130870093
:100DE000810165303B06031DF62EF72EC02F4F30D4
:100DF000C5000030C6004508A03E860001308700CF
:100E00008101B401B501CC1F062F072F102F01302F
:100E1000B4000030B500CB09CC09CB0A0319CC0AC9
:100E20000230B7000030B8004B2FFF302100C5075B
:100E3000FF30C63D0A30F0000030F1004C08F300EE
:100E40004B08F2009131472180317008303E20007C
:100E5000CB0021004508A03E86000130870020001D
:100E60004B0881000A30F0000030F10021004C08EE
:100E7000F3004B08F2009231FB228031710821000F
:100E8000CC007008CB00FF30B707FF30B83DFF3013
:100E9000B907FF30BA3D4B084C04031D502F512FAA
:100EA000152F3808803A2000CB0080304B02031DFC
:100EB0005C2F01302100370203185F2F602F152FA0
:100EC000FF302100C507FF30C63D34083504031D3F
:100ED0006A2F6B2F702F2B30A2000030A300742FCD
:100EE0002D30A2000030A30022082000CB002100FA
:100EF0004508A03E86000130870020004B08810095
:100F0000FF302100B907FF30BA3DFF30C507FF3081
:100F1000C63D20004A08BF3ECB00FF30031800301A
:100F2000CC0000304C021A3003194B02031C992FDD
:100F30009A2FA02F65302100A4000030A500A52F16
:100F400045302100A4000030A50024082000CB007B
:100F500021004508A03E86000130870020004B0894
:100F60008100FF302100B907FF30BA3D4508A03E9F
:100F7000F0000130F1004D08A03E803104208031A6
:100F8000A0302000CB004B08A40021003A0820002C
:100F9000A600210039082000A50021003608923162
:100FA0004522803120002508C7002408C60008001B
:100FB000A83084009E3085002030860001308700F4
:100FC00014309E315F268731EE01DF30840000301F
:100FD00085000E309E31592687313430840001302F
:100FE00085000C309E3159268731A03084000130B5
:100FF000850050309E3159268731200095316C2D67
:101000000800220037082000C00022003608200017
:10101000BF00220035082000BE0022003408200056
:10102000BD003008C0002F08BF002E08BE002D08EC
:10103000BD003D08B1003E08B2003F08B3004008C3
:10104000B4001730B436B30CB20CB10C890B2228A3
:10105000FF303105B50000303205B6003508813E5D
:10106000BB00FF30363DBC003C08803AB100803008
:101070003102031D3D2817303B02031C4028412844
:101080004228EB282000BC1B46284728A428FF3014
:10109000B100FF30B2007F30B3000030B4003B0A33
:1010A0005528B437B30CB20CB10C890B5128340855
:1010B000BA003308B9003208B8003108B7003D085B
:1010C0003705B1003E083805B2003F083905B300C6
:1010D00040083A05B4003408330432043104031DD7
:1010E00072287328742841283D08B1003E08B200D8
:1010F0003F08B3004008B4001F30B436B30CB20C44
:10110000B10C890B7D2834083304320431040319EF
:101110008A288B2893283708BD073808BE3D390830
:10112000BF3D3A08C03D3709B1003809B20039095E
:10113000B3003A09B4003108BD053208BE053308D2
:10114000BF053408C005E3283D08B1003E08B200E1
:101150003F08B3004008B4001F30B436B30CB20CE3
:10116000B10C890BAD283408330432043104031D5B
:10117000BA28BB28C4280030C0000030BF000030AF
:10118000BE000030BD00E3283D08B1003E08B200BB
:101190003F08B3004008B4000130B135B20DB30DC3
:1011A000B40D890BCD2834083304320431040319FB
:1011B000DA28DB28E328BF30C0008030BF000030D1
:1011C000BE000030BD004008B0003F08AF003E0840
:1011D000AE003D08AD000800730880392000A00073
:1011E0002008F8007335A0002008FA00F21FF92843
:1011F000FA28FB287A147A080319FF2800291029F5
:101200007A0A031D042905290D290030F300003056
:10121000F2000030F1000030F000F217F30118295D
:101220000030F3000030F2000030F1000030F00038
:1012300077088039A0002008F9007908780603199A
:1012400022292329242978177735A0002008F900BE
:10125000F61F2B292C292D297914790803193129F6
:1012600032294229790A031D362937293F290030BE
:10127000F7000030F6000030F5000030F400F617FB
:10128000F7014A290030F7000030F6000030F50081
:101290000030F4007A08790203184F295029942964
:1012A000781F5329542958298030A0002008F806B7
:1012B0007A08A0002008FB007908A0002008FA00A6
:1012C0007B08A0002008F9007008A0002008FB009F
:1012D0007408A0002008F0007B08A0002008F4009B
:1012E0007108A0002008FB007508A0002008F1008C
:1012F0007B08A0002008F5007208A0002008FB0071
:101300007608A0002008F2007B08A0002008F60064
:101310007308A0002008FB007708A0002008F30055
:101320007B08A0002008F700FB017908A000A101BC
:101330002108A3007A082002A200031CA3032308AB
:10134000803AA40080302402031DA8291A3022020A
:10135000031CAB29AC29E6297308720471047004DC
:10136000031DB329B5290130B62900302000A000A3
:101370002008FB000030F3000030F2000030F100E4
:101380000030F0007908A0002008FA00EC297B1C4E
:10139000CA29CB29D2297B3601382000A000200899
:1013A000FB00D4290310FB0C701CD729D829D9299C
:1013B000FB1701302000A000F337F20CF10CF00C09
:1013C000A00BDC290130A0002008FA0779087A0276
:1013D000031CEB29EC29C729781BEF29F0292A2ABD
:1013E0007A08031DF429F529FE290030F3000030A6
:1013F000F2000030F1000030F0002A2B7408F007F2
:101400007508F13D7608F23D7708F33D731C092A13
:101410000A2AB72A7B1C0D2A0E2A152A7B36013888
:101420002000A0002008FB00172A0310FB0C701CF2
:101430001A2A1B2A1C2AFB1701302000A000F337B0
:10144000F20CF10CF00CA00B1F2A0130A0002008B8
:10145000FA07B72A7308803A2000A0007708803A7C
:101460002002031D3D2A76087202031D3D2A7508DD
:101470007102031D3D2A740870020318402A412A94
:10148000792AFF30A000FF30A100FF30A200FF301A
:10149000A30070087402A4007108753BA5007208CF
:1014A000763BA6007308773BA7002408A007250811
:1014B000A13D2608A23D2708A33D2308F3002208EA
:1014C000F2002108F1002008F0008030A000200880
:1014D000F806FB09FB0A7B08031D6F2A702A812A84
:1014E0000130F0070030F13D0030F23D0030F33DB7
:1014F000812A7408F0027508F13B7608F23B770800
:10150000F33B7308720471047004031D882A892A4E
:10151000B32A7B08031D8D2A8E2AB32A0030F300DC
:101520000030F2000030F1000030F0002A2B0130D2
:10153000F035F10DF20DF30D890B982AFB1FA12A4E
:10154000A22AA32A70147B1CA62AA72AAA2A03145B
:10155000FB0DAC2A0310FB0D7A080319B02AB12A3F
:10156000B32A0130FA02F21FB62AB72A972AF901E4
:10157000FB1FBB2ABC2ACA2A7B087F390319C12A50
:10158000C22AC52AF901F90ACA2A701CC82AC92A1E
:10159000CA2AC22A79080319CE2ACF2AFD2A013085
:1015A000F0070030F13D0030F23D0030F33D731C98
:1015B000DA2ADB2AFD2A70082000A0007108A100A9
:1015C0007208A2007308A3000130A400A337A20C84
:1015D000A10CA00CA40BE62A2308F3002208F200B9
:1015E0002108F1002008F0007A0A0319F82AF92AE4
:1015F000FD2A0130A0002008FA077A0A0319012BFE
:10160000022B072B7A08031D062B072B152B003006
:10161000F3000030F2000030F1000030F0007A08F2
:10162000031D132B142B152BF8017A1C182B192BC7
:101630001B2BF217202B7F302000A0002008F20582
:101640007A362000A0002008F300F81F282B292B51
:101650002A2BF3170800200023088039A800280847
:10166000AD002335A8002808B300A21F382B392B62
:101670003A2B3314330803193E2B3F2B4E2B330ADE
:10168000031D432B442B4C2B0030A3000030A20041
:101690000030A1000030A000A217562B0030A3009C
:1016A0000030A2000030A1000030A00027088039DF
:1016B000A8002808AD062735A8002808B200A61FF4
:1016C000622B632B642B321432080319682B692BAD
:1016D000782B320A031D6D2B6E2B762B0030A70062
:1016E0000030A6000030A5000030A400A617802B13
:1016F0000030A7000030A6000030A5000030A40094
:1017000032080319842B852B8A2B3308031D892B60
:101710008A2B932B0030A3000030A2000030A100E0
:101720000030A000812D2008A8002808F00026081D
:101730009F31B4278B3171082000B9007008B800C0
:101740003808A800A901AA01AB012B08B1002A089A
:10175000B0002908AF002808AE003908A800A90188
:10176000AA01AB012B08B7002A08B6002908B5006A
:101770002808B4002108A8002808F00025089F3197
:10178000B4278B3171082000B9007008B800380800
:10179000A800A901AA01AB012808AE072908AF3D9E
:1017A0002A08B03D2B08B13D3908A800A901AA01BB
:1017B000AB012808B4072908B53D2A08B63D2B0817
:1017C000B73D2208A8002808F00024089F31B4275C
:1017D0008B3171082000B9007008B8003808A800E3
:1017E000A901AA01AB012808AE072908AF3D2A08C4
:1017F000B03D2B08B13D3908A800A901AA01AB01F1
:101800002808B4072908B53D2A08B63D2B08B73D7E
:101810000830AE35AF0DB00DB10D890B092C210884
:10182000A8002808F00024089F31B4278B317108E4
:101830002000B9007008B8003808AE073908AF3D7D
:101840000030B03DB13D2008A8002808F000250870
:101850009F31B4278B3171082000B9007008B8009F
:101860003808AE073908AF3D0030B03DB13D083013
:10187000AE35AF0DB00DB10D890B382C2008A80086
:101880002808F00024089F31B4278B31710820000C
:10189000B9007008B8003808AE073908AF3D00300D
:1018A000B03DB13D2108A8002808F00026089F316E
:1018B000B4278B3171082000B9007008B8003808CF
:1018C000B4073908B53D0030B63DB73D2208A80041
:1018D0002808F00025089F31B4278B3171082000BB
:1018E000B9007008B8003808B4073908B53D0030B1
:1018F000B63DB73D2208A8002808F00026089F3111
:10190000B4278B3171082000B9007008B80038087E
:10191000A8003908A900AA01AB010830A835A90D13
:10192000AA0DAB0D890B8E2C2808B4072908B53DEC
:101930002A08B63D2B08B73D2E08A8002F08A9009D
:101940003008AA003108AB001830AB36AA0CA90C3D
:10195000A80C890BA52C2808B4072908B53D2A082E
:10196000B63D2B08B73D0830AE35AF0DB00DB10D0B
:10197000890BB42C33083207A800A901A90D280847
:10198000823EB800FF30293DB900DD2C0130B4356E
:10199000B50DB60DB70D890BC72CB11FD02CD12CAE
:1019A000D22C34140130AE35AF0DB00DB10D890B12
:1019B000D32CFF30B807FF30B93DB61FE02CE12C27
:1019C000C62CB201B11FE52CE62C022DFF302E05EE
:1019D000A800FF302F05A900FF303005AA007F3096
:1019E0003105AB002B082A04290428040319F92C1B
:1019F000FA2CFD2CB201B20A022D341C002D012D4F
:101A0000022DFA2C32080319062D072D2F2D013037
:101A1000B4070030B53D0030B63D0030B73D371C4F
:101A2000122D132D2F2D3408A8003508A9003608D3
:101A3000AA003708AB000130AC00AB37AA0CA90CE8
:101A4000A80CAC0B1D2D2B08B7002A08B6002908DE
:101A5000B5002808B4000130B8070030B93D390896
:101A6000803AA80080302802031D382DFF3038024C
:101A7000031C3B2D3C2D462D7F302000B7008030CD
:101A8000B6000030B5000030B400752D20003908D4
:101A9000803AA80080302802031D502D0130380202
:101AA0000318532D542D5F2D00302000B700003057
:101AB000B6000030B5000030B400AD01752D200037
:101AC0003808A8002808B300FF30B405FF30B5057A
:101AD0007F30B6050030B705331C6F2D702D712D8A
:101AE000B6173336A8002808B7002D08A800280824
:101AF000B7043708A3003608A2003508A10034084F
:101B0000A00008002000DD004E0886008701403F4D
:101B1000D000413FD10050088400510885001200D8
:101B2000253A031D942D952DDC2F4E088600870144
:101B30000130810741310318810A2100E501E601E6
:101B4000E901EA01FF30E700FF30E80020004E081D
:101B500086008701403FD000413FD10050088400FB
:101B60005108850012002A3A031DB72DB82DD82D33
:101B70004E08860087010130810741310318810A30
:101B80004F08860087010108840085010230810723
:101B9000003F2100E500013FE600E61FD02DD12DDA
:101BA0000C2E6914E509E609E50A0319E60A0C2E6C
:101BB0004E0886008701403FF600413FF700943110
:101BC000D8248D3177082100E6007608E500F02D55
:101BD0004E08860087010130810741310318810AD0
:101BE00020004E0886008701403FD000413FD100D1
:101BF00050088400510885000008D03ED200FF3014
:101C000003180030D300003053020A300319520287
:101C1000031C0B2E0C2EE82D20004E088600870199
:101C2000403FD000413FD10050088400510885005A
:101C300012002E3A031D1D2E1E2E852E2100E701B7
:101C4000E80120004E0886008701013081074131FC
:101C50000318810A4E0886008701403FD000413FAB
:101C6000D100500884005108850012002A3A031D53
:101C70003A2E3B2E512E4E088600870101308107F7
:101C800041310318810A4F0886008701010884004A
:101C9000850102308107003F2100E700013FE80095
:101CA000852E4E0886008701403FF600413FF70031
:101CB0009431D8248D3177082100E8007608E700B8
:101CC000692E4E08860087010130810741310318D3
:101CD000810A20004E0886008701403FD000413F26
:101CE000D10050088400510885000008D03ED20081
:101CF000FF3003180030D300003053020A300319BC
:101D00005202031C842E852E612E20004E08860070
:101D10008701403FD000413FD10050088400510866
:101D200085000008D200D3015208F6005308F700DE
:101D30009E31D2268D3176082000D4005408D90077
:101D400059080319A42EA52EE42E4E0886008701FB
:101D5000403FD000413FD10001305007840051087E
:101D60000318510A85000008D200D3015208F6007A
:101D70005308F7009E31D2268D3176082000D4001A
:101D80005408DA005A080319C62EC72EE42E4E084E
:101D900086008701403FD000413FD100023050070C
:101DA000840051080318510A85000008D200D301AD
:101DB0005208F6005308F7009E31D2268D3176087E
:101DC0002000D4005408DB0066305906031DE92EBC
:101DD000EA2E272F4E0886008701403FD000413F62
:101DE000D10050088400510885000008D200520834
:101DF000DC004E088600870101308107413103185D
:101E0000810A4F088600870101088400850104309B
:101E10008107003FD500013FD600023FD700033FB6
:101E2000D8005808C9005708C8005608C700550808
:101E3000C6005C08D0005008CA005D088031D1207F
:101E40008D3120004708CF004608CE00FF2F2730F5
:101E5000F000A030F1000230F2000030F300593001
:101E60009131ED218D3170087104031D382F392F08
:101E7000A62F20004E0886008701403FD000413F3A
:101E8000D10001305007840051080318510A850021
:101E90000008D2005208DC004E0886008701403F4F
:101EA000D000413FD100500884005108850000084F
:101EB000BF3ED200FF3003180030D3000030530281
:101EC0001A30031952020318662F672F782F4F0814
:101ED0008600870101088400850104308107003FE6
:101EE000D500013FD600023FD700033FD800882F1E
:101EF0004F088600870101088400850104308107AE
:101F0000003FD500013FD600023FD700033FD80075
:101F10004E08860087010230810741310318810A8B
:101F20005808C9005708C8005608C7005508C60019
:101F30005C08D0005008CA005D088031D1208D3186
:101F400020004708CF004608CE00FF2F20004E0893
:101F500086008701403FD000413FD10050088400F7
:101F6000510885001200253A031DB72FB82FD12F35
:101F70004E08860087010130810741310318810A2C
:101F80002530F0000030F1005D08D0005008F2006C
:101F900091319A218D3101302000CE000030CF00E8
:101FA000FF2F4E0886008701013081074131031859
:101FB000810ACE01CF01FF2F4E0886008701403FE6
:101FC000D000413FD100500884005108850000082E
:101FD000D200D3015208F0005308F1005D08D4008C
:101FE0005408F20091319A218D3120004E0886006C
:101FF00087010130810741310318810ACB2F080086
:102008002100D30068302000EC006C082100D400C7
:1020180053082000EC006C082100D500D701D80136
:10202800DD01DE0120006708DF006608DE00D4302D
:10203800EC006C08E000D530903159209031210037
:10204800570853072000EC006C0886000130870011
:1020580081010800F5003928FE30F30073082200DA
:102068008F05492822000F1449287208F300F4014B
:102078007408003A0319412849287308003A0319DB
:102088003028013A0319362849287508F300043026
:10209800F336890B4C2873089031C12090317508AC
:1020A8000F399031C120903108002000E3005F080B
:1020B800E5005E08E4002100E301E40177286430CC
:1020C800E1006108CE006008E2006208CF00630802
:1020D8008D318225903120004E082100E307200031
:1020E8004F082100E43D200064088400650885004D
:1020F8001200031D8028812863282100640820001D
:10210800DF00210063082000DE000800FA00AA288A
:1021180077087F3E9E3165269031C0287708BF3EFC
:102128009E3165269031C0287708933E9E316526FA
:102138009031C0287708D33E9E3165269031C0285B
:1021480077087F3E9E3165269031C0287A08F800CE
:10215800F9017908003A0319B228A4287808013A45
:1021680003198C28033A03199228013A031998286D
:10217800073A03199E28A4280800F1007118C528F9
:10218800C628CC28EF30F000700822008F05CE2832
:1021980022000F16F118D128D228D728DF30F000F6
:1021A80070088F05D8288F167119DB28DC28E128DC
:1021B800BF30F00070088F05E2280F17F119E528E5
:1021C800E628EB287F30F00070088F05EC288F1781
:1021D800FB30F00070088F050F15FB30F000700819
:1021E8008F05C830890BF628080000307005F80004
:1021F80000307105F90080307205FA007F307305F0
:10220800FB007B087A0479047804031D0C290D2946
:1022180015290030F3000030F2000030F1000030E2
:10222800F00000307405F80000307505F9008030C2
:102238007605FA007F307705FB007B087A0479047D
:102248007804031D2829292931290030F700003096
:10225800F6000030F5000030F40077087306031D1F
:102268003F2976087206031D3F2975087106031D6C
:102278003F29740870060319422943294529031088
:10228800462903140800F601F31F4B294C2953294A
:10229800F209F309F20A0319F30AF601F60AF11F23
:1022A800562957295C29F009F109F00A0319F10A9E
:1022B800700871040319612962298B29F501F50A4F
:1022C8006E290130F035F10D890B66290130F400D3
:1022D8007408F507F11F71297229652971087302BD
:1022E800031D782970087202031C7B297C29802928
:1022F8007008F2027108F33B0130F136F00C890BDB
:1023080081290130F502031D8A298B297229760853
:1023180003198F2990299529F209F309F20A03195B
:10232800F30A7308F1007208F00008007208031934
:102338009E299F29A4297208031DA329A429A92934
:102348007008883100209131EC297208083E860017
:102358008701160001040319B229B329D12972088B
:10236800083E86008701403FF300413FF4007208B1
:10237800023E86008701403FF500413FF60076089F
:10238800803AF7007408803A7702031DCD29730854
:1023980075020318D029D129EC297008F3007208B6
:1023A800860087017208023E840085010008010743
:1023B800F4007408860001308700730881007208F1
:1023C800023E860087010130810741310318810AE6
:1023D8000800F5007508F4007408F8007108F700A3
:1023E8007008F6000130F2020030F33B720A031D58
:1023F800012A730A031D012A022A112AF001F10198
:10240800442A0130F4007408F8070130F607003058
:10241800F73D0130F2020030F33B7808860087016F
:1024280001080319182A192A372A76088400770818
:10243800850012000319212A222A372A72087304F8
:102448000319272A282A372A76088400770885005E
:102458000008F4007808860087010108740603194B
:10246800362A372A052A78088600870176088400E4
:102478007708850000080102F000F101031CF10350
:1024880008002000AB002100691C4B2A4C2A552A61
:1024980020002B08FC007C08F80024089F31D7276F
:1024A80092312000A61B592A5A2A5F2A2608AA0018
:1024B8002508A900612AA901AA01A701A801752A6E
:1024C8002030F0000030F10020002B08FC007C08D0
:1024D800F20091319A21923101302000A707003093
:1024E800A83D2808803AFC002A08803A7C02031D8F
:1024F8007F2A29082702031C822A832A642A2100AA
:102508006918872A882A912A20002B08FC007C0851
:10251800F80024089F31D7279231200024089F31E2
:1025280019279231200029087007A4002A08713D54
:10253800A50008000A30F700770823008F050A3045
:10254800F700770821008F050A30F7007708220086
:102558008F052730F700F530890BB02AF70BB02A22
:10256800000003309031C12092310D30F700FC306B
:10257800890BBC2AF70BBC2A03309031C120923159
:102588004230890BC52A003203309031C120923184
:1025980002309031C120923128309E316526923127
:1025A8000630F7003030890BD72AF70BD72A0032CC
:1025B8000730F70077082000EE006E0808389E31D3
:1025C800652692310630F7003030890BE92AF70B7F
:1025D800E92A003201309E31652692310630F70033
:1025E8003030890BF52AF70BF52A00320800F6017E
:1025F800F11FFF2A002B072BF009F109F00A031934
:10260800F10AF601F60AF31F0A2B0B2B142BF20919
:10261800F309F20A0319F30A0130F4007408F60604
:10262800F701F8017008710403191B2B1C2B4B2BA5
:10263800F501F50A282B0130F035F10D890B202B17
:102648000130F4007408F507F11F2B2B2C2B1F2BDE
:102658000130F735F80D890B2D2B71087302031D16
:10266800372B70087202031C3A2B3B2B402B700847
:10267800F2027108F33B77140130F136F00C890B44
:10268800412B0130F502031D4A2B4B2B2C2B7608CE
:1026980003194F2B502B552BF709F809F70A031983
:1026A800F80A7808F1007708F00008000310720DA6
:1026B800730DF4007408FA007A08031D642B652B67
:1026C8006E2B0030F3000030F2000030F1000030D3
:1026D800F000CD2B7008F4007108F5007208F600C0
:1026E8007308F7001F30F736F60CF50CF40C890B5D
:1026F800772B7408F8007808F900F217FF30F00516
:10270800FF30F105FF30F2050030F3059630FA028C
:10271800FA1F8F2B902BA82B7A08803A973E031824
:10272800962B972B982B652B0130F336F20CF10C76
:10273800F00C890B992B0130F4007408FA07031D7B
:10274800A62BA72B982BBD2B20307A02031CAD2B70
:10275800AE2BB82B652B0130F035F10DF20DF30DD2
:10276800890BB02B0130FA027A08031DBC2BBD2B54
:10277800AF2B79080319C12BC22BCD2BF009F10916
:10278800F209F309F00A0319F10A0319F20A031905
:10279800F30A080022003B082000A50022003A089E
:1027A8002000A400220039082000A30022003808D5
:1027B8002000A2007308A5007208A4007108A300F5
:1027C8007008A2002208F4002308F5002408F60087
:1027D8002508F7001730F736F60CF50CF40C890BC2
:1027E800EF2BFF307405A00000307505A10020080C
:1027F8002104031D002C012C222C2208F40023089C
:10280800F5002408F6002508F7000130F435F50D29
:10281800F60DF70D890B0A2C7708760475047404F5
:10282800031D172C182C1D2C0230F0000030F1006D
:102838004C2C0330F0000030F1004C2C200A21040D
:10284800031D272C282C482C2208F4002308F50007
:102858002408F6002508F7000930F435F50DF60DC3
:10286800F70D890B312C7708760475047404031965
:102878003E2C402C0130412C0030F800F90178083A
:10288800F0007908F1004C2C0430F0000030F10021
:102898000800003020003A05C20000303B05C300A4
:1028A80080303C05C4007F303D05C5004508440420
:1028B80043044204031D612C622C6A2C0030BD00C5
:1028C8000030BC000030BB000030BA0000303E05CC
:1028D800C20000303F05C30080304005C4007F308F
:1028E8004105C5004508440443044204031D7D2CEA
:1028F8007E2C862C0030C1000030C0000030BF00A4
:102908000030BE00BD1F892C8A2CA22C0030C200CA
:102918000030C3000030C4008030C5003A08C2024D
:102928003B08C33B3C08C43B3D08C53B4508BD00CC
:102938004408BC004308BB004208BA00C11FA52CCC
:10294800A62CBE2C0030C2000030C3000030C400EA
:102958008030C5003E08C2023F08C33B4008C43B64
:102968004108C53B4508C1004408C0004308BF00F2
:102978004208BE008030BD068030C10641083D02D5
:10298800031DD02C40083C02031DD02C3F083B02FD
:10299800031DD02C3E083A020318D32CD42CD62C75
:1029A8000310D72C031408002000A201A301A001E2
:1029B800A101E22C0130F6070030F73D76088400CB
:1029C800770885001200203A0319EB2CEC2CDE2C3A
:1029D80076088400770885000008F73EF800FF3085
:1029E80003180030F9000030790205300319780225
:1029F800031CFF2C002DDE2C0B2D01302000A00025
:102A08000030A1000130F6070030F73D402D760870
:102A18008400770885000008F800F9017908003A71
:102A28000319172D402D78082B3A0319062D063A5D
:102A38000319012D402D76088400770885000008C9
:102A4800F80020002308F1002208F0000A30F20004
:102A58000030F3009F31332794317108FA00780869
:102A68007002F900031CFA037908303E2000A20026
:102A780000307A3DA300062D76088400770885008B
:102A88000008D03EF800FF3003180030F90000308D
:102A980079020A3003197802031C532D542D1F2D77
:102AA800200020082104031D5A2D5B2D672D2209C3
:102AB800F8002309F900F80A0319F90A7808F6005A
:102AC8007908F7006B2D2308F7002208F6000800A4
:102AD80023000C1421000C1423008C1421008C14E6
:102AE80092319E2295319E318A2695319E319926C2
:102AF80095319E317426953100309E31BC26953132
:102B080071082100EC007008EB003B302000A300A6
:102B1800A030A2002830A1000A30A00021006B08D4
:102B2800F0006C08F100890D893B8909F200F30077
:102B3800013080312520953173082000A7007208E4
:102B4800A6007108A5007008A4008B312B239531CD
:102B5800200023082100E200200022082100E100D3
:102B6800200021082100E000200020082100DF00CB
:102B78000C302000E600A030E700210062082000A9
:102B8800EB00210061082000EA0021006008200015
:102B9800E90021005F082000E8002030903104207F
:102BA8009531FB01FB0A20302000ED006D08FC0088
:102BB80001309F317227953101309E31BC26953105
:102BC80071082100EC007008EB003E302000A300E3
:102BD800FA30A2002930A100B230A00021006B0811
:102BE800F0006C08F100890D893B8909F200F300B7
:102BF800013080312520953173082000A700720824
:102C0800A6007108A5007008A4008B312B2395310C
:102C1800200023082200BF00200022082200BE0056
:102C2800200021082200BD00200020082200BC004E
:102C380000302000E600A030E70022003F08200016
:102C4800EB0022003E082000EA0022003D08200098
:102C5800E90022003C082000E800203090310420E0
:102C68009531FB01FB0A20302000ED006D08FC00C7
:102C780002309F31722795311A302000ED00F8306C
:102C8800890B442EED0B442E0000802D8031022844
:102C980077088039F80078082000A4007735F80014
:102CA8007808AB00F61F592E5A2E5B2E2B142B08D2
:102CB80003195F2E602E702E2B0A031D642E652EBD
:102CC8006D2E0030F7000030F6000030F5000030BF
:102CD800F400F617F701782E0030F7000030F60000
:102CE8000030F5000030F40073088039F8007808E7
:102CF800A4067335F8007808AC00F21F842E852EE0
:102D0800862E2C142C0803198A2E8B2E9B2E2C0A07
:102D1800031D8F2E902E982E0030F3000030F20005
:102D28000030F1000030F000F217F301A32E00305C
:102D3800F3000030F2000030F1000030F0007308BA
:102D4800720471047004031DAA2EAB2EC42E003029
:102D5800F7000030F6000030F5000030F400803055
:102D6800F6047F30F7042408F8007808F704770899
:102D7800F3007608F2007508F1007408F000FF2FE0
:102D88002B08031DC82EC92ED22E0030F3000030A8
:102D9800F2000030F1000030F000FF2F2B08F8009F
:102DA800F9017908FB002C087802FA00031CFB03E0
:102DB8007A087F3EA50000307B3DA6007708A30077
:102DC8007608A2007508A1007408A0000030F7007A
:102DD8000030F6000030F5000030F4000030AA00A2
:102DE8000030A9000030A8000030A700AC013A2F3D
:102DF8002C080319002F012F1B2F0130A035A10D1E
:102E0800A20DA30D890B022F0130F435F50DF60D37
:102E1800F70D890B092FAA1F122F132F142F7414C3
:102E28000130A735A80DA90DAA0D890B152F730818
:102E38002302031D292F72082202031D292F71085E
:102E48002102031D292F70082002031C2C2F2D2F6F
:102E5800362F2A177008A0027108A13B7208A23BFE
:102E68007308A33B0130F8007808AC071A302C022D
:102E7800031C3F2F402FFC2E23082204210420048A
:102E88000319472F482F612F2714612F0130F4357C
:102E9800F50DF60DF70D890B4B2FAA1F542F552F43
:102EA800562F74140130A735A80DA90DAA0D890B4A
:102EB800572FFF30A507FF30A63DF61F642F652F5B
:102EC8004A2FAC01AA1F692F6A2F862FFF302705CA
:102ED800F800FF302805F900FF302905FA007F3097
:102EE8002A05FB007B087A047904780403197D2FEE
:102EF8007E2F812FAC01AC0A862F741C842F852F5E
:102F0800862F7E2F2C0803198A2F8B2FB32F013081
:102F1800F4070030F53D0030F63D0030F73D771CF2
:102F2800962F972FB32F7408F8007508F9007608C4
:102F3800FA007708FB000130FC00FB37FA0CF90CAB
:102F4800F80CFC0BA12F7B08F7007A08F60079082B
:102F5800F5007808F4000130A5070030A63D2608E2
:102F6800803AF80080307802031DBC2FFF3025021C
:102F7800031CBF2FC02FCD2FFF302000A50000302D
:102F8800A6000030F7000030F6000030F5000030F1
:102F9800F40020002608803AF80080307802031DEB
:102FA800D72F013025020318DA2FDB2FE72F200057
:102FB800A501A6010030F7000030F6000030F5004A
:102FC8000030F400A40120002508F8007808AB00C0
:102FD8002B1CEF2FF02FF22FF617F62F7F30F8006B
:102FE8007808F6052B36F8007808F7002408F8006A
:082FF8007808F704BB2E080065
:103CB200640080010131890B5A2E0034FE0012008B
:103CC2001E00FE0B602E0034F600F20176089031E1
:103CD2002E209E310800F600F201F20A7608903199
:103CE2002E209E31080021001E088F3960389E0068
:103CF2001E11FC309E051D149E17080073087204E5
:103D0200710470040319862E872E892E8030F306E3
:103D12000800FE30F70077082000EE056E0808382C
:103D22009E3165269E311830890B952E003208008F
:103D3200FD30F70077082000EE056E0808389E3146
:103D420065269E311830890BA42E003208002034DB
:103D520000340034003400340034003400340034C1
:103D620000340034003400340034003400340034B1
:103D7200003400340034F30073081F39F200F20DEE
:103D8200F20D21001D087206833972069D009D14F2
:103D92009D18CC2ECD2EC92E1C08F1001B08F00058
:103DA20008007608BF3EF800FF30773DF90000308A
:103DB20079021A30031978020318E02EE12EE82E58
:103DC20020307604F60000307704F700E82E080071
:103DD2007008D03EF200FF30713DF30000307302F4
:103DE2000A3003197202031CF72EF92E0130FA2E43
:103DF2000030F400F5017408F0007508F1000800C5
:103E02007008BF3EF200FF30713DF30000307302D4
:103E12001A3003197202031C0F2F112F0130122FB7
:103E22000030F400F5017408F0007508F100080094
:103E3200F4007408F2007208F300232F0130F2003C
:103E42007208F40774088600013087000108031D18
:103E52002B2F2C2F1F2F73087402F000F101F01B7F
:103E6200F1030800F401F501701C382F392F3D2FA2
:103E72007208F4077308F53D0130F235F30D890B32
:103E82003E2F0130F136F00C890B432F700871047C
:103E9200031D4C2F4D2F352F7508F1007408F000CB
:103EA200080080302000BD064108F3004008F200FF
:103EB2003F08F1003E08F0003D08F7003C08F6001C
:103EC2003B08F5003A08F4008831EC209F31730872
:103ED2002000BD007208BC007108BB007008BA0067
:103EE20008002000A0007B08FD007D08F7002008E4
:103EF20090318A209F31892F7C088600013087000B
:103F020001089E316C269F310130FD007D08FC07BF
:103F12007C088600013087000108031D912F922F33
:103F22007D2F0800F401F40A203070067104031991
:103F32009B2F9C2FAC2F7008F73EF200FF30713D93
:103F4200F30000307302053003197202031CAA2F1A
:103F5200AB2FAC2FF4017408F200F3017208F000E9
:103F62007308F1000800F800F401F5017008F2008E
:103F7200F3017208F6007308F700781CC12FC22FF4
:103F8200C62F7608F4077708F53D0130F635F70DB0
:103F9200890BC72F0310F80C7808031DD12FD22FDD
:103FA200BE2F7508F1007408F00008002000A3007D
:103FB200A101A201EF2F2008F900FA017908F0000F
:103FC2007A08F1007808FB007B08F20091319A210F
:103FD2009F3101302000A1070030A23D21082307B4
:103FE200F90079088600013087000108FA007A0892
:103FF200A0002008031DFE2FFF2FDC2F08005434E1
:1040020045344D3450343A342034253433342E344C
:1040120031346634003450344F3454343A3420341A
:10402200253433342E3431346634003449344E343A
:10403200463400344E3441344E34003469346E34E4
:10404200663400346E3461346E3400346C34663459
:02405200003438
:020000040001F9
:08000000FF3FFF3FFF3FFF3F00
:04000E00E239FF3E96
:00000001FF
