:10000000803102288731E62F21001E088F396038A1
:100010009E001E11FC309E051D149E170800210035
:10002000DD006A30FD007D08DC005D08FD007D0814
:10003000DE00E001E101E601E70120006908E100DE
:100040006808E000DC30FD007D08E200DE30803131
:1000500086208031210060085D07FD007D08860054
:100060008701810108002000A300A101A2014B2803
:100070002008F900FA017908F0007A08F100780800
:10008000FB007B08F20081316721803101302000C4
:10009000A1070030A23D21082307F9007908860056
:1000A00087010108FA007A08A0002008031D5928DA
:1000B0005A2838280800F5006628FE30F300730837
:1000C00022008F05762822000F1476287208F3008C
:1000D000F4017408003A03196E2876287308003A70
:1000E00003195D28013A0319632876287508F3007F
:1000F0000430F336890B792873088031EE20803183
:1001000075080F398031EE20803108002000E500AD
:100110006108E7006008E6002100A001A101A42811
:100120006630E3006308CE006208E4006408CF0094
:10013000650886315526803120004E082100A00731
:1001400020004F082100A13D2000660884006708B8
:1001500085001200031DAD28AE289028210021083B
:100160002000E100210020082000E0000800FA0043
:10017000D72877087F3E8E31FF268031ED2877081B
:10018000BF3E8E31FF268031ED287708933E8E31B9
:10019000FF268031ED287708D33E8E31FF2680314F
:1001A000ED2877087F3E8E31FF268031ED287A08D2
:1001B000F800F9017908003A0319DF28D1287808F6
:1001C000013A0319B928033A0319BF28013A031960
:1001D000C528073A0319CB28D1280800F100711867
:1001E000F228F328F928EF30F000700822008F057C
:1001F000FB2822000F16F118FE28FF280429DF3003
:10020000F00070088F0505298F1671190829092932
:100210000E29BF30F00070088F050F290F17F11954
:100220001229132918297F30F00070088F05192929
:100230008F17FB30F00070088F050F15FB30F000B2
:1002400070088F05C830890B2329080023000C147F
:1002500021000C1482310F2281318F310E27813120
:100260008F311D27813180310420813100308F3161
:100270004027813171082100A7007008A6000030D6
:100280002000E8009030E900210027082000EB0062
:10029000210026082000EA00C83080310F2081317B
:1002A000FB01FB0AC8302000EC006C08FC000130A8
:1002B0008F31A12781311A302000EC00F830890BF2
:1002C0005F29EC0B5F290000362980310228720873
:1002D00003196B296C2971297208031D7029712972
:1002E000762970088E31F2268131B8297208083ECD
:1002F000860087011600010403197F2980299E29A1
:100300007208083E86008701403FF300413FF40039
:100310007208023E86008701403FF500413FF6002B
:100320007608803AF7007408803A7702031D9A290C
:100330007308750203189D299E29B8297008F300D7
:100340007208860087017208023E84008501000859
:100350000107F400740886008701730881007208A1
:10036000023E860087010130810741310318810A6E
:1003700008002000AB006D1CBE29BF29C7292B082F
:10038000FC007C08F80024088031332081312000F3
:10039000A61BCB29CC29D1292608AA002508A9000B
:1003A000D329A901AA01A701A801E7292030F0005B
:1003B0000030F10020002B08FC007C08F2008131A5
:1003C0006721813101302000A7070030A83D2808AF
:1003D000803AFC002A08803A7C02031DF129290892
:1003E0002702031CF429F529D62920006D18F929C4
:1003F000FA29022A2B08FC007C08F8002408803126
:1004000033208131200024088F316E278131200074
:1004100029087007A4002A08713DA50008000A30C9
:10042000F700770823008F050A30F70077082100CE
:100430008F050A30F700770822008F052730F70074
:10044000F530890B212AF70B212A00000330803177
:10045000EE2082310D30F700FC30890B2D2AF70B8E
:100460002D2A03308031EE2082314230890B362A2A
:10047000003203308031EE20823102308031EE20B4
:10048000823128308E31FF2682310630F70030303D
:10049000890B482AF70B482A00320730F700770803
:1004A0002000EF006F0808388E31FF2682310630B9
:1004B000F7003030890B5A2AF70B5A2A00320130E4
:1004C0008E31FF2682310630F7003030890B662AE4
:1004D000F70B662A003208002000A201A301A00148
:1004E000A101762A0130F6070030F73D7608840036
:1004F000770885001200203A03197F2A802A722A81
:1005000076088400770885000008F73EF800FF3081
:1005100003180030F9000030790205300319780221
:10052000031C932A942A722A9F2A01302000A000DB
:100530000030A1000130F6070030F73DD42A7608DC
:100540008400770885000008F800F9017908003A6E
:100550000319AB2AD42A78082B3A03199A2A063AA7
:100560000319952AD42A76088400770885000008A4
:10057000F80020002308F1002208F0000A30F20001
:100580000030F3008F31C02782317108FA007808FB
:100590007002F900031CFA037908303E2000A20023
:1005A00000307A3DA3009A2A7608840077088500F7
:1005B0000008D03EF800FF3003180030F90000308A
:1005C00079020A3003197802031CE72AE82AB32AC1
:1005D000200020082104031DEE2AEF2AFB2A22090D
:1005E000F8002309F900F80A0319F90A7808F60057
:1005F0007908F700FF2A2308F7002208F600080010
:10060000F2012830860000308700473FF000F01FDD
:100610000A2B0B2B2C2B2000A809A909AA09AB092E
:10062000AC09AD09AE09AF09A80A031D2A2BA90A16
:10063000031D2A2BAA0A031D2A2BAB0A031D2A2BF2
:10064000AC0A031D2A2BAD0A031D2A2BAE0A031D7B
:100650002A2BAF0AF201F20A203086000030870010
:10066000473FF000F01F352B362B552B2000A009FB
:10067000A109A209A309A409A509A609A709A00A15
:10068000031D552BA10A031D552BA20A031D552B33
:10069000A30A031D552BA40A031D552BA50A031DF0
:1006A000552BA60A031D552BA70A2000200821045C
:1006B0002204230424042504260427040319612B9F
:1006C000622BB52BF101F10A712BA035A10DA20D02
:1006D000A30DA40DA50DA60DA70D0130F000700807
:1006E000F107A71F742B752B652B27082F02031DFD
:1006F000932B26082E02031D932B25082D02031D84
:10070000932B24082C02031D932B23082B02031D7B
:10071000932B22082A02031D932B21082902031D73
:10072000932B20082802031C962B972BA72B20081D
:10073000A8022108A93B2208AA3B2308AB3B2408B6
:10074000AC3B2508AD3B2608AE3B2708AF3BA736A0
:10075000A60CA50CA40CA30CA20CA10CA00C01309F
:10076000F102031DB42BB52B752B72080319B92B9D
:10077000BA2BD82BA809A909AA09AB09AC09AD095C
:10078000AE09AF09A80A031DD82BA90A031DD82B4F
:10079000AA0A031DD82BAB0A031DD82BAC0A031DD4
:1007A000D82BAD0A031DD82BAE0A031DD82BAF0AD8
:1007B00020002808A0002908A1002A08A2002B0870
:1007C000A3002C08A4002D08A5002E08A6002F08C1
:1007D000A7000800F2012030860000308700473F64
:1007E000F000F01FF42BF52B162C2000A009A10916
:1007F000A209A309A409A509A609A709A00A031D1E
:10080000142CA10A031D142CA20A031D142CA30AE4
:10081000031D142CA40A031D142CA50A031D142C5B
:10082000A60A031D142CA70AF201F20A283086003A
:1008300000308700473FF000F01F1F2C202C432C76
:100840002000A809A909AA09AB09AC09AD09AE099C
:10085000AF09A80A031D3F2CA90A031D3F2CAA0AB1
:10086000031D3F2CAB0A031D3F2CAC0A031D3F2C7C
:10087000AD0A031D3F2CAE0A031D3F2CAF0A013009
:10088000F0007008F20673308600003087000830F0
:10089000F00000301E00F00B4A2C2000200821043C
:1008A0002204230424042504260427040319592CB4
:1008B0005A2CB62CF101F10A692CA035A10DA20D1C
:1008C000A30DA40DA50DA60DA70D0130F000700815
:1008D000F107A71F6C2C6D2C5D2CF335F40DF50D75
:1008E000F60DF70DF80DF90DFA0D27082F02031D6F
:1008F000932C26082E02031D932C25082D02031D80
:10090000932C24082C02031D932C23082B02031D77
:10091000932C22082A02031D932C21082902031D6F
:10092000932C20082802031C962C972CA82C200816
:10093000A8022108A93B2208AA3B2308AB3B2408B4
:10094000AC3B2508AD3B2608AE3B2708AF3B7314F4
:10095000A736A60CA50CA40CA30CA20CA10CA00CF1
:100960000130F102031DB52CB62C6D2C7208031951
:10097000BA2CBB2CD92CF309F409F509F609F709AF
:10098000F809F909FA09F30A031DD92CF40A031D21
:10099000D92CF50A031DD92CF60A031DD92CF70A08
:1009A000031DD92CF80A031DD92CF90A031DD92CD3
:1009B000FA0A73082000A0007408A1007508A200BC
:1009C0007608A3007708A4007808A5007908A60097
:1009D0007A08A70008002000BD003008C4003108D4
:1009E000C5003208C6003308C7003408C8003508FF
:1009F000C9003608CA003708CB00443086000030F2
:100A00008700473FB800B81B062D082D0130092D7F
:100A100000302000B900BA013908C2003A08C3000A
:100A2000420843040319152D162D342DC409C50998
:100A3000C609C709C809C909CA09CB09C40A031DDF
:100A4000342DC50A031D342DC60A031D342DC70AD3
:100A5000031D342DC80A031D342DC90A031D342D6E
:100A6000CA0A031D342DCB0A2100A51B382D392DB0
:100A70003E2DFD302000ED05FF30EE05210025085C
:100A8000803A2000B80080303802031D4A2D013022
:100A90002100240203184D2D4E2D542D013020002D
:100AA000BE000030BF005C2D210025082000BF00E3
:100AB000210024082000BE00210023082000C100DE
:100AC000210022082000C00042084304031D692DB4
:100AD0006A2D6E2D6D1D6D2D6E2D722DFF30C00790
:100AE000FF30C13D1F30CC000030CD002100C701D8
:100AF000E12DFF302000CC07FF30CD3D0A30A000B3
:100B0000A101A201A301A401A501A601A701440816
:100B1000A8004508A9004608AA004708AB004808F5
:100B2000AC004908AD004A08AE004B08AF00833165
:100B30000023843120002108F4002008F3008F31C5
:100B4000872784317308303E2000B8004C08A83E47
:100B50008600870138088100FF30BE07FF30BF3DA7
:100B6000FF30C007FF30C13D0A30A000A101A20143
:100B7000A301A401A501A601A7014408A8004508F6
:100B8000A9004608AA004708AB004808AC0049087D
:100B9000AD004A08AE004B08AF008331EA23843130
:100BA00020002008C4002108C5002208C600230830
:100BB000C7002408C8002508C9002608CA0027085D
:100BC000CB0020004D08803AB80080303802031D69
:100BD000EB2D01304C02031CEE2DEF2D1C2E2000BE
:100BE0004408450446044704480449044A044B04A5
:100BF000031DFB2DFC2D792D3F08803AB800803075
:100C00003802031D052E01303E020318082E092E5E
:100C1000792D20004108803AB80080303802031D49
:100C2000132E01304002031C162E172E1C2E2000FE
:100C3000ED181B2E1C2E792D200042084304031DA5
:100C4000222E232E272E6D1D262E272E422EFF30DC
:100C5000CC07FF30CD3D42084304031D302E312E1A
:100C6000362E2B30BB000030BC003A2E2D30BB009E
:100C70000030BC003B08B8004C08A83E8600870145
:100C8000380881004C08A83EB8003808A400410884
:100C9000A6004008A5003D088131B921843120001B
:100CA0002508B1002408B00008002000DF004E082D
:100CB00086008701403FD000413FD10050088400AA
:100CC000510885001200253A031D672E682EC22F99
:100CD0004E08860087010130810741310318810ADF
:100CE0002100A201A3012000ED01EE01FF3021004F
:100CF000A400FF30A5002000DD01DE01BA2E6D1436
:100D00004E08860087010130810741310318810AAE
:100D1000BA2EED14802E6D15802EED15802E6D16D9
:100D2000802E0130DD000030DE00BA2E4E08860035
:100D30008701403FD000413FD10050088400510856
:100D400085000008D200D3015308003A0319A92EE8
:100D5000912E5208203A03198D2E033A03198F2E33
:100D6000083A03198B2E063A03197F2E1D3A0319F0
:100D7000892E912E5D085E040319BF2EC02E962E7B
:100D80006D1CC32EC42EC82EFD30ED05FF30EE05C0
:100D90004E0886008701403FD000413FD1005008F7
:100DA00084005108850012002A3A031DD82ED92E3E
:100DB000FB2E4E0886008701013081074131031860
:100DC000810A4F08860087010108840085010230EE
:100DD0008107003F2100A200013FA300A31FF12EC5
:100DE000F22E2F2F20006D142100A209A309A20AC0
:100DF0000319A30A2F2F4E0886008701403FF600F3
:100E0000413FF70082316C22863177082100A30030
:100E10007608A200132F4E08860087010130810753
:100E200041310318810A20004E0886008701403FA7
:100E3000D000413FD10050088400510885000008CF
:100E4000D03ED200FF3003180030D30000305302F0
:100E50000A3003195202031C2E2F2F2F0B2F2000B4
:100E60004E0886008701403FD000413FD100500826
:100E70008400510885001200643A0319402F412F65
:100E8000522F4E0886008701403FD000413FD100DD
:100E900050088400510885001200693A031D512F43
:100EA000522F8D2F4E088600870101308107413176
:100EB0000318810A4F088600870101088400850114
:100EC00002308107003FD000013FD1005008D5001B
:100ED0005108D600890D893B8909D700D800D9006F
:100EE000DA00DB00DC005508B0005608B1005708F6
:100EF000B2005808B3005908B4005A08B5005B089E
:100F0000B6005C08B7005F088431EB24863120000E
:100F10003108CF003008CE00E52F4E08860087014B
:100F2000403FD000413FD100500884005108850067
:100F30001200253A031D9D2F9E2FB72F4E088600C5
:100F400087010130810741310318810A2530F00003
:100F50000030F1005F08D0005008F20081316721B5
:100F6000863101302000CE000030CF00E52F4E0842
:100F7000860087010130810741310318810ACE01C3
:100F8000CF01E52F4E0886008701403FD000413F4A
:100F9000D10050088400510885000008D200D30118
:100FA0005208F0005308F1005F08D4005408F20022
:100FB00081316721863120004E088600870101308B
:100FC000810741310318810AB12F08002C308400B9
:100FD0008F308500C83086000030870014308E3195
:100FE000F9268731ED01EE01EF01A03084000030D9
:100FF000850028308E31F326873120008131262963
:101DE4000800640080010131890BF42E0034FE00E8
:101DF40012001E00FE0BFA2E0034F600F2017608E3
:101E040080315B208E310800F600F201F20A760878
:101E140080315B208F310800FE30F7007708200006
:101E2400EF056F0808388E31FF268F311830890B83
:101E3400192F00320800FD30F70077082000EF0565
:101E44006F0808388E31FF268F311830890B282F00
:101E540000320800203400340034003400340034EC
:101E640000340034003400340034003400340034CE
:101E7400003400340034003400340034F3007308B8
:101E84001F39F200F20DF20D21001D08720683398C
:101E940072069D009D149D18502F512F4D2F1C0824
:101EA400F1001B08F00008007008D03EF200FF307B
:101EB400713DF300003073020A3003197202031CEF
:101EC400642F662F0130672F0030F400F501740889
:101ED400F0007508F1000800F4007408F2007208BC
:101EE400F300782F0130F2007208F40774088600BA
:101EF40087010108031D7F2F802F742F730874023C
:101F0400F000F101F01BF10308007408803AF500B9
:101F140080307502031D902F013073020318932F34
:101F2400942FA02F7309F5007409F600F50A03191C
:101F3400F60A7508F3007608F400A02F08002000C4
:101F4400A0007B08FD007D08F70020088031B72041
:101F54008F31B72F7C088600870101088F3106274F
:101F64008F310130FD007D08FC077C088600870165
:101F74000108031DBE2FBF2FAC2F0800F401F5018B
:101F8400701CC52FC62FCA2F7208F4077308F53DBD
:101F94000130F235F30D890BCB2F0130F136F00C03
:101FA400890BD02F70087104031DD92FDA2FC22F8B
:101FB4007508F1007408F0000800F401F40A2030F8
:101FC400700671040319E72FE82FF82F7008F73E05
:101FD400F200FF30713DF300003073020530031945
:101FE4007202031CF62FF72FF82FF4017408F20085
:101FF400F3017208F0007308F100080043346F34F1
:102004006E347634653472343A34203425343034C2
:0620140034346434003492
:020000040001F9
:08000000FF3FFF3FFF3FFF3F00
:04000E00E239FF3E96
:00000001FF
