:0400000080312428FF
:100008007E1480312000911E0A280B282228803176
:100018008D208031F0007008F70061307706031DED
:10002800162817281A2822000F1022287030770661
:10003800031D1F282028222822000F147E100900E3
:1000480080312628F7017E10200080312B28383097
:1000580021009900220096012100980123008F01B8
:1000680021008F018B170B17200091122100911688
:100078008031772080316B30F2008030F30080319E
:10008800542080310B30F6002630F5005E30890BA5
:100098004B28F50B4B28F60B4B283F28803124289A
:1000A8006128720884007308850000088031832065
:1000B80080310130F2070030F33D72088400730884
:1000C80085001200031D69286A2855280800553440
:1000D8004E344934563441344C344C34453420344D
:1000E8000D340A34003421000E138E170C3023000F
:1000F8009B001E111E129E169D171D160800F1006A
:10010800710823009A002000111E8B288C2887284C
:1001180008002000911E912892288D282300190894
:020128000800CD
:020000040001F9
:08000000FF3FFF3FFF3FFF3F00
:04000E00E23FFF3E90
:00000001FF
