:04000000FEEFFFF020
:0F25000000486F6C6120746F646573200A0000DF
:102510006100DCF4D9F46100E0F4DAF4DEC4F6F42E
:10252000DDC4F7F4000EF86E0800F550250AD8A4B3
:102530009CEF12F09EEF12F0EFEF12F06100DCF46E
:10254000D9F46100E0F4DAF4DE2A000EDD22000E98
:10255000246E000E236E23C527F524C528F52568B3
:1025600026686100DCF4D9F46100E0F4DAF4DEC43A
:10257000F6F4DDC4F7F4000EF86E0800F550250AF5
:10258000D8A4C5EF12F0C7EF12F0E0EF12F061002F
:10259000DCF4D9F46100E0F4DAF4DE2A000EDD2286
:1025A000000E2D6E250E2C6E35C52EF536C52FF579
:1025B00064EC13F0000E366E010E356E10EF13F062
:1025C0006100DCF4D9F46100E0F4DAF4DE2A000EF4
:1025D000DD22000E366E000E356E10EF13F0610036
:1025E000DCF4D9F46100E0F4DAF4DEC4F6F4DDC41E
:1025F000F7F4000EF86E0800F5502C6E2D6A35C504
:102600002EF536C52FF564EC13F06100DCF4D9F437
:102610006100E0F4DAF4DE2A000EDD22DAEF12F0D7
:102620001200000EC26E000EC16E000EBE6E000ED5
:10263000C36E000EBF6E000EC06E070ECA6EFE0E99
:10264000CB6EC668C768C868C96804011869106994
:102650000869070E206FFD0E286F0069000E196FC4
:10266000000E296F000E216F000E096F000E016F22
:10267000000E116F000E0201896F000E886F000EB0
:10268000876F000E866F000E0401226F000E2A6F06
:10269000000E026F000E0A6F000E126F000E1A6F0E
:1026A00003690B6913691B69070E236F2B690469A2
:1026B0000C6914691C690F0E246F2C69200E02012D
:1026C000296F290E726F12002E502F10D8B46BEFA5
:1026D00013F06DEF13F076EF13F02E502F10D8A4F7
:1026E00074EF13F076EF13F07BEF13F02C509AECAD
:1026F00014F0AEEF13F020EE09F02E50D9262F5033
:10270000DA22DE50DE10D8B488EF13F08AEF13F02F
:10271000A5EF13F020EE09F02E50D9262F50DA2223
:1027200010EE03F02E50E1262F50E222DE50E65C40
:10273000E650800A346EDE50800A3458D8B0A3EFD9
:1027400013F0A5EF13F0AEEF13F020EE03F02E50D0
:10275000D9262F50DA22DE2A000EDD221200000ECA
:102760000201A56F000EA66F000EA76F000EA86FE6
:10277000000EA96F000EAA6FB00EAB6F800EAC6F8B
:10278000000EAD6F820EAE6F060EAF6F000EB06F13
:10279000000EB16F000EB26F000EB36F000E2A6E06
:1027A000000E2B6E000E2C6E8CEC14F0000E2A6EB8
:1027B000000E2B6E000E2C6E85EC14F0000E2A6EAF
:1027C000000E2B6E000E2C6E93EC14F0000E296E92
:1027D00012003DC541F53EC542F5000E226E000EC9
:1027E000216E05EF14F03BC535F53CC536F5410EBD
:1027F000376E050E386E3FC539F540C53AF588ECA1
:1028000012F03550212636502222610004F5F6F4EC
:10281000610008F5F7F4000EF86E0800F5500009A5
:10282000D8A415EF14F017EF14F0F3EF13F021C54F
:102830003BF522C53CF512007CEC14F0010E436E12
:10284000250E446E34EC14F0A30E486E570E476EFE
:10285000020EE82EFED7472EFCD7482EFAD700D01E
:102860001EEF14F0FEEFFFF0450E456E050E466EAE
:10287000000E3B6E000E3C6E43C53DF544C53EF573
:10288000450E3F6E050E406EE9EC13F01200000E8F
:102890000001606F000E616F000E636F000E646FC9
:1028A000000E656F000E666F000E676F000E686F9A
:1028B0001200600E0001AD6F000EAF6F000EB36F1F
:1028C000080EB16F000EB06F000EAC6F12002A6ED2
:1028D000B2A26DEF14F06FEF14F068EF14F0610026
:1028E000A8F4A3F2120001EE01F1290EEE6AE80647
:1028F000FDE100011CEF14F047EC14F011EC13F0B3
:1029000059EC14F0AFEC13F012002AC54CF52BC5AE
:102910004DF52CC54EF512002AC54FF52BC550F5C7
:102920002CC551F512002AC549F52BC54AF52CC511
:0E2930004BF512002B6E2B5067EC14F01200CA
:020000040001F9
:04FFFC0073EF14F09B
:020000040020DA
:10000000FF0FFF0FFF0FFF0FFF0FFF0FFF0FFF0F80
:10001000FF0FFF0FFF0FFF0FFF0FFF0FFF0FFF0F70
:10002000FF0FFF0FFF0FFF0FFF0FFF0FFF0FFF0F60
:10003000FF0FFF0FFF0FFF0FFF0FFF0FFF0FFF0F50
:020000040030CA
:0A0000008CFFF7FF9FFFFFFFFFFFDB
:00000001FF
