:040000003EEF05F0DA
:1008000000486F6C6120554E4956414C4C45005A8A
:0708100061727A616C0000C7
:10081800000E32EC05F0620E0D6E660EE82EFED765
:100828000D2EFCD7030EFCEC04F0210E0D6E760E97
:10083800E82EFED70D2EFCD700D0030EFCEC04F0FA
:10084800A60EE82EFED700D0030EFCEC04F0020E34
:10085800FCEC04F0280E4FEC05F03D0EE82EFED718
:1008680000D0070E116E115008094FEC05F03D0E2F
:10087800E82EFED700D0010E4FEC05F00D0E0D6EE0
:10088800FC0EE82EFED70D2EFCD71200106E65EF79
:1008980004F00D507F0F4FEC05F082EF04F00D507F
:1008A800BF0F4FEC05F082EF04F00D50930F4FECA3
:1008B80005F082EF04F00D50D30F4FEC05F082EFF6
:1008C80004F010500E6E0F6A0F50000AD8B46FEF84
:1008D80004F082EF04F00E50010AD8B44DEF04F092
:1008E800030AD8B453EF04F0010AD8B459EF04F05E
:1008F800070AD8B45FEF04F082EF04F01200076E25
:100908008CEF04F00790A1EF04F00780A1EF04F04A
:100918000450056E066A0650000AD8B496EF04F033
:10092800A1EF04F00550000AD8B486EF04F0010ADC
:10093800D8B489EF04F0A1EF04F0075032EC05F0C9
:100948000784075032EC05F00794075032EC05F0A5
:10095800320EE82EFED712000F0EC16E25EC05F000
:100968000CEC04F0010E0D6E080E0E6ECBEC04F0CC
:10097800010E0D6E020E4AEC04F00F0E0D6E080EFD
:100988000E6ECBEC04F0C7EF04F000EF00F0D7EFE9
:1009980004F00DC0F6FF0EC0F7FF0800F5504AEC52
:1009A80005F00D4A0E2A0DC0F6FF0EC0F7FF08002D
:1009B800F5500009D8A4E3EF04F0E5EF04F0CDEF1B
:1009C80004F012000B6E0B50F00B096E0BC008F010
:1009D8000F0E08160838F00B0A6E010E046E095047
:1009E80083EC04F0010E046E0A5083EC04F012004C
:1009F8000B6E0B50F00B096E0BC008F00F0E0816AB
:100A08000838F00B0A6E000E046E095083EC04F0EF
:100A1800000E046E0A5083EC04F01200C5CF01F0FA
:100A28001F0E0116D8A41BEF05F01DEF05F012EFFD
:100A380005F0C7B422EF05F024EF05F012EF05F03A
:100A4800120093809382C78EC68AC650F00B08099D
:100A5800C66E310EC86E000EC56E1200036E58ECDD
:100A680005F04E0E44EC05F0035044EC05F054EC50
:100A780005F01200116A000EF86E0001B0EF04F0E4
:100A8800026E12EC05F002C0C9FF12000C6E0C5089
:100A9800E6EC04F012000C6E0C50FCEC04F01200B2
:100AA80012EC05F0C584120012EC05F0C5801200A6
:020000040020DA
:08000000FFFFFFFFFFFFFFFF00
:020000040030CA
:0E000000000C1F1EFF8185FF0FC00FE00F4098
:00000001FF
