:08000000803102288731F72F3F
:10025E00080008000800013422008D150D12080058
:10026E0022008D110D160800F600F201760881317C
:10027E00F72181310800F600F201F20A7608813189
:10028E00F721813108002000A0007B08FD007D08C9
:10029E00F70020088231222281317C0881314221EF
:1002AE0081310800FE30F70077082000A7052708E7
:1002BE00083881313B2181311830890B6429003295
:1002CE000800FD30F70077082000A705270808383A
:1002DE0081313B2181311830890B7329003208009E
:1002EE003830210099009801220096018131AB210E
:1002FE0081318231E7228131813159218131813140
:10030E006821813108002000A1007B08A000200890
:10031E00F7002108823122228131A1297C08840034
:10032E007D08850000088131422181310130FC07B2
:10033E000030FD3D7C0884007D0885001200031D01
:10034E00A929AA299529080023000C148C14210030
:10035E000C148C1423008D110D120F118F1121000E
:10036E008D110D120F118F1122008D110D120F1103
:10037E008F1121009513073024008D0023000D10DE
:10038E008D100D1121000D148D140D150800FB019B
:10039E00FB0A7E30FC008830FD00013081318A215D
:1003AE008131FB01FB0A3F30FC008830FD0002303A
:1003BE0081318A218131FB01FB0AFC30FC0088303F
:1003CE00FD00033081318A218131FB01FB0A0030AF
:1003DE00FC008830FD00043081318A218131080013
:1003EE00F500022AFE30F300730822008F05122A50
:1003FE0022000F14122A7208F300F4017408003A56
:10040E0003190A2A122A7308003A0319F929013A24
:10041E000319FF29122A7508F3000430F336890BED
:10042E00152A730882315922813175080F398231AC
:10043E00592281310800FA00422A77087F3E813125
:10044E003B218231582A7708BF3E81313B218231D0
:10045E00582A7708933E81313B218231582A7708FA
:10046E00D33E81313B218231582A77087F3E81313C
:10047E003B218231582A7A08F800F9017908003AAE
:10048E0003194A2A3C2A7808013A0319242A033A06
:10049E0003192A2A013A0319302A073A0319362A70
:1004AE003C2A0800F10071185D2A5E2A642AEF309A
:1004BE00F000700822008F05662A22000F16F11830
:1004CE00692A6A2A6F2ADF30F00070088F05702AB9
:1004DE008F167119732A742A792ABF30F0007008AA
:1004EE008F057A2A0F17F1197D2A7E2A832A7F30EB
:1004FE00F00070088F05842A8F17FD30F000700809
:10050E008F058F14FD30F00070088F05C830890BF1
:10051E008E2A0800813177218231B52A85316A25EC
:10052E008231DB2A843157248231DB2A813130211A
:10053E008231DB2A86317E268231DB2A81313121DE
:10054E008231DB2A81312F218231DB2A8331442310
:10055E008231DB2A8131CE218231DB2A200026082E
:10056E00A400A5012508003A0319BE2ADB2A240897
:10057E00003A0319952A013A0319992A033A0319E5
:10058E00A12A013A03199D2A073A0319A52A013A0D
:10059E000319A92A033A0319DB2A013A0319AD2AD2
:1005AE000F3A0319B12ADB2A82302000A400DD3075
:1005BE00890BDF2AA40BDF2A0032B52A80310228EC
:1005CE000C30F700770823008F050C30F700770802
:1005DE0021008F050C30F700770822008F05273099
:1005EE00F700F530890BF92AF70BF92A00000330D2
:1005FE008231592282310D30F700FC30890B052BE8
:10060E00F70B052B03308231592282314230890B90
:10061E000E2B003203308231592282310230823168
:10062E0059228231283081313B2182310630F70048
:10063E003030890B202BF70B202B00320730F700C0
:10064E0077082000A7002708083881313B21823126
:10065E000630F7003030890B322BF70B322B00327D
:10066E00013081313B2182310630F7003030890B69
:10067E003E2BF70B3E2B00320800FB01FB0A6930C4
:10068E00FC008830FD00013081318A218331FB016D
:10069E00FB0A3F30FC008830FD00023081318A2198
:1006AE008331FB01FB0AFC30FC008830FD00033077
:1006BE0081318A218331FB01FB0A0030FC00883036
:1006CE00FD00043081318A21833104302000A200E4
:1006DE002208FB002808303EA3002308FC0004304B
:1006EE0081314A218331F02B0A30A2002208FB000F
:1006FE003C30A3002308FC00023081314A218331B3
:10070E000C302000A2002208FB002030A30023089A
:10071E00FC00033081314A21833113302000A200C6
:10072E002208FB002030A3002308FC000330813197
:10073E004A218331042C0A30A2002208FB0020300B
:10074E00A3002308FC00023081314A2183310C3092
:10075E002000A2002208FB003C30A3002308FC006E
:10076E00033081314A21833113302000A200220848
:10077E00FB002030A3002308FC00033081314A2106
:10078E008331042C0A30A2002208FB002030A30083
:10079E002308FC00023081314A2183310C302000C5
:1007AE00A2002208FB002030A3002308FC00033027
:1007BE0081314A21833113302000A2002208FB0030
:1007CE003C30A3002308FC00033081314A218331E1
:1007DE00042C20002808A200A3012308003A0319C4
:1007EE00F92B042C2208013A03197B2B033A031927
:1007FE00A22B013A0319C92B042C20000D18082C2A
:10080E00092C192C0D1C0C2C0D2C092C0130A200BE
:10081E002208A80704302802031C162C172C192CAA
:10082E00A801A80A8D181C2C1D2C2C2C8D1C202CDC
:10083E00212C1D2C0130A8022808031D272C282C42
:10084E002C2C0330A2002208A8000D192F2C302CBE
:10085E00562C0D1D332C342C302C402C8131332151
:10086E008331532C813137218331532CA601A60AB3
:10087E00532C2808A200A3012308003A0319482C80
:10088E00532C2208013A0319352C033A0319392C3B
:10089E00013A03193D2C532C2000A801A80A080088
:1008AE00FB01FB0AA830FC008830FD0001308131CD
:1008BE008A218431FB01FB0A2A30FC008830FD00BE
:1008CE00023081318A218431FB01FB0AE730FC00C2
:1008DE008830FD00033081318A218431FB01FB0A0F
:1008EE000030FC008830FD00043081318A218431D3
:1008FE0004302000A2002208FB002808303EA3008E
:10090E002308FC00043081314A218431032D093043
:10091E00A2002208FB003C30A3002308FC0002309A
:10092E0081314A21843109302000A2002208FB00C7
:10093E002030A3002308FC00033081314A2184318A
:10094E0013302000A2002208FB002030A300230851
:10095E00FC00033081314A218431172D0930A20069
:10096E002208FB002030A3002308FC000230813156
:10097E004A21843109302000A2002208FB003C30BD
:10098E00A3002308FC00033081314A218431133047
:10099E002000A2002208FB002030A3002308FC0048
:1009AE00033081314A218431172D0930A2002208EB
:1009BE00FB002030A3002308FC00023081314A21C5
:1009CE00843109302000A2002208FB002030A30051
:1009DE002308FC00033081314A218431133020007A
:1009EE00A2002208FB003C30A3002308FC000330C9
:1009FE0081314A218431172D20002808A200A3013D
:100A0E002308003A03190C2D172D2208013A031959
:100A1E008E2C033A0319B52C013A0319DC2C172D31
:100A2E0020000D181B2D1C2D2C2D0D1C1F2D202DC7
:100A3E001C2D0130A2002208A80704302802031C36
:100A4E00292D2A2D2C2DA801A80A8D182F2D302DD9
:100A5E003F2D8D1C332D342D302D0130A80228084A
:100A6E00031D3A2D3B2D3F2D0330A2002208A80076
:100A7E000D19422D432D692D0D1D462D472D432D4C
:100A8E00542D0730A2002208A600672D0830A200C0
:100A9E002208A600672DA601672D2808A200A30133
:100AAE002308003A03195C2D672D2208013A031919
:100ABE00482D033A03194D2D013A0319522D672D76
:100ACE00A801A80A0800FB01FB0A5430FC0088307C
:100ADE00FD00013081318A218531FB01FB0A113085
:100AEE00FC008930FD00023081318A218531FB0105
:100AFE00FB0A1530FC008830FD00033081318A215D
:100B0E008531FB01FB0A0030FC008830FD0004300B
:100B1E0081318A21853104302000A2002208FB0099
:100B2E002808303EA3002308FC00043081314A21FE
:100B3E008531162E0930A2002208FB003C30A3009E
:100B4E002308FC00023081314A2185311430200007
:100B5E00A2002208FB002030A3002308FC00023074
:100B6E0081314A21853108302000A2002208FB0085
:100B7E002030A3002308FC00033081314A21853147
:100B8E002A2E0930A2002208FB002030A3002308E1
:100B9E00FC00023081314A21853114302000A20040
:100BAE002208FB003C30A3002308FC0002308131F8
:100BBE004A21853108302000A2002208FB00203097
:100BCE00A3002308FC00033081314A2185312A2EEF
:100BDE000930A2002208FB002030A3002308FC00ED
:100BEE00023081314A21853114302000A2002208C2
:100BFE00FB002030A3002308FC00023081314A2183
:100C0E00853108302000A2002208FB003C30A300F2
:100C1E002308FC00033081314A2185312A2E200021
:100C2E002808A200A3012308003A03191F2E2A2E1A
:100C3E002208013A0319A12D033A0319C82D013ACE
:100C4E000319EF2D2A2E20000D182E2E2F2E3F2E9B
:100C5E000D1C322E332E2F2E0130A2002208A80793
:100C6E0004302802031C3C2E3D2E3F2EA801A80A5C
:100C7E008D18422E432E522E8D1C462E472E432E5D
:100C8E000130A8022808031D4D2E4E2E522E033081
:100C9E00A2002208A8000D19552E562E7D2E0D1DD0
:100CAE00592E5A2E562E682E0230A2002208A60069
:100CBE007B2EA601A60A7B2E0330A2002208A600D8
:100CCE007B2E2808A200A3012308003A0319702ED8
:100CDE007B2E2208013A03195B2E033A0319602E6C
:100CEE00013A0319632E7B2EA801A80A0800FB0106
:100CFE00FB0AD230FC008830FD00013081318A21A0
:100D0E008631FB01FB0A9330FC008830FD00023077
:100D1E0081318A218631FB01FB0ABD30FC0088300F
:100D2E00FD00033081318A218631FB01FB0A003040
:100D3E00FC008830FD00043081318A218631043078
:100D4E002000A2002208FB002808303EA300230842
:100D5E00FC00043081314A218631852F0730A200F4
:100D6E002208FB003C30A3002308FC000230813136
:100D7E004A21863110302000A2002208FB002030CC
:100D8E00A3002308FC00023081314A21863106304F
:100D9E002000A2002208FB002030A3002308FC0044
:100DAE00033081314A21863111302000A200220801
:100DBE00FB002030A3002308FC00033081314A21C0
:100DCE0086319C2F0730A2002208FB002030A300A2
:100DDE002308FC00023081314A2186311030200078
:100DEE00A2002208FB003C30A3002308FC000230C6
:100DFE0081314A21863106302000A2002208FB00F4
:100E0E002030A3002308FC00033081314A218631B3
:100E1E0011302000A2002208FB002030A30023087E
:100E2E00FC00033081314A2186319C2F0730A2000D
:100E3E002208FB002030A3002308FC000230813181
:100E4E004A21863110302000A2002208FB002030FB
:100E5E00A3002308FC00023081314A21863106307E
:100E6E002000A2002208FB003C30A3002308FC0057
:100E7E00033081314A21863111302000A200220830
:100E8E00FB002030A3002308FC00033081314A21EF
:100E9E0086319C2F0730A2002208FB002030A300D1
:100EAE002308FC00023081314A21863110302000A7
:100EBE00A2002208FB002030A3002308FC00023011
:100ECE0081314A21863106302000A2002208FB0023
:100EDE002030A3002308FC00033081314A218631E3
:100EEE0011302000A2002208FB003C30A300230892
:100EFE00FC00033081314A2186319C2F20002808C6
:100F0E00A200A3012308003A03198E2F9C2F22085A
:100F1E00013A0319B52E033A0319E92E013A0319C2
:100F2E001D2F073A0319512F9C2F20000D18A02FAB
:100F3E00A12FB12F0D1CA42FA52FA12F0130A20080
:100F4E002208A80705302802031CAE2FAF2FB12FA1
:100F5E00A801A80A8D18B42FB52FC42F8D1CB82F39
:100F6E00B92FB52F0130A8022808031DBF2FC02F9F
:100F7E00C42F0430A2002208A8000D19C72FC82FB5
:100F8E00F62F0D1DCB2FCC2FC82FDE2F0430A20035
:100F9E002208A600F42F0530A2002208A600F42F86
:100FAE000630A2002208A600F42FA601F42F28086E
:100FBE00A200A3012308003A0319E62FF42F2208FA
:100FCE00013A0319CD2F033A0319D22F013A03190F
:100FDE00D72F073A0319DC2FF42FA801A80A08000F
:100FEE00813132218731A800A601A701200082316C
:100FFE00912A4F3450343A34203420342034203463
:10100E002034203420342034203420342034203432
:10101E0020342034203420342034003433342E3421
:10102E00523465346C346F346A34203420342034B6
:10103E002034203420342034203420342034203402
:10104E0020342034003431342E344D344F34543463
:10105E004F34523441342034203420342034203460
:10106E0020342034203420342034203420340034F2
:10107E0031342E34443445345234453443344834B8
:10108E004134203420342034203420342034203491
:10109E0020342034203420340034203420342034C2
:1010AE00203420344D3445344E34553420345034AD
:1010BE00503441344C342034203420342034203405
:1010CE00203400342034203420344D3445344E3412
:1010DE00553420344D344F3454344F34523420343C
:1010EE004134203420342034203420340034203451
:1010FE00203420344D3445344E34553420344D3460
:10110E004F3454344F34523420344234203420344B
:10111E00203420342034003431342E3454344534C9
:10112E004D345034203420342034203432342E3494
:10113E004C3444345234203420342034203420347F
:10114E0000342034203420344D3445344E3455345C
:10115E0020344D344F3454344F3452344534533498
:10116E0020342034203420342034003433342E34D0
:10117E004434483454342034203420342034203441
:10118E0034342E344234413443344B3420342034FE
:10119E002034203400342034203420344D3445346F
:1011AE004E3455342034533445344E3453344F3446
:1011BE005234453453342034203420342034003417
:1011CE0032342E344D344F3454344F34523442343E
:1011DE00203420342034203433342E3442344134FD
:1011EE0043344B3420342034003432342E344934DA
:1011FE005A345134553449344534523444344134DC
:10120E002034203433342E34423443344B3420349F
:10121E002034003431342E34533465346E34733408
:10122E006F3472342034203432342E344D346F34D3
:0E123E0074346F3472346534733420340034E9
:020000040001F9
:08000000FF3FFF3FFF3FFF3F00
:04000E00E239FF3E96
:00000001FF
