:08000000803102288731FD2F39
:100EB800080022000C158C11080022008C150C115A
:100EC800080022000C168C12080022008C160C1246
:100ED800080022000C118C11080022000C128C1240
:100EE800080087318B27873187317F278731873102
:100EF8005C27873108007030210099009801220092
:100F0800960121001A1F892F8A2F852F0800220099
:100F180090018F018C018D018E0107302100900016
:100F2800C3308C008D01FF308E00FF308F00FF3002
:100F380023008F008D01073090008C012400900160
:100F48008D012100951722009D0108008731752722
:100F580087310F3020008D0020000C18B42FB52FDA
:100F6800BF2F8C18B82FB92FBF2F87316D27873126
:100F780087317127873120008C18C32FC42FCE2FBB
:100F88000C1CC72FC82FCE2F87315D27873187319B
:100F98006927873120008C1CD22FD32FDD2F0C1806
:100FA800D62FD72FDD2F87316527873187316127E6
:100FB800873120008C1CE12FE22FEC2F0C1CE52F31
:100FC800E62FEC2F873169278731873161278731F1
:100FD80020008D091530F1004B30F000BE30890B30
:100FE800F32FF00BF32FF10BF32F0032B02F8031DA
:080FF800022820008731AA2F16
:020000040001F9
:08000000FF3FFF3FFF3FFF3F00
:04000E00E43FFF3F8D
:00000001FF
