:08000000803102288731F42F42
:100CFA002734083486319F268631240016140800CA
:100D0A0086319F268631240016150800FB007B08D1
:100D1A008631E52686310800FB007B0887310227E9
:100D2A0086310800F00086319F268631700824003B
:100D3A0091000800240016081F39031DA52EA62EAF
:100D4A009F2E1419A92EAA2E9F2E080021008E1557
:100D5A000E1624001508F0390838950094179516D0
:100D6A001330920096010800F10086317F26863101
:100D7A004E30863197268631710808388631972693
:100D8A00863186318526863108003830210099005F
:100D9A009801220096018731A82786312000A401F4
:100DAA00A40A0030A5008830A60001308731212727
:100DBA00863123008F0121008F01E22E8031022823
:100DCA00FA007A08F039F6007608F8007A080F393E
:100DDA00F6000330F635FF3E031DEF2E7635F70099
:100DEA007708F900F2017808873144278631F20141
:100DFA0079088731442786310800FA007A08F039E1
:100E0A00F6007608F8007A080F39F6000330F6354E
:100E1A00FF3E031D0C2F7635F7007708F900F20123
:100E2A00F20A7808873144278731F201F20A7908F1
:100E3A0087314427873108002000A7002408FD00D5
:100E4A007D08FC002708873172278731392F25084A
:100E5A0084002608850000088631912687310130F2
:100E6A002000A5070030A63D20002508840026089A
:100E7A0085001200031D422F432F2C2F0800F50076
:100E8A004D2FFE30F3007308F5055D2F75145D2FA5
:100E9A007208F300F4017408003A0319552F5D2F04
:100EAA007308003A0319462F013A03194B2F5D2F95
:100EBA0075088631B9268731751575088631B926C0
:100ECA008731FB30F3007308F50575088631B926BA
:100EDA0087311430890B6F2F08002000A2008D2F54
:100EEA007C087F3EA0002008A300A32F7C08BF3EF9
:100EFA00A0002008A300A32F7C08933EA00020088E
:100F0A00A300A32F7C08D33EA0002008A300A32F90
:100F1A002208A000A1012108003A0319952FA32F46
:100F2A002008013A0319752F033A03197B2F013A56
:100F3A000319812F073A0319872FA32F2308863114
:100F4A008B26873108008631AB26873100308631FF
:100F5A00B92687312730FC00F530890BB22FFC0BFC
:100F6A00B22F000003308631E52687310D30FC00B0
:100F7A00FC30890BBE2FFC0BBE2F03308631E526D1
:100F8A0087314230890BC72F003203308631E5267C
:100F9A00873102308631E5268731283086318B2623
:100FAA0087311830890BD72F00320730FC007C08B4
:100FBA002000AA000F3086318B2687311830890B22
:100FCA00E42F0032013086318B2687310630FC004F
:100FDA003030890BEE2FFC0BEE2F003208008631E1
:100FEA007D268731A80086317E268731A900AA018D
:100FFA0020008631CA2E47347234753470346F3407
:08100A00203455345634003443
:020000040001F9
:08000000FF3FFF3FFF3FFF3F00
:04000E00E23FFF3E90
:00000001FF
