:0400000007EF00F016
:0A0008005F82D0ED1BF08BEF1AF0C1
:10080000002A202566202F202566202F20256620FF
:10081000230D0A00494E46004E414E00696E6600A7
:100820006E616E006C660000000E0001916F000E9C
:10083000906F72C0A2F073C0A3F074C0A4F075C032
:10084000A5F0A5BF28EF04F026EF04F03EEF04F07A
:10085000000E916F010E906FA2C001F0A3C002F0D4
:10086000A4C003F0A5C004F052EC1BF001C0A2F03C
:1008700002C0A3F003C0A4F004C0A5F0000E000164
:10088000A96F000EA86FF7C094F0F8C095F09051D2
:100890009111D8A44EEF04F050EF04F057EF04F09C
:1008A000FBA555EF04F057EF04F071EF04F0905101
:1008B0009111D8A45EEF04F060EF04F066EF04F04D
:1008C000000E7D6F2B0E7C6F6AEF04F0000E7D6FC3
:1008D0002D0E7C6F7CC00CF1A84BA92B9407D8A0DF
:1008E0009507A2C001F0A3C002F0A4C003F0A5C008
:1008F00004F07CEC16F001040210D8A482EF04F09E
:1009000084EF04F0CEEF04F0BF0E0001776FFF0E0E
:10091000786F7651796F7A6B7751792778517A238E
:100920007A5107E11A0E795DD8B099EF04F09BEF88
:1009300004F0A9EF04F00C0EA825016E010EA92108
:10094000026E140E036E080E046E34EC1AF0B5EF4E
:1009500004F00C0EA825016E010EA921026E1C0EDA
:10096000036E080E046E34EC1AF00001FD0E94279D
:10097000FF0E952370C011F071C012F00C0E136EB3
:10098000010E146E94C015F095C016F03FEC18F0EF
:1009900011C070F012C071F018EF0AF0A2C001F09F
:1009A000A3C002F0A4C003F0A5C004F07CEC16F0D4
:1009B00001500210D8A4DFEF04F0E1EF04F014EFCF
:1009C00005F0BF0E0001776FFF0E786F7651796FDB
:1009D0007A6B7751792778517A237A5107E11A0E89
:1009E000795DD8B0F6EF04F0F8EF04F006EF05F00B
:1009F0000C0EA825016E010EA921026E180E036EC1
:100A0000080E046E34EC1AF0B5EF04F00C0EA825B5
:100A1000016E010EA921026E200E036E080E046EF7
:100A200034EC1AF0B5EF04F0000E0001AA6F000ECE
:100A3000AB6F800EAC6F3F0EAD6F000EA76F000E58
:100A4000A66FA2C001F0A3C002F0A4C003F0A5C02D
:100A500004F0000E056E000E066E000E076E000E0E
:100A6000086E5CEC19F0D8B038EF05F03AEF05F0FD
:100A7000BDEF05F059EF05F0AAC00FF0ABC010F0C4
:100A8000ACC011F0ADC012F0000E136E000E146E6B
:100A9000200E156E410E166E79EC0CF00FC0AAF008
:100AA00010C0ABF011C0ACF012C0ADF00001A64B0D
:100AB000A72BA2C028F0A3C029F0A4C02AF0A5C08B
:100AC0002BF0000E136E000E146E200E156E410EEC
:100AD000166EAAC00FF0ABC010F0ACC011F0ADC0E4
:100AE00012F079EC0CF00FC02CF010C02DF011C0FA
:100AF0002EF012C02FF0FAEC15F0D8B082EF05F00E
:100B000084EF05F03CEF05F0A4EF05F0AAC040F03B
:100B1000ABC041F0ACC042F0ADC043F0000E446E3B
:100B2000000E456E200E466E410E476E8EEC0EF0A6
:100B300040C0AAF041C0ABF042C0ACF043C0ADF041
:100B40000001A607D8A0A707A2C028F0A3C029F0DB
:100B5000A4C02AF0A5C02BF0AAC02CF0ABC02DF089
:100B6000ACC02EF0ADC02FF0FAEC15F0D8A0BBEF62
:100B700005F0BDEF05F086EF05F076C007F0086AD6
:100B8000AEEC1AF007500001976F97C096F0670E11
:100B90009719D8A4CEEF05F0D0EF05F0F6EF05F0E9
:100BA000F951FA11D8A4D7EF05F0D9EF05F0DDEF30
:100BB00005F0000EFA6F010EF96FFABFEAEF05F0CB
:100BC000FA5106E1F905D8B0E8EF05F0EAEF05F0D3
:100BD000F0EF05F0000E936F060E926FFFEF05F039
:100BE000F9C092F0FAC093F0FFEF05F0FABFFBEF07
:100BF00005F0FDEF05F0EAEF05F0F0EF05F0670E08
:100C00009719D8A406EF06F008EF06F037EF06F0C4
:100C1000A7AF16EF06F0FC0EA65DFF0EA759D8A0F1
:100C200014EF06F016EF06F035EF06F0FF0E776FC3
:100C3000FF0E786F92C079F093C07AF077517927E0
:100C400078517A23A651795D7A51800A7B6FA7513A
:100C5000800A7B59D8A02FEF06F031EF06F035EF70
:100C600006F0660E966F37EF06F0650E966F92C02F
:100C700088F093C089F0670E9719D8A442EF06F068
:100C800044EF06F054EF06F0660E9619D8A44BEF29
:100C900006F04DEF06F056EF06F0A7BF54EF06F052
:100CA00052EF06F056EF06F0884B892B660E961928
:100CB000D8A45DEF06F05FEF06F07FEF06F0A7BF68
:100CC00066EF06F064EF06F072EF06F0000EAA6F12
:100CD000000EAB6F800EAC6F3F0EAD6F000EA76FB6
:100CE000000EA66F670E9719D8B479EF06F07BEF68
:100CF00006F07FEF06F0A6518827A7518923000E42
:100D0000A16F000EA06FA2C098F0A3C099F0A4C07C
:100D10009AF0A5C09BF0AAC08AF0ABC08BF0ACC023
:100D20008CF0ADC08DF010EF07F098C040F099C086
:100D300041F09AC042F09BC043F0AAC044F0ABC05F
:100D400045F0ACC046F0ADC047F08EEC0EF040C0B0
:100D500059F041C05AF042C05BF043C05CF0F5EC82
:100D600011F059C09CF05AC09DF05BC09EF05CC071
:100D70009FF09CC001F09DC002F09EC003F09FC098
:100D800004F077EC15F001C08EF002C08FF098C02F
:100D900038F099C039F09AC03AF09BC03BF0AAC035
:100DA00013F0ABC014F0ACC015F0ADC016F09CC091
:100DB0000FF09DC010F09EC011F09FC012F079ECB2
:100DC0000CF00FC03CF010C03DF011C03EF012C05E
:100DD0003FF0D1EC1AF038C098F039C099F03AC021
:100DE0009AF03BC09BF0AAC040F0ABC041F0ACC051
:100DF00042F0ADC043F0000E446E000E456E200E72
:100E0000466E410E476E8EEC0EF040C0AAF041C017
:100E1000ABF042C0ACF043C0ADF00001A04BA12B41
:100E20008851A05DA151800A776F8951800A775956
:100E3000D8A01DEF07F01FEF07F095EF06F0AAC04E
:100E40000FF0ABC010F0ACC011F0ADC012F0000E4E
:100E5000136E000E146EA00E156E400E166E79EC19
:100E60000CF00FC09CF010C09DF011C09EF012C09D
:100E70009FF098C028F099C029F09AC02AF09BC032
:100E80002BF09CC02CF09DC02DF09EC02EF09FC07A
:100E90002FF0FAEC15F0D8B050EF07F052EF07F052
:100EA0005DEF07F0000E00019C6F000E9D6F000EBD
:100EB0009E6F000E9F6F86EF07F098C001F099C0FB
:100EC00002F09AC003F09BC004F09CC005F09DC0E6
:100ED00006F09EC007F09FC008F05CEC19F0D8A0A7
:100EE00074EF07F076EF07F086EF07F000018EB1A0
:100EF0007CEF07F07EEF07F086EF07F0000E9C6FA7
:100F0000000E9D6F000E9E6F000E9F6FA2C028F016
:100F1000A3C029F0A4C02AF0A5C02BF09CC02CF0DF
:100F20009DC02DF09EC02EF09FC02FF019EC0AF04E
:100F300028C098F029C099F02AC09AF02BC09BF0E5
:100F400098C028F099C029F09AC02AF09BC02BF0D5
:100F5000000E136E000E146E200E156E410E166EEE
:100F60008AC00FF08BC010F08CC011F08DC012F051
:100F700079EC0CF00FC02CF010C02DF011C02EF049
:100F800012C02FF0FAEC15F0D8A0C9EF07F0CBEFA4
:100F900007F0F4EF07F00001A64BA72B8AC00FF073
:100FA0008BC010F08CC011F08DC012F0000E136ECB
:100FB000000E146E200E156E410E166E79EC0CF0BC
:100FC0000FC08AF010C08BF011C08CF012C08DF0F1
:100FD000660E00019619D8A4F0EF07F0F2EF07F0C3
:100FE000F4EF07F0884B892B8AC0AAF08BC0ABF0D6
:100FF0008CC0ACF08DC0ADF0650E00019619D8B470
:1010000004EF08F006EF08F00CEF08F0A6C086F039
:10101000A7C087F010EF08F0000E876F000E866FF4
:10102000000E856F000E846F000E836F000E826FBE
:10103000000EA16F000EA06F0BEF09F098C040F0FA
:1010400099C041F09AC042F09BC043F0AAC044F05E
:10105000ABC045F0ACC046F0ADC047F08EEC0EF032
:1010600040C059F041C05AF042C05BF043C05CF050
:10107000F5EC11F059C09CF05AC09DF05BC09EF099
:101080005CC09FF09CC001F09DC002F09EC003F0C8
:101090009FC004F077EC15F001C08EF002C08FF015
:1010A0000001FBB956EF08F058EF08F075EF08F0B3
:1010B0008E518F11D8A45FEF08F061EF08F075EF43
:1010C00008F0670E9719D8A468EF08F06AEF08F0E7
:1010D00075EF08F087BF71EF08F06FEF08F075EF5C
:1010E00008F0824B832BBFEF08F084518511D8A400
:1010F0007CEF08F07EEF08F0A8EF08F087BF85EFDF
:1011000008F083EF08F0A8EF08F00C0EA825D96EC0
:10111000010EA921DA6E2E0EDF6EA84BA92B9407C3
:10112000D8A09507000E856F010E846FA8EF08F018
:101130000C0EA825D96E010EA921DA6E300EDF6ED5
:10114000A84BA92B9407D8A095078207D8A083079E
:1011500082518311D8A4AFEF08F0B1EF08F098EFF7
:1011600008F00C0EA825D96E010EA921DA6E8E5159
:10117000300FDF6EA84BA92B9407D8A0950798C015
:1011800038F099C039F09AC03AF09BC03BF0AAC041
:1011900013F0ABC014F0ACC015F0ADC016F09CC09D
:1011A0000FF09DC010F09EC011F09FC012F079ECBE
:1011B0000CF00FC03CF010C03DF011C03EF012C06A
:1011C0003FF0D1EC1AF038C098F039C099F03AC02D
:1011D0009AF03BC09BF0AAC040F0ABC041F0ACC05D
:1011E00042F0ADC043F0000E446E000E456E200E7E
:1011F000466E410E476E8EEC0EF040C0AAF041C024
:10120000ABF042C0ACF043C0ADF000018607D8A0FF
:101210008707A04BA12B8851A05DA151800A776F51
:101220008951800A7759D8B018EF09F01AEF09F000
:1012300028EF09F0A9BF26EF09F0A95109E14B0EEB
:10124000A85DD8A026EF09F028EF09F01EEF08F0FE
:1012500084518511D8A42FEF09F031EF09F042EF46
:1012600009F0FBA936EF09F038EF09F042EF09F079
:101270000C0EA825D96E010EA921DA6E2E0EDF6E96
:10128000A84BA92B0C0EA825D96E010EA921DA6E48
:10129000000EDF6E650E9619D8A451EF09F053EFDA
:1012A00009F0BAEF04F0000EA16F4F0EA06F0C0E04
:1012B000A025D96E010EA121DA6E000EDF6E000EA0
:1012C000916F000E906FA7BF6AEF09F068EF09F009
:1012D00072EF09F0000E916F010E906FA66DA71FBF
:1012E000D8B0A72B000E936F020E926FA3EF09F0F8
:1012F000A007D8A0A1070C0EA025D96E010EA12130
:10130000DA6EA6C001F0A7C002F0000E046E0A0E4D
:10131000036E04EC19F00150300FDF6EA6C001F02F
:10132000A7C002F0000E046E0A0E036EA2EC18F0C5
:1013300001C0A6F002C0A7F000019207D8A0930751
:101340009407D8A09507A651A711D8A4AAEF09F031
:10135000ACEF09F078EF09F093BFB9EF09F09351C2
:1013600006E19205D8B0B7EF09F0B9EF09F078EFD0
:1013700009F0A007D8A0A10790519111D8A4C3EFFC
:1013800009F0C5EF09F0CBEF09F0000E7F6F2B0ECF
:101390007E6FCFEF09F0000E7F6F2D0E7E6F0C0E6B
:1013A000A025D96E010EA121DA6E7EC0DFFF940761
:1013B000D8A09507A007D8A0A107BF0E776FFF0E92
:1013C000786F7651796F7A6B7751792778517A23D4
:1013D0007A5109E11A0E795DD8A0F1EF09F0F3EF27
:1013E00009F0F9EF09F0000E816F650E806FFDEFD7
:1013F00009F0000E816F450E806F0C0EA025D96E8E
:10140000010EA121DA6E80C0DFFF9407D8A09507F6
:101410000C0EA825016E010EA921026E0C0EA0254E
:10142000036E010EA121046E34EC1AF0BAEF04F041
:1014300012002B50800B346E2B502B24366E2AAEAC
:1014400024EF0AF026EF0AF027EF0AF03680365034
:10145000D8B42DEF0AF02FEF0AF044EF0AF0362847
:10146000D8A435EF0AF037EF0AF03FEF0AF0000E8C
:10147000286E000E296E000E2A6E000E2B6E2A8E2C
:10148000000E2B6E4CEF0AF0000E286E000E296E37
:10149000000E2A6E000E2B6E2F50800B356E3450CE
:1014A0003518D8B456EF0AF058EF0AF059EF0AF0A1
:1014B000348C2F502F24356E2EAE61EF0AF063EF7F
:1014C0000AF064EF0AF035803550D8B46AEF0AF0BC
:1014D0006CEF0AF081EF0AF03528D8A472EF0AF019
:1014E00074EF0AF07CEF0AF0000E2C6E000E2D6EE9
:1014F000000E2E6E000E2F6E2E8E000E2F6E89EFB8
:101500000AF0000E2C6E000E2D6E000E2E6E000ED8
:101510002F6E3650355CD8B090EF0AF092EF0AF09B
:10152000B9EF0AF034AC97EF0AF099EF0AF09BEFAD
:101530000AF0800E341A36C037F035C036F037C0A6
:1015400035F028C037F02CC028F037C02CF029C067
:1015500037F02DC029F037C02DF02AC037F02EC04B
:101560002AF037C02EF02BC037F02FC02BF037C039
:101570002FF0000E376E365035C030F0316A305ED5
:10158000000E315A31BECEEF0AF0315009E11A0E89
:10159000305CD8A0CEEF0AF0D0EF0AF007EF0BF0E6
:1015A000285029102A102B10D8A4D9EF0AF0DCEF0C
:1015B0000AF0010EDDEF0AF0000E376E000E286E05
:1015C000000E296E000E2A6E000E2B6E35C036F00E
:1015D00010EF0BF037A0EFEF0AF0F1EF0AF0F7EFA2
:1015E0000AF0D89037300109376EF9EF0AF0D89039
:1015F000373228A0FEEF0AF000EF0BF001EF0BF0FE
:10160000378E2B342B322A3229322832362A355063
:10161000365CD8A00EEF0BF010EF0BF0EAEF0AF0FB
:1016200034BC15EF0BF017EF0BF057EF0BF0365003
:10163000D8A41DEF0BF01FEF0BF029EF0BF0000EFD
:10164000286E000E296E000E2A6E000E2B6E78EFAB
:101650000CF02C5028262D5029222E502A222F50B3
:101660002B222BA036EF0BF038EF0BF0E4EF0BF052
:1016700037A03DEF0BF03FEF0BF045EF0BF0D890AC
:1016800037300109376E47EF0BF0D890373228A07A
:101690004CEF0BF04EEF0BF04FEF0BF0378E2B347F
:1016A0002B322A3229322832362AE4EF0BF02C5022
:1016B000285C2D5029582E502A582B50800A306E05
:1016C0002F50800A3058D8B068EF0BF06AEF0BF05B
:1016D00095EF0BF028502C5C306E29502D58316E50
:1016E0002A502E58326E2B502F58336EFF0E302456
:1016F000286EFF0E3120296EFF0E32202A6EFF0E5B
:1017000033202B6E800E341A376C3750D8A48BEFF1
:101710000BF08DEF0BF09DEF0BF0010E2826000E65
:1017200029222A222B229DEF0BF02C50285E2D50CF
:10173000295A2E502A5A2F502B5A285029102A1035
:101740002B10D8A4A6EF0BF0A8EF0BF0DDEF0BF0F9
:101750003750D8A4AEEF0BF0B0EF0BF0DDEF0BF08D
:10176000000E286E000E296E000E2A6E000E2B6EE3
:1017700078EF0CF0D890283629362A362B3637AE3B
:10178000C4EF0BF0C6EF0BF0C7EF0BF0288037A0CB
:10179000CCEF0BF0CEEF0BF0D2EF0BF0D88037365A
:1017A000D4EF0BF0D89037363650D8B4DAEF0BF0D0
:1017B000DCEF0BF0DDEF0BF036062AAEE2EF0BF0BC
:1017C000E4EF0BF0BAEF0BF0000E356E37AEEBEF37
:1017D0000BF0EDEF0BF005EF0CF037C030F07F0EA3
:1017E0003016D8B4F6EF0BF0F8EF0BF0FCEF0BF07F
:1017F000010E356E05EF0CF028A001EF0CF003EFA1
:101800000CF005EF0CF0F8EF0BF03550D8B40BEFFF
:101810000CF00DEF0CF038EF0CF0010E2826000E46
:1018200029222A222B222BA018EF0CF01AEF0CF001
:1018300038EF0CF028C030F029C031F02AC032F067
:101840002BC033F03334333232323132303230C0A5
:1018500028F031C029F032C02AF033C02BF03628EE
:10186000D8B435EF0CF037EF0CF038EF0CF0362A27
:101870003628D8B43EEF0CF040EF0CF048EF0CF0F7
:101880003650D8A446EF0CF048EF0CF05AEF0CF0AD
:10189000000E286E000E296E000E2A6E000E2B6EB2
:1018A0003650D8A456EF0CF058EF0CF05AEF0CF06D
:1018B000000E346E36A05FEF0CF061EF0CF064EFB9
:1018C0000CF02A8E65EF0CF02A9ED89036302B6EE5
:1018D00034AE6DEF0CF06FEF0CF070EF0CF02B8E60
:1018E00028C028F029C029F02AC02AF02BC02BF0EC
:1018F00012001250800B1B6E12501224216E11AE7A
:1019000084EF0CF086EF0CF087EF0CF02180215073
:10191000D8B48DEF0CF08FEF0CF0A2EF0CF0212873
:10192000D8A495EF0CF097EF0CF09FEF0CF0000EA1
:101930000F6E000E106E000E116E000E126E118EE4
:10194000AAEF0CF0000E0F6E000E106E000E116E5E
:10195000000E126E1650800B1B1A16501624206EA5
:1019600015AEB5EF0CF0B7EF0CF0B8EF0CF020802F
:101970002050D8B4BEEF0CF0C0EF0CF0D3EF0CF059
:101980002028D8A4C6EF0CF0C8EF0CF0D0EF0CF074
:10199000000E136E000E146E000E156E000E166E05
:1019A000158EDBEF0CF0000E136E000E146E000EA1
:1019B000156E000E166E2050D8B4E1EF0CF0E3EF78
:1019C0000CF0EBEF0CF02150D8A4E9EF0CF0EBEFAA
:1019D0000CF0F5EF0CF0000E0F6E000E106E000E06
:1019E000116E000E126E8DEF0EF015500F02F3CF38
:1019F00026F0F4CF27F026501C6E1D6A1E6A1F6A5F
:101A00002750226E236A246A256A14501002F3CFED
:101A100026F0F4CF27F026501C26000E1D221E2291
:101A20001F2227502226000E232224222522135073
:101A30001102F3CF26F0F4CF27F026501C26000E1B
:101A40001D221E221F2227502226000E232224227E
:101A500025221EC01FF01DC01EF01CC01DF01C6AF8
:101A600013501002F3CF26F0F4CF27F026501C2697
:101A700027501D22000E1E22000E1F2214500F029E
:101A8000F3CF26F0F4CF27F026501C2627501D2236
:101A9000000E1E22000E1F221EC01FF01DC01EF0D1
:101AA0001CC01DF01C6A13500F02F3CF26F0F4CFB8
:101AB00027F026501C2627501D22000E1E22000E45
:101AC0001F2215501002F3CF26F0F4CF27F0265036
:101AD000222627502322000E2422000E25221450F5
:101AE0001102F3CF26F0F4CF27F0265022262750FC
:101AF0002322000E2422000E252215501102F3CFBE
:101B000026F0F4CF27F02650176E2750186E196A6A
:101B10001A6A19C01AF018C019F017C018F0176A1D
:101B20001750222618502322195024221A502522F9
:101B30001CC017F01DC018F01EC019F01FC01AF00D
:101B4000190EA8EF0DF0D8901A3219321832173248
:101B5000E82EA3EF0DF0175022261850232219501B
:101B600024221A5025221EC01FF01DC01EF01CC0CA
:101B70001DF01C6A205021C017F0186A1726000EAD
:101B80001822820E1724266EFF0E1820276EDEEF15
:101B90000DF0D89022362336243625361FAED3EFEB
:101BA0000DF0D5EF0DF0D6EF0DF02280D8901C3659
:101BB0001D361E361F362606D8A0270624AEE3EFB4
:101BC0000DF0E5EF0DF0C9EF0DF0000E206E1FAE29
:101BD000ECEF0DF0EEEF0DF012EF0EF0FF0E1C1417
:101BE000176EFF0E1D14186EFF0E1E14196E7F0E59
:101BF0001F141A6E1750181019101A10D8B403EFCA
:101C00000EF005EF0EF009EF0EF0010E206E12EF50
:101C10000EF022A00EEF0EF010EF0EF012EF0EF00D
:101C200005EF0EF02050D8B418EF0EF01AEF0EF0BA
:101C30003EEF0EF0010E2226000E23222422252242
:101C400025A025EF0EF027EF0EF03EEF0EF022C09C
:101C500017F023C018F024C019F025C01AF01A3468
:101C60001A3219321832173217C022F018C023F076
:101C700019C024F01AC025F0264A272A27BE49EFAA
:101C80000EF0275008E12628D8A049EF0EF04BEFC0
:101C90000EF055EF0EF0000E226E000E236E800E39
:101CA000246E7F0E256E83EF0EF027BE62EF0EF0DE
:101CB000275006E12604D8B060EF0EF062EF0EF078
:101CC0006EEF0EF0000E226E000E236E000E246EDC
:101CD000000E256E000E1B6E83EF0EF026C021F065
:101CE000FF0E2216FF0E23167F0E2416000E251659
:101CF00021A07DEF0EF07FEF0EF080EF0EF0248E2E
:101D0000D8902130256E1B50251222C00FF023C021
:101D100010F024C011F025C012F012004350800BC7
:101D2000506E43504324576E42AE99EF0EF09BEF36
:101D30000EF09CEF0EF057805750D8B4A2EF0EF083
:101D4000A4EF0EF0B9EF0EF05728D8A4AAEF0EF0CA
:101D5000ACEF0EF0B4EF0EF0000E406E000E416ED0
:101D6000000E426E000E436E428E000E436EC1EFB7
:101D70000EF0000E406E000E416E000E426E000E20
:101D8000436E4750800B501A47504724586E46AE5A
:101D9000CCEF0EF0CEEF0EF0CFEF0EF05880585093
:101DA000D8B4D5EF0EF0D7EF0EF0ECEF0EF05828C8
:101DB000D8A4DDEF0EF0DFEF0EF0E7EF0EF0000E2F
:101DC000446E000E456E000E466E000E476E468E47
:101DD000000E476EF4EF0EF0000E446E000E456EDE
:101DE000000E466E000E476E4450451046104710D8
:101DF000D8A4FDEF0EF0FFEF0EF017EF0FF0000E7E
:101E0000406E000E416E000E426E000E436E800E5C
:101E100042127F0E43125050431240C040F041C066
:101E200041F042C042F043C043F05AEF10F0575027
:101E3000D8A41DEF0FF01FEF0FF029EF0FF0000EE9
:101E4000406E000E416E000E426E000E436E5AEF61
:101E500010F0585057C048F0496A485E000E495A81
:101E60007F0E4824516E000E4920526E40C04CF047
:101E700041C04DF042C04EF043C04FF0000E406EE6
:101E8000000E416E000E426E000E436E000E536E49
:101E9000000E546E000E556E000E566E000E586EFB
:101EA0008AEF0FF05850D8B458EF0FF05AEF0FF0F8
:101EB00071EF0FF0D8904C364D364E364F36D890E5
:101EC000403641364236433656AE69EF0FF06BEF7F
:101ED0000FF06CEF0FF04080D890533654365536E3
:101EE000563644504C5C45504D5846504E5847501D
:101EF0004F58D8A07EEF0FF080EF0FF089EF0FF072
:101F0000568C44504C5E45504D5A46504E5A4750A0
:101F10004F5A582A190E586490EF0FF092EF0FF0B5
:101F200052EF0FF04C504D104E104F10D8B49BEFA5
:101F30000FF09DEF0FF0B5EF0FF05380B5EF0FF0FE
:101F4000D890403641364236433656AEAAEF0FF0AF
:101F5000ACEF0FF0ADEF0FF04080D8905336543611
:101F6000553656365106D8A0520642AEBAEF0FF09B
:101F7000BCEF0FF0A0EF0FF0000E586E56AEC3EF9F
:101F80000FF0C5EF0FF0E9EF0FF0FF0E5314486E9E
:101F9000FF0E5414496EFF0E55144A6E7F0E5614F0
:101FA0004B6E485049104A104B10D8B4DAEF0FF07E
:101FB000DCEF0FF0E0EF0FF0010E586EE9EF0FF0DD
:101FC00040A0E5EF0FF0E7EF0FF0E9EF0FF0DCEFE7
:101FD0000FF05850D8B4EFEF0FF0F1EF0FF015EF0E
:101FE00010F0010E4026000E41224222432243A05F
:101FF000FCEF0FF0FEEF0FF015EF10F040C048F0CF
:1020000041C049F042C04AF043C04BF04B344B3220
:102010004A324932483248C040F049C041F04AC0D3
:1020200042F04BC043F0514A522A52BE20EF10F00A
:10203000525008E15128D8A020EF10F022EF10F004
:102040002DEF10F0000E526E5168000E406E000E23
:10205000416E000E426E000E436E52BE3AEF10F01B
:10206000525006E15104D8B038EF10F03AEF10F0BA
:1020700048EF10F0000E526E000E516E000E406ED2
:10208000000E416E000E426E000E436E000E506E4A
:1020900051C057F057A04FEF10F051EF10F054EF30
:1020A00010F0428E55EF10F0429ED8905730436E9C
:1020B0000BEF0FF01200B0C0D9FFB1C0DAFFDECFD6
:1020C000F6FFDDCFF7FF0800F550250AD8A46BEF27
:1020D00010F06DEF10F0D9EF11F0B0C0D9FFB1C022
:1020E000DAFFDE2A000EDD22000E0001F86F000E7E
:1020F000F76FF7C0FBF0F8C0FCF0F969FA69B0C0FF
:10210000D9FFB1C0DAFFDECFF6FFDDCFF7FF080061
:10211000F550076E086AAEEC1AF007500001BC6F6C
:10212000BC51D8B496EF10F098EF10F0D2EF10F049
:10213000B0C0D9FFB1C0DAFFDECFB4F0DDCFB5F06B
:10214000010EB427000EB523B4C0F6FFB5C0F7FFEB
:102150000800F550076E086AAEEC1AF0075000014F
:10216000BD6FBD51D8B4B7EF10F0B9EF10F0D2EF9A
:1021700010F0B0C0D9FFB1C0DAFFDECFB4F0DDCFD0
:10218000B5F0020EB427000EB523B4C0F6FFB5C0FB
:10219000F7FF0800F550076E086AAEEC1AF007501A
:1021A0000001BE6F660EBC19D8A4D9EF10F0DBEFAA
:1021B00010F01BEF11F0B0C0D9FFB1C0DAFFDECFD5
:1021C000F6FFDDCFF7FF0800F5CFBFF0B0C0D9FFB5
:1021D000B1C0DAFFDE2A000EDD22B2C0D9FFB3C0E3
:1021E000DAFFDFCFB4F0040EDE26DFCFB5F0000E4D
:1021F000DD22B4C0D9FFB5C0DAFFDECFB8F0DECF44
:10220000B9F0DECFBAF0DECFBBF0AEC070F0AFC039
:1022100071F0B8C072F0B9C073F0BAC074F0BBC04E
:1022200075F0BFC076F014EC04F070C0AEF071C071
:10223000AFF0F4EF11F0BC0E016E000E026E240E32
:10224000036E080E046E000E066E020E056E6FEC35
:1022500017F001500210D8A430EF11F032EF11F056
:10226000A1EF11F0B0C0D9FFB1C0DAFFDECFB4F0FA
:10227000DDCFB5F0010E0001B427000EB523B4C0C8
:10228000F6FFB5C0F7FF0800F5CFBFF0BF0EB46F83
:10229000FF0EB56FB0C0D9FFB1C0DAFFDECFF6FFD9
:1022A000DDCFF7FF0800F550B66FB76BB451B62716
:1022B000B551B723B75107E11A0EB65DD8B063EF39
:1022C00011F065EF11F07FEF11F0B2C0D9FFB3C08C
:1022D000DAFFDFCFB4F0040EDE26DFCFB5F0000E5C
:1022E000DD22B4C0D9FFB5C0DAFFDECFB8F0DECF53
:1022F000B9F0DECFBAF0DECFBBF097EF11F0B2C08D
:10230000D9FFB3C0DAFFDFCFB4F0040EDE26DFCF93
:10231000B5F0000EDD22B4C0D9FFB5C0DAFFDECFC4
:10232000B8F0DECFB9F0DECFBAF0DECFBBF0020EF0
:10233000B0C0D9FFB1C0DAFFDE26000EDD2205EF06
:1023400011F0B0C0D9FFB1C0DAFFDECFF6FFDDCFAC
:10235000F7FF0800F550250AD8A4B1EF11F0B3EF4C
:1023600011F0CBEF11F0B0C0D9FFB1C0DAFFDE2A17
:10237000000EDD22000E026E250E016EAEC003F0CF
:10238000AFC004F0DAEC17F0000E0001AF6F010EE1
:10239000AE6FF4EF11F0B0C0D9FFB1C0DAFFDE2AA2
:1023A000000EDD22000E0001AF6F000EAE6FF4EFE5
:1023B00011F0B0C0D9FFB1C0DAFFDECFF6FFDDCF3C
:1023C000F7FF0800F550016E026AAEC003F0AFC01F
:1023D00004F0DAEC17F0B0C0D9FFB1C0DAFFDE2AA2
:1023E000000EDD22C4EF11F0120000C16CF001C13B
:1023F0006DF002C16EF003C16FF059C06CF05AC0AD
:102400006DF05BC06EF05CC06FF0810E0001606F1C
:10241000FF0E616F6CC062F06DC063F06EC064F05F
:102420006FC065F0180E1AEF12F0D8906533643360
:1024300063336233E82E15EF12F0625160256A6F44
:10244000000E61216B6F6BBF2FEF12F06B5109E132
:10245000170E6A5DD8A02FEF12F031EF12F03BEFAC
:1024600012F059C059F05AC05AF05BC05BF05CC022
:102470005CF0FFEF12F06BBF40EF12F042EF12F092
:10248000B3EF12F06AC060F0FF0E616FFF0E626F73
:102490007F0E636F000E646F606751EF12F059EFAB
:1024A00012F064356433633362336133602F4CEF71
:1024B00012F061C066F062C067F063C068F064C08B
:1024C00069F0000166516C15606F67516D15616FA1
:1024D00068516E15626F69516F15636F60516111BC
:1024E00062116311D8A477EF12F079EF12F07BEF4D
:1024F00012F031EF12F06CC060F06DC061F06EC090
:1025000062F06FC063F0200E8BEF12F0D89063334F
:10251000623361336033E82E86EF12F0605161114F
:1025200062116311D8B497EF12F099EF12F0A1EF96
:1025300012F066516C2767516D2368516E23695103
:102540006F23661D606F671D616F681D626F691D77
:10255000636F60516C1761516D1762516E17635153
:102560006F17F7EF12F06CC060F06DC061F06EC0D5
:1025700062F06FC063F0200EC3EF12F0D8906333A7
:10258000623361336033E82EBEEF12F060516111A7
:1025900062116311D8A4CFEF12F0D1EF12F0DBEF8C
:1025A00012F0000E6C6F000E6D6F000E6E6F000E5D
:1025B0006F6FF7EF12F0D8906C35606F6D35616F0B
:1025C0006E35626F6F35636F605161116211631117
:1025D000D8B4EDEF12F0EFEF12F0F7EF12F0000EBB
:1025E0006C6F000E6D6F800E6E6FBF0E6F6F6CC0E4
:1025F00059F06DC05AF06EC05BF06FC05CF0120015
:102600000C0EC16EC5EC1BF0800E0001E56F250EAF
:10261000E66F000EE76F000EE86F080EE96F000E20
:10262000EA6F010EEB6F20EEE5F000EE0EF0070E04
:10263000DBCFEBFFE806FCE2FBEC16F0000E16EC3D
:102640001BF001C0FDF002C0FEF0FDC060F0FEC056
:1026500061F0000E0001626F000E636F000E646F88
:10266000000E656F000E666FC00E676F7F0E686F9D
:10267000440E696F000E6A6F000E6B6F000E6C6F78
:10268000000E6D6F000E6E6F000E6F6F160E706F86
:10269000430E716FD4EC14F060C0F1F061C0F2F041
:1026A00062C0F3F063C0F4F0010E16EC1BF001C041
:1026B000FDF002C0FEF0FDC060F0FEC061F0000E53
:1026C0000001626F000E636F000E646F000E656F95
:1026D000000E666FC00E676F7F0E686F440E696FE5
:1026E000000E6A6F000E6B6FC80E6C6F420E6D6F3E
:1026F000000E6E6F000E6F6F000E706F000E716F28
:10270000D4EC14F060C0EDF061C0EEF062C0EFF008
:1027100063C0F0F0020E16EC1BF001C0FDF002C029
:10272000FEF0FDC060F0FEC061F0000E0001626FBF
:10273000000E636F000E646F000E656F000E666F13
:10274000C00E676F7F0E686F440E696F000E6A6F70
:10275000000E6B6F2F0E6C6F440E6D6F000E6E6F60
:10276000800E6F6F890E706F440E716FD4EC14F091
:1027700060C008F161C009F162C00AF163C00BF1E9
:102780005C0E0001C66F010EC76F010EC86F080E08
:10279000C96FF1C0CAF0F2C0CBF0F3C0CCF0F4C006
:1027A000CDF0EDC0CEF0EEC0CFF0EFC0D0F0F0C075
:1027B000D1F008C1D2F009C1D3F00AC1D4F00BC1E5
:1027C000D5F062EC1AF05C0E026E010E036EA2EC04
:1027D0001BF00D0E0001E46FAF0EE36FB60EE82E96
:1027E000FED7E32FFCD7E42FFAD700F01EEF13F04B
:1027F00007EF00F0096E0950D8B401EF14F003EFB1
:1028000014F025EF14F004BE0AEF14F008EF14F0F2
:1028100025EF14F001C005F002C006F003C007F078
:1028200004C008F0051E061E071E081E052A000E1D
:1028300006220722082205C00BF006C00CF007C0D4
:102840000DF008C00EF02DEF14F001C00BF002C027
:102850000CF003C00DF004C00EF001500210031084
:102860000410D8A436EF14F038EF14F042EF14F04F
:10287000000E016E000E026E000E036E000E046E5E
:10288000D3EF14F0960E0A6E4CEF14F00A2AD8908B
:102890000E320D320C320B32000E0B14056E000E90
:1028A0000C14066E000E0D14076EFE0E0E14086E4C
:1028B0000550061007100810D8A461EF14F063EF5C
:1028C00014F046EF14F071EF14F00A2A010E0B26F3
:1028D000000E0C220D220E22D8900E320D320C3238
:1028E0000B32000E0B14056E000E0C14066E000E5B
:1028F0000D14076EFF0E0E14086E0550061007101B
:102900000810D8A486EF14F088EF14F065EF14F0E7
:1029100090EF14F00A06D8900B360C360D360E36B2
:102920000DBE95EF14F097EF14F09FEF14F0020E28
:102930000A609DEF14F09FEF14F08AEF14F00AB0D4
:10294000A4EF14F0A6EF14F0A7EF14F00D9ED890AA
:102950000A320AC005F0066A076A086A05C008F06C
:10296000076A066A056A05500B1206500C120750DA
:102970000D1208500E120950D8B4C1EF14F0C3EF75
:1029800014F0CBEF14F004BECAEF14F0C8EF14F04B
:10299000CBEF14F00E8E0BC001F00CC002F00DC096
:1029A00003F00EC004F012006AC03CF06BC03DF0B2
:1029B0006CC03EF06DC03FF06EC038F06FC039F0B3
:1029C00070C03AF071C03BF0D1EC1AF038C040F062
:1029D00039C041F03AC042F03BC043F062C03CF025
:1029E00063C03DF064C03EF065C03FF066C038F0A3
:1029F00067C039F068C03AF069C03BF0D1EC1AF01A
:102A000038C044F039C045F03AC046F03BC047F00A
:102A10008EEC0EF040C076F041C077F042C078F006
:102A200043C079F062C013F063C014F064C015F0C5
:102A300065C016F076C00FF077C010F078C011F0C6
:102A400079C012F079EC0CF00FC03CF010C03DF0F2
:102A500011C03EF012C03FF076C013F077C014F002
:102A600078C015F079C016F060C001F061C002F0C6
:102A7000000E02BEFF0E036E046E010EFAEC13F0A0
:102A800001C00FF002C010F003C011F004C012F03A
:102A900079EC0CF00FC038F010C039F011C03AF0EA
:102AA00012C03BF0D1EC1AF038C072F039C073F0AC
:102AB0003AC074F03BC075F072C028F073C029F0C2
:102AC00074C02AF075C02BF06AC02CF06BC02DF0DA
:102AD0006CC02EF06DC02FF019EC0AF028C060F029
:102AE00029C061F02AC062F02BC063F012000334E9
:102AF00004340A6E0A50D8A480EF15F082EF15F066
:102B00008CEF15F0000E016E000E026E000E036ECB
:102B1000000E046EF9EF15F001C005F002C006F0DA
:102B200003C007F004C008F0200E9CEF15F0D89009
:102B30000832073206320532E82E97EF15F00550BD
:102B4000096E038EFF0E0116FF0E0216FF0E03160E
:102B5000000E0416960E0A5E0ABEB3EF15F0B1EF32
:102B600015F0C9EF15F00A50800A970FD8B0BBEFE7
:102B700015F0BDEF15F0BFEF15F082EF15F0D8900E
:102B800004320332023201320A3EBFEF15F0E1EFA8
:102B900015F01F0E0A64CFEF15F0D1EF15F0D9EF45
:102BA00015F082EF15F0D890013602360336043660
:102BB0000A060A50D8A4DFEF15F0E1EF15F0D3EFC5
:102BC00015F00950D8B4E7EF15F0E9EF15F0F1EF83
:102BD00015F0041E031E021E016C000E02220322C9
:102BE000042201C001F002C002F003C003F004C0DF
:102BF00004F01200000E2814306E000E2914316EFD
:102C0000800E2A14326E7F0E2B14336E305031102A
:102C100032103310D8A40FEF16F011EF16F019EFA1
:102C200016F0000E286E000E296E000E2A6E000EA1
:102C30002B6E000E2C14306E000E2D14316E800E93
:102C40002E14326E7F0E2F14336E3050311032102E
:102C50003310D8A42EEF16F030EF16F038EF16F040
:102C6000000E2C6E000E2D6E000E2E6E000E2F6EBE
:102C70002BAE3DEF16F03FEF16F048EF16F0286C44
:102C8000291ED8B0292A2A1ED8B02A2A800E2B56EF
:102C90002FAE4DEF16F04FEF16F058EF16F02C6CEC
:102CA0002D1ED8B02D2A2E1ED8B02E2A800E2F56BB
:102CB000000E281A000E291A000E2A1A800E2B1A4E
:102CC000000E2C1A000E2D1A000E2E1A800E2F1A2E
:102CD0002C50285C2D5029582E502A582F502B58F4
:102CE000D8B075EF16F077EF16F07AEF16F0D890AF
:102CF0007BEF16F0D880120004C10BF005C10CF078
:102D000006C10DF007C10EF001C00BF002C00CF0BF
:102D100003C00DF004C00EF00BC005F00CC006F0AF
:102D20000DC007F00EC008F0180E9CEF16F0D890FA
:102D30000832073206320532E82E97EF16F00550BA
:102D4000096E0A6A09500A10D8A4A9EF16F0ABEF71
:102D500016F0CBEF16F0D8900B34056E0C34066EDF
:102D60000D34076E0E34086E05500610071008105B
:102D7000D8A4BDEF16F0BFEF16F0C5EF16F0000EA9
:102D8000026E020E016EFAEF16F0000E026E030ED6
:102D9000016EFAEF16F009280A10D8A4D2EF16F047
:102DA000D4EF16F0F6EF16F00BC005F00CC006F0ED
:102DB0000DC007F00EC008F0090ED8900536063693
:102DC00007360836E82EDDEF16F00550061007101E
:102DD0000810D8B4EEEF16F0F1EF16F0010EF2EF96
:102DE00016F0000E016E026AFAEF16F0000E026E87
:102DF000040E016E1200000E016E2D0E026E310ED9
:102E0000036E010E046E0EC016F00FC017F010C056
:102E100018F011C019F0040ED8901636173618366F
:102E20001936E82E0CEF17F016C005F017C006F0A3
:102E300018C007F019C008F0B1EC19F0FF0E01241A
:102E40001A6EFF0E02201B6EFF0E03201C6EFF0E7B
:102E500004201D6E1AC0AFFF240EAC6E900EAB6E38
:102E6000090E1218D8B437EF17F03AEF17F0AC8C00
:102E70003BEF17F0AC9C090E1218D8B442EF17F0D4
:102E800045EF17F0AB8C46EF17F0AB9CAC8AAC98D3
:102E9000AB8E59EF17F0AC84AC90AB826EEF17F0AD
:102EA000AC84AC804DEF17F0AC84AC90AB926EEF7D
:102EB00017F01350166E176A1750000AD8B463EF54
:102EC00017F054EF17F01650010AD8B44BEF17F073
:102ED000030AD8B450EF17F054EF17F0120001C0F6
:102EE00008F002C009F003C00AF004C00BF00506A8
:102EF000D8A00606052806E10628D8A482EF17F018
:102F000084EF17F091EF17F0000E026E000E016EC5
:102F1000D9EF17F0084A092A0A4A0B2A0506D8A051
:102F2000060608C0D9FF09C0DAFFDF50D8B49BEF0E
:102F300017F09DEF17F0C8EF17F00AC0F6FF0BC0AF
:102F4000F7FF0800F5500009D8B4A9EF17F0ABEF70
:102F500017F0C8EF17F005500610D8B4B2EF17F00D
:102F6000B4EF17F0C8EF17F008C0D9FF09C0DAFFB7
:102F7000DF50076E0AC0F6FF0BC0F7FF0800F550E0
:102F80000718D8B4C6EF17F0C8EF17F08AEF17F09C
:102F900008C0D9FF09C0DAFFDF50076E0AC0F6FF8C
:102FA0000BC0F7FF0800F550075C016E026AD8A05D
:102FB0000206120003500410D8B4E1EF17F0E3EF5B
:102FC00017F0ECEF17F003500410D8A4EAEF17F055
:102FD000ECEF17F0F1EF17F00150D3EC1BF03EEFE0
:102FE00018F020EE09F00350D9260450DA22DE5002
:102FF000DE10D8B4FEEF17F000EF18F01BEF18F05A
:1030000020EE09F00350D9260450DA2210EE03F026
:103010000350E1260450E222DE50E65CE650800ACE
:10302000096EDE50800A0958D8B019EF18F01BEF6E
:1030300018F03EEF18F020EE03F00350D9260450AC
:10304000DA22DECF05F0DDCF06F003C0D9FF04C0E1
:10305000DAFFDECF07F0DDCF08F005500724D96E88
:1030600006500820DA6E01C0DFFF20EE03F00350A7
:10307000D9260450DA22DE2A000EDD2212000001D9
:10308000FBA145EF18F047EF18F051EF18F013C00F
:103090000AF014C00BF011C00CF012C00DF0F4ECEB
:1030A0001AF016BE56EF18F058EF18F05EEF18F051
:1030B00015C01AF016C01BF062EF18F0000E1B6E60
:1030C000000E1A6E000E196E000E186E74EF18F0D6
:1030D000000E026E200E016E11C003F012C004F04B
:1030E000DAEC17F0184A192A1A50185C1950800A9D
:1030F000176E1B50800A1758D8A081EF18F083EF85
:1031000018F068EF18F00001FBB189EF18F08BEFB1
:1031100018F095EF18F013C00AF014C00BF011C0AE
:103120000CF012C00DF0F4EC1AF013C001F014C052
:1031300002F06EEC1BF01A500124116E1B5002209D
:10314000126E1200000E066E04BEABEF18F0A9EF6F
:1031500018F0B1EF18F0036C041ED8B0042A010E69
:10316000066E02BEB8EF18F0B6EF18F0BEEF18F01A
:10317000016C021ED8B0022A010E061A000E086E5B
:10318000000E076E03500410D8B4C9EF18F0CBEF4F
:1031900018F0F3EF18F0010E056ED3EF18F0D89089
:1031A00003360436052A04AED8EF18F0DAEF18F02B
:1031B000CFEF18F0D890073608360350015C045062
:1031C0000258D8A0E6EF18F0E8EF18F0EDEF18F08D
:1031D0000350015E0450025A0780D8900432033233
:1031E000052EDAEF18F00650D8B4F9EF18F0FBEF1F
:1031F00018F0FFEF18F0076C081ED8B0082A07C0B7
:1032000001F008C002F01200000E066E02BE0DEFC3
:1032100019F00BEF19F013EF19F0016C021ED8B082
:10322000022A010E066E04BE1AEF19F018EF19F00B
:103230001EEF19F0036C041ED8B0042A03500410CA
:10324000D8B425EF19F027EF19F04BEF19F0010E64
:10325000056E2FEF19F0D89003360436052A04AE18
:1032600034EF19F036EF19F02BEF19F00350015C31
:1032700004500258D8A03FEF19F041EF19F045EF84
:1032800019F00350015E0450025AD8900432033200
:10329000052E36EF19F00650D8B451EF19F053EF60
:1032A00019F057EF19F0016C021ED8B0022A01C0C4
:1032B00001F002C002F01200000E0114096E000EAF
:1032C00002140A6E800E03140B6E7F0E04140C6E33
:1032D00009500A100B100C10D8A471EF19F073EFFD
:1032E00019F07BEF19F0000E016E000E026E000E59
:1032F000036E000E046E000E0514096E000E061417
:103300000A6E800E07140B6E7F0E08140C6E0950A7
:103310000A100B100C10D8A490EF19F092EF19F0CE
:103320009AEF19F0000E056E000E066E000E076E85
:10333000000E086E055001180FE1065002180CE14E
:103340000750031809E108500418D8B4AAEF19F07F
:10335000ACEF19F0AFEF19F0D890B0EF19F0D880BA
:103360001200000E096E000E0A6E000E0B6E000EAB
:103370000C6E0550061007100810D8B4C2EF19F0F3
:10338000C4EF19F0FAEF19F0010E0D6ECEEF19F03F
:10339000D89005360636073608360D2A08AED3EF24
:1033A00019F0D5EF19F0C8EF19F0D89009360A36A0
:1033B0000B360C360550015C065002580750035876
:1033C00008500458D8A0E7EF19F0E9EF19F0F2EF30
:1033D00019F00550015E0650025A0750035A085072
:1033E000045A0980D89008320732063205320D2E71
:1033F000D5EF19F009C001F00AC002F00BC003F0CC
:103400000CC004F01200C2C05DF0C3C05EF0000E3C
:103410000001F66F000EF56F21EF1AF0C0C0AEF09C
:10342000C1C0AFF05D0EB06F000EB16FC4C0B2F09E
:10343000C5C0B3F05BEC10F00001AE51F527AF5101
:10344000F6235DC0F6FF5EC0F7FF0800F5500009E7
:10345000D8A42DEF1AF02FEF1AF00EEF1AF0F5C0E6
:10346000C0F0F6C0C1F0120003C007F004C008F0BD
:1034700001C009F002C00AF00750056E0850066E40
:10348000074A082A05C0F6FF06C0F7FFF86A09C018
:10349000D9FF0AC0DAFF094A0A2A070EF76403D0E7
:1034A0000800F55005D0F6CFE9FFF7CFEAFFEF505F
:1034B000DF6EDF50D8A45FEF1AF061EF1AF03CEF37
:1034C0001AF01200CA0E0001D66F000ED76FC6C0E8
:1034D000D8F0C7C0D9F0000EDC6F000EDB6F000E15
:1034E000E26F000EE16FD80EC06F000EC16FC8C052
:1034F000C2F0C9C0C3F0D60EC46F000EC56F03EC96
:103500001AF00001DB51C625D96EDC51C721DA6EF5
:10351000000EDF6E1200120EF66E370EF76E000E02
:10352000F86E01EE5CF010EE32F00900F5CFEEFF20
:10353000E550E150FAE101EE00F05C0EEE6AE806BB
:10354000FDE100EEEDF0120EEE6AE806FDE15F909F
:103550005F92000EF86E000100EF13F0BF0E096ECF
:10356000FF0E0A6E07C00BF008C00CF009500B26C6
:103570000A500C220C5007E11A0E0B5CD8B0C3EFB6
:103580001AF0C5EF1AF0CCEF1AF0200E0710076EF4
:103590000850086ED0EF1AF007C007F008C008F016
:1035A0001200000E3C1A000E3D1A000E3E1A800E4C
:1035B0003F1A38C028F039C029F03AC02AF03BC081
:1035C0002BF03CC02CF03DC02DF03EC02EF03FC093
:1035D0002FF019EC0AF028C038F029C039F02AC0C1
:1035E0003AF02BC03BF01200000E106E000E0F6E72
:1035F00005EF1BF00EC001F0026A0CC003F00DC015
:1036000004F0DAEC17F00F4A102A0F500A24D96E92
:1036100010500B20DA6EDF500E6E0E50D8A413EF50
:103620001BF015EF1BF0FAEF1AF01200056E05C043
:1036300003F00F0E031603460346C2500318C30BD4
:103640000318C26EC282C2B228EF1BF02AEF1BF031
:1036500023EF1BF0C350C4CF03F0046A03C004F08F
:10366000036A0310016E0450026E1200BF0E036E57
:10367000FF0E046E01C005F002C006F003500526DF
:103680000450062206500AE11A0E055CD8A04BEF42
:103690001BF04EEF1BF0010E4FEF1BF0000E016E02
:1036A000026A12000150021003100410D8B45BEF3C
:1036B0001BF05DEF1BF065EF1BF0000E011A000E12
:1036C000021A000E031A800E041A01C001F002C093
:1036D00002F003C003F004C004F0120001C003F0C4
:1036E00002C004F076EF1BF0014A022A01C0D9FFA4
:1036F00002C0DAFFDF50D8A480EF1BF082EF1BF08E
:1037000074EF1BF00350015C016E04500258026E0E
:103710001200200000000000000000000000000077
:103720000000000000000000000000000000000099
:103730000000000000000000000000000000000089
:1037400000000000ADEF1BF002C0D9FF03C0DAFF9C
:10375000DF50BAEC1BF0024A032A02C0D9FF03C0B3
:10376000DAFFDF50D8A4B7EF1BF0B9EF1BF0A4EFDE
:103770001BF01200016EACA2C0EF1BF0C2EF1BF0F9
:10378000BBEF1BF001C0ADFF1200CF0EC116C08E03
:10379000C050F80B0609C06E380EC012C28012006D
:0837A00006005F921100120007
:020000040020DA
:08000000FFFFFFFFFFFFFFFF00
:020000040030CA
:0E000000000C181EFF8181FF0FC00FE00F40A3
:00000001FF
