:08000000803102288731EC2F4A
:10090C0016302100970008002000110E890C0139C7
:10091C00080071082000A9007008A80008007108E0
:10092C002000AD007008AC00080071082000AB007E
:10093C007008AA000800703021009900980122006C
:10094C0096010800FE0012001E000130FE0200306D
:10095C00FF3B7F087E04031DA92C0034853129251B
:10096C0084318431A12484318431862484318531CD
:10097C000725843108002000911EC52CC62CC12CE3
:10098C00B00123009D1CCB2CCC2CCE2C1D121D1683
:10099C00190808007108F4007008F300D92C013014
:1009AC00F0070030F13D70088400710885001200DA
:1009BC00031DE12CE22CD52C73087002F000740896
:1009CC00713BF1000800700886007108870001086F
:1009DC007206031DF22CF32CF42C062D7108F50075
:1009EC007008F400F00A0319F10A740886007508FF
:1009FC0087000108031D032D042DE92CF001F101E2
:100A0C000800083023009F0090309D0024309E0089
:100A1C00CF309B009C010030F0000030F10084319D
:100A2C00952485310030F0000030F10084319B2496
:100A3C0085310030F0000030F10084318F24853195
:100A4C002000B0010800220090018F018C018D0163
:100A5C008E010F3021009000FF308C00FF308D0094
:100A6C00BF308E00F8308F00F83023008F003F30FD
:100A7C008D00073090003F308C00240090018D01D8
:100A8C002100951722009D01080020002208230454
:100A9C000319512D522D9E2D2308F1002208F00030
:100AAC008431D024853171082000A5007008A40081
:100ABC008F2D2108F1002008F0002308F3002208F4
:100ACC00F2002508F5002408F4008531A1258531B4
:100ADC0070087104031D732D742D752DA02D20002D
:100AEC002008013EF0000030213DF1002208840076
:100AFC00230885000008FB00FC017B08F2007C0841
:100B0C00F3008431E924853171082000A1007008BC
:100B1C00A000200821040319942D952D9E2D20084A
:100B2C008600210887000108031D9D2D9E2D5F2D39
:100B3C00A001A10108007108F8007008F700730803
:100B4C00FA007208F9000130F4020030F53B740A27
:100B5C00031DB42D750A031DB42DB52DC42DF00144
:100B6C00F101FA2D0130F7070030F83D0130F9079B
:100B7C000030FA3D0130F4020030F53B7708860076
:100B8C007808870001080319CC2DCD2DEC2D7908A0
:100B9C0084007A08850012000319D52DD62DEC2D72
:100BAC00740875040319DB2DDC2DEC2D79088400F9
:100BBC007A0885000008F600770886007808870018
:100BCC00010876060319EB2DEC2DB82D770886005D
:100BDC0078088700790884007A08850000080102EB
:100BEC00F000F101031CF103080020340034003440
:100BFC000034003400340034003400340034003449
:100C0C000034003400340034003400340034003438
:100C1C000034003400340034003400340034003428
:100C2C000034003400340034003400340034003418
:100C3C000034003400340034003400340034003408
:100C4C0000340034003400340034003400340034F8
:100C5C0000340034003400340034003400340034E8
:100C6C0000340034003400340034003400340034D8
:100C7C0000340034003400340034003400340034C8
:100C8C0000340034003400340034003400340034B8
:100C9C0000340034003400340034003400340034A8
:100CAC000034003400340034003400340034003498
:100CBC0000348431B424863184318A248631003A5C
:100CCC000319692E6A2E162F8431C1248631200017
:100CDC00A6002608AF002E088C3EA600A7012330E4
:100CEC00A73D26088600270887002F08810023309F
:100CFC002F06031D822E832E122F8C30A000233042
:100D0C00A1001B30A2008830A30085314B25863111
:100D1C002000200821040319942E952E972E2200D2
:100D2C000F148C302000A0002330A1000030A20052
:100D3C008830A30085314B25863120002008210402
:100D4C000319A92EAA2EAC2E22000F108C302000D5
:100D5C00A0002330A1002330A2008830A3008531ED
:100D6C004B2586312000200821040319BE2EBF2EEE
:100D7C00C12E22008F148C302000A0002330A10043
:100D8C000930A2008830A30085314B258631200024
:100D9C00200821040319D32ED42ED62E22008F1016
:100DAC008C302000A0002330A1002B30A200883012
:100DBC00A30085314B25863120002008210403191E
:100DCC00E82EE92EEB2E22000F158C302000A0000F
:100DDC002330A1001230A2008830A30085314B25AE
:100DEC0086312000200821040319FD2EFE2E002F31
:100DFC0022000F118C30F0002330F1002030F20073
:100E0C000030F3003230F4000030F5008731222737
:100E1C0086312000AE01162F0130A6002608AE0741
:100E2C0003302000A6009730890B1A2FA60B1A2F1F
:100E3C000032622E803102287108FD007008FC001F
:100E4C0074087504031D2B2F2C2F2D2FEB2F7C08D2
:100E5C0086007D0887007208810074087C07F60004
:100E6C0075087D3DF7007608FF3EF800FF30773DB2
:100E7C00F900780886007908870072088100003034
:100E8C00750203300319740203184D2F4E2F4F2F88
:100E9C00EB2F7C08013EF60000307D3DF700760814
:100EAC00860077088700720881007C08023EF600F5
:100EBC0000307D3DF70076088600770887007208C1
:100ECC00810074087C07F60075087D3DF7007608F4
:100EDC00FE3EF800FF30773DF9007808860079086F
:100EEC0087007208810074087C07F60075087D3D48
:100EFC00F7007608FD3EF800FF30773DF9007808E2
:100F0C00860079088700720881000030750207306E
:100F1C00031974020318932F942F952FEB2F7C0831
:100F2C00033EF60000307D3DF7007608860077081A
:100F3C0087007208810074087C07F60075087D3DF7
:100F4C00F7007608FC3EF800FF30773DF900780892
:100F5C00860079088700720881000030750209301C
:100F6C00031974020318BB2FBC2FBD2FEB2F7C0968
:100F7C00F6007D09F700F60A0319F70A0330760527
:100F8C00FA0000307705FB007A08FC077B08FD3D72
:100F9C007A08F4027B08F53BFC30F405FF30F505CC
:100FAC00E52F7C0886007D088700720881000130DF
:100FBC00F4020030F53B0130FC070030FD3D7408B5
:100FCC007504031DEA2FEB2FD72F0800FB3084008C
:100FDC00853085008C308600233087000030FF0080
:100FEC0064308431A8248731AE01AF01B0012000F8
:100FFC0086315F2E623474346E3441343D346F3438
:10100C00663466340034623474346E3442343D34A5
:10101C006F34663466340034623474346E34433462
:10102C003D346F34663466340034623474346E3458
:10103C0041343D346F346E340034623474346E3465
:10104C0042343D346F346E340034623474346E3454
:0A105C0043343D346F346E34003429
:020000040001F9
:08000000FF3FFF3FFF3FFF3F00
:04000E00E43FFF3E8E
:00000001FF
