:08000000803102288731FC2F3A
:100EDC0023008D0121008D010800F23021009900C2
:100EEC0098012200960187316E278731750887316A
:100EFC009A2787310130F3007308F5070A30750221
:100F0C00031C892F8A2F8B2FF5011530F4004B30E1
:100F1C00F300BE30890B902FF30B902FF40B902F16
:100F2C0000327C2F80310228F2008030F0007008F3
:100F3C0022008D05D32F3F30F00070088D04FB2F5D
:100F4C000630F00070088D04FB2F5B30F000700849
:100F5C008D04FB2F4F30F00070088D04FB2F663092
:100F6C00F00070088D04FB2F6D30F00070088D04BC
:100F7C00FB2F7D30F00070088D04FB2F2730F00024
:100F8C0070088D04FB2F7F30F00070088D04FB2F50
:100F9C006730F00070088D04FB2F7208F000F1012F
:100FAC007108003A0319DB2FFB2F7008003A031964
:100FBC00A12F013A0319A62F033A0319AB2F013ABB
:100FCC000319B02F073A0319B52F013A0319BA2F99
:100FDC00033A0319BF2F013A0319C42F0F3A03190F
:100FEC00C92F013A0319CE2FFB2F0800F501200061
:040FFC008731732F97
:020000040001F9
:08000000FF3FFF3FFF3FFF3F00
:04000E00E43FFF3F8D
:00000001FF
