:08000000803102288731E42F52
:100E900023008D0121008D010800FE0012001E00BC
:100EA000FE0B4E2F00343F3406345B344F3466342F
:100EB0006D347D3407347F346734C034F934A4345E
:100EC000B034993492348234F83480349834F23027
:100ED0002100990098012200960187314827873127
:100EE0007D0887318E2787310130FB007B08FD07A5
:100EF0000A307D02031C7D2F7E2F7F2FFD011530D0
:100F0000FC004B30FB00BE30890B842FFB0B842F81
:100F1000FC0B842F0032702F80310228FA007A08EF
:100F2000703E860087010118962F992F22000D1719
:100F30009B2F22000D137A08703E860087018118CE
:100F4000A22FA52F22000D14A72F22000D107A0822
:100F5000703E860087010119AE2FB12F22000D15BA
:100F6000B32F22000D117A08703E86008701811987
:100F7000BA2FBD2F22008D15BF2F22008D117A08A8
:100F8000703E86008701011AC62FC92F22000D1658
:100F9000CB2F22000D127A08703E86008701811A3D
:100FA000D22FD52F22008D16D72F22008D127A082E
:100FB000703E86008701011BDE2FE12F22008D1479
:100FC000E32F22008D100800533084008730850005
:100FD00070308600003087000A3087314D27873116
:100FE0005D30840087308500203086000030870027
:100FF0000A3087314D278731FD0120008731672F67
:020000040001F9
:08000000FF3FFF3FFF3FFF3F00
:04000E00E43FFF3F8D
:00000001FF
